:1000000065C000008AC0000088C0000086C00000F3
:1000100084C0000082C0000080C000007EC00000DC
:100020007CC000007AC0000078C000000C945D1015
:1000300074C0000072C0000070C000006EC00000FC
:100040000C94FD176AC000000C9491130C94DE13FD
:1000500064C0000062C0000060C000005EC000001C
:100060000C94660D5AC00000000000002400270018
:100070002A0000000000250028002B0000000000DE
:1000800023002600290004040404040404040202DA
:100090000202020203030303030301020408102007
:1000A0004080010204081020010204081020000012
:1000B0000007000201000003040600000000000029
:1000C000000022059E0C4A151D05B50C11241FBE0B
:1000D000CFEFD8E0DEBFCDBF11E0A0E0B1E0EEEAA7
:1000E000FBE302C005900D92A43EB107D9F715E0DD
:1000F000A4EEB1E001C01D92AD3AB107E1F710E006
:10010000C8ECD0E004C02297FE010E94C71DC23C8B
:10011000D107C9F70E94F01701C072CFF8940C9470
:10012000CB1DFB01DC0101900D920020E1F7089549
:10013000FB01DC014150504030F08D91019080195D
:1001400019F40020B9F7881B990B089594E19A954A
:10015000F1F708950895319BFECFA894089508956E
:10016000389839984098419888279927309B089566
:10017000319B089581E0089581E00895319BEBDF84
:10018000389AE4DF1AC081E008958F938F918F939E
:10019000319BE1DF389ADADF10D0882311F404D0E4
:1001A000F5CF0F9008950895399A389ACFDF39988E
:1001B000CDDF319BD0DF3898C9CF0894881F01C0AC
:1001C000880FB9F0399A00000000000018F4000010
:1001D000389802C0389A00C0B9DF3998A894000056
:1001E00000000000319BB7DF12F4882712C0AEDF99
:1001F000E7CF399A000000003898A8DF99278827B0
:100200003998A8940000319BA6DF7AF3309B81E0F7
:100210009DDF00000000399A089581E0089571E0A3
:10022000399A389800000000000090DF39988EDF7E
:10023000A894000000000000319B8DDFB2F088948C
:1002400030990894771F60F7399A803011F0389808
:1002500001C0389A00000000000078DF3998A894A7
:1002600000000000319B77DF71DF00000000399A49
:10027000872F9927089580E2089581E080939B035A
:10028000089510929B030895089508950895FC0120
:100290008EEA91E0918380830895FC018EEA91E0DB
:1002A0009183808308958F929F92AF92BF92CF9255
:1002B000DF92EF92FF920F931F93CF93DF93EC01A6
:1002C00080EB63DF86E379DF882329F06DDF81EB44
:1002D00055DF882321F468DF81E0888700C175E459
:1002E000C72ED12CCC0EDD1E10E1115080E009F498
:1002F00081E095DFF60181936F011123B1F754DF9F
:10030000188665E5862E912C8C0E9D1EF4011182B7
:10031000108200E010E0EE24FF24AA24BB24B401E4
:1003200057E5C52ED12CCC0EDD1E6FC0C901880F3C
:10033000991F280F391F2F5FDE01A80FB91FFE017B
:10034000E20FF11DEB5BFF4F819155968C93559712
:1003500056961C92569781915D968C935D975E960A
:100360001C925E97208130E0F60131832083A90141
:100370004073507094E0440F551F9A95E1F75596DD
:100380008D919C915697480F591F56965C934E93AA
:100390005597207C3070220F331F220F331F5D963C
:1003A0008D919C915E97280F391F5E963C932E93FA
:1003B0005D97CA0101978E5F934008F521153105BD
:1003C000F1F083E02F3F3807D0F40F5F1F4F959671
:1003D0008D919C919697840F951F969587959696EB
:1003E0009C938E939597840F951F969587959E96CF
:1003F0009C938E939D97E40EF51EA20EB31EFB01F7
:1004000080819181019691838083FB0120813181DC
:10041000243031050CF48ACF39E5C32ED12CCC0E13
:10042000DD1E01151105B9F0F60110820E94451874
:10043000ED96688379838A839B83ED97C701B80122
:100440000E94611D7EAB6DABC501B8010E94611DAC
:1004500078AF6FAB42C0F6018081882309F03FC0BE
:100460000E94451869AF7AAF8BAF9CAFFE01EF5B7E
:10047000FF4FED962081318142815381E880F980E0
:100480000A811B81ED972E0D3F1D401F511F26171E
:1004900037074807590718F581E0F60180831EAA3F
:1004A0001DAA18AE1FAAF40111821082DE01AB5AF8
:1004B000BF4F0DC0FC01EE0FFF1FEC0FFD1F16A27A
:1004C00015A216A615A6019611969C938E938D9152
:1004D0009C911197843091056CF381E08F838F811B
:1004E000DF91CF911F910F91FF90EF90DF90CF9010
:1004F000BF90AF909F908F9008953F924F925F92E0
:100500006F927F928F929F92AF92BF92CF92DF9223
:10051000EF92FF920F931F93DF93CF93CDB7DEB788
:1005200028970FB6F894DEBF0FBECDBF4C014983AC
:100530005A836B837C8328013901CD82DE82EF826E
:10054000F8863A2CDC01DD961C92DD979496AC92ED
:1005500069817A818B819C8120E030E040E050E02D
:100560000E94711B87FD93C0C301B20120E030E0FF
:1005700040E050E00E94711B87FD89C06D817E8143
:100580008F81988520E030E040E050E00E94711BB0
:1005900087FD7DC089819A81AB81BC81F40184870C
:1005A0009587A687B787D40150964D925D926D923C
:1005B0007C9253978D819E81AF81B885848B958B7A
:1005C000A68BB78B61A972A983A994A90E940E1C5E
:1005D00020E030E04AE754E40E94751B7B018C0167
:1005E00089819A81AB81BC81F401808F918FA28F28
:1005F000B38FC301B201A80197010E94C41C5B0123
:100600006C01D4015C966D937D938D939C935F9761
:100610006D817E818F819885A80197010E94751B4D
:100620007B018C01F40160A371A382A393A3F1E089
:100630003F1669F560E070E080E090E029813A8142
:100640004B815C810E940C1BD40158966D937D9365
:100650008D939C935B9760E070E080E090E0A60152
:1006600095010E940C1BF401648F758F868F978F04
:1006700060E070E080E090E0A80197010E940C1B10
:10068000D40190966D937D938D939C9393970F2EA9
:10069000F0E04F2EF0E05F2EF0E06F2EF0E07F2EC6
:1006A000F02DF40145AA56AA67AA70AE0F2EF0E00D
:1006B000AF2EF0E0BF2EFFE7CF2EF3E4DF2EF02DBC
:1006C000D401D996AD92BD92CD92DC92DC97DD96A5
:1006D0008C91DD97882309F44AC01496ED90FD9023
:1006E0000D911C911797C801B701A60195010E94B1
:1006F000C01C181634F4F401A482B582C682D782D5
:1007000011C0C801B70120E030E040E050E00E9495
:10071000711B88233CF4D40114964D925D926D9226
:100720007C921797F401A1A4B2A4C3A4D4A4E1AC11
:10073000F2AC03AD14ADC601B501A80197010E944A
:10074000C01C18166CF0F401E5A8F6A807A910ADB6
:10075000C601B501A80197010E94711B88233CF4D2
:10076000D4019996ED92FD920D931C939C9781E094
:1007700090E0A0E0B0E0F40181AB92ABA3ABB4ABEE
:100780000E944518D401D1962D913D914D915C91D7
:10079000D497621B730B840B950BF40165A376A3AE
:1007A00087A390A78EE390E0880E991E8C8D9D8D77
:1007B000AE8DBF8DF40180839183A283B38328968D
:1007C0000FB6F894DEBF0FBECDBFCF91DF911F9162
:1007D0000F91FF90EF90DF90CF90BF90AF909F90E0
:1007E0008F907F906F905F904F903F900895AF9261
:1007F000BF92CF92DF92EF92FF920F931F938130BF
:10080000910509F006C16F5F7F4F09F00DC1E4EF5C
:10081000F1E00F2EF0E0EF2EF0E0FF2EF0E80F2FCA
:10082000FFE31F2FF02DE082F18202831383E48225
:10083000F58206831783789682E0E43EF80799F7FD
:100840008CE291E0A0E0B0E08093DC029093DD02C6
:10085000A093DE02B093DF020E9445186093D80295
:100860007093D9028093DA029093DB0280EE92E0DB
:100870000E94150FE092F302F092F4020093F50249
:100880001093F602E092F702F092F8020093F90258
:100890001093FA028EEA91E09093FC028093FB029F
:1008A000F8EEAF2EF3E0BF2EC12CD12CA0920C039A
:1008B000B0920D03C0920E03D0920F030E94451810
:1008C000609308037093090380930A0390930B03CA
:1008D000EAE0EE2EF12C012D112DE092FD02F092B6
:1008E000FE020093FF021093000310920203109285
:1008F000010384EA91E09093FC028093FB02A092B2
:100900003C03B0923D03C0923E03D0923F030E944D
:100910004518609338037093390380933A0390939A
:100920003B03E0920C03F0920D0300930E0310932F
:100930000F038BE490E0A0E0B0E080933C03909341
:100940003D03A0933E03B0933F03E0E1F3E080E07A
:1009500090E00AC01182108211861086118A108AD6
:10096000118E108E01963296833091059CF39093F0
:100970005103809350031092310310923003109270
:100980003303109232031092540300D000D08FE64C
:1009900092E1A3E8BAE3EDB7FEB781839283A38324
:1009A000B48385E593E040E050E060EA70E400E065
:1009B00010E020E430E40F2EF0E0CF2EF0E0DF2E48
:1009C000F0E8EF2EFFE3FF2EF02DAA2496DD0F9026
:1009D0000F900F900F908CE993E06EE771E04AE082
:1009E0000E94661388EE93E0A0E0B0E080930804D4
:1009F00090930904A0930A04B0930B040E94451835
:100A00006093040470930504809306049093070494
:100A10000BC0892B49F46F5F7F4F31F48EEA91E070
:100A20009093FC028093FB021F910F91FF90EF9037
:100A3000DF90CF90BF90AF90089580E090E06FEF8F
:100A40007FEFD5CE81E090E06FEF7FEFD0CEFC015D
:100A50008EEA91E091838083CF01FCC6FC018EEA8F
:100A600091E091838083CF01F5C66091EA03709194
:100A7000EB0380EE92E00C94780F2F923F924F920E
:100A80005F926F927F928F929F92AF92BF92CF921E
:100A9000DF92EF92FF920F931F93DF93CF9300D0DB
:100AA00000D000D0CDB7DEB784EE91E09E838D8379
:100AB000B2E03B2E832D0E9484197C01AD81BE8162
:100AC00014968D919D910D90BC91A02D89839A8350
:100AD000AB83BC83ED81FE816485758586859785B2
:100AE00024893589468957890E940D1B5B016C0159
:100AF000AD81BE8150962D913D914D915C91539762
:100B00000E940D1B9B01AC0160E070E080E89FE358
:100B10000E94751BA60195010E94C41C3B014C015B
:100B20000027F7FC0095102FC801B7010E94101C88
:100B30009B01AC0160E070E080E89FE30E940C1B29
:100B400029813A814B815C810E940C1B9B01AC0185
:100B5000C401B3010E94C41C9B01AC0169817A816C
:100B60008B819C810E940D1B7B018C01ED81FE819C
:100B7000608371838283938360E070E080E89FE309
:100B8000A40193010E940C1BA60195010E94C41CA4
:100B9000AD81BE8118966D937D938D939C931B9729
:100BA000FD01E482F582068317831C966D937D9385
:100BB0008D939C931F9733945896BE83AD83BCE06E
:100BC0003B1609F077CFA4EE8A2EA1E09A2EBB2423
:100BD000DD242224AA244424552400E010E0F4015A
:100BE000C080F1806280E3806C2D7F2D862D9E2D4C
:100BF0002B2D3D2D422D5A2D0E94C01C181614F489
:100C0000280104C0CB2CFD2C622CEA2C0F5F1F4F57
:100C100088E190E0880E991E0A30110529F0BC2C5D
:100C2000DF2C262CAE2CDBCFE090E702F090E80220
:100C30000091E9021091EA026091EF027091F002D6
:100C40008091F1029091F2022091F7023091F80226
:100C50004091F9025091FA020E940D1B5B016C0158
:100C60002091F3023091F4024091F5025091F60286
:100C70000E940D1B9B01AC0160E070E080E89FE3E7
:100C80000E94751BA60195010E94C41C3B014C01EA
:100C9000B201882777FD8095982F0E94101CA8012B
:100CA00097010E940C1B9B01AC01C401B3010E947F
:100CB000C41C9B01AC01C801B7010E940D1B7B0144
:100CC0008C01CB01D8018093E3029093E402A093BE
:100CD000E502B093E60260E070E080E89FE3A401E3
:100CE00093010E940C1BA60195010E94C41C9B014C
:100CF000AC012093EB023093EC024093ED02509351
:100D0000EE029701A8012093E7023093E802409396
:100D1000E9025093EA02AC01CB01DA018093EF02C1
:100D20009093F002A093F102B093F20226960FB6D0
:100D3000F894DEBF0FBECDBFCF91DF911F910F9111
:100D4000FF90EF90DF90CF90BF90AF909F908F90EB
:100D50007F906F905F904F903F902F9008952F92CB
:100D60003F924F925F926F927F928F929F92AF923B
:100D7000BF92CF92DF92EF92FF920F931F93DF9378
:100D8000CF93CDB7DEB72C970FB6F894DEBF0FBE6A
:100D9000CDBF09C08EE795E00E94D114682F8CE981
:100DA00093E00E9430138EE795E00E94A014892BF7
:100DB00089F70E944518609304037093050380939C
:100DC00006039093070320910C0330910D0340918B
:100DD0000E0350910F03E0900803F0900903009177
:100DE0000A0310910B032E0D3F1D401F511F2617A4
:100DF00037074807590708F48DC22FC081E0809358
:100E000001030E94451860930803709309038093BF
:100E10000A0390930B0380910203882359F4E09115
:100E2000FB02F091FC020480F581E02D8BEF92E053
:100E30000995811181E08093020380910C0488233D
:100E400061F0109201030E944518609308037093AB
:100E5000090380930A0390930B0380910203882374
:100E600011F010920203609132037091330380E01D
:100E700090E00E940E1C609355037093560380937C
:100E800057039093580380919203882309F42DC14E
:100E90000E9445186D837E838F83988780917A03A3
:100EA00090917B03A0917C03B0917D032D813E81C5
:100EB0004F815885281B390B4A0B5B0B80918603A9
:100EC00090918703A0918803B0918903281739076F
:100ED0004A075B0708F409C1209055033090560378
:100EE000409057035090580360915D0370915E03EA
:100EF00080915F0390916003A20191010E940C1BFD
:100F000069837A838B839C83209171033091720370
:100F100040917303509174030E94C41C20917E037E
:100F200030917F0340918003509181030E940D1BFB
:100F30007B018C0180918A03898790918B039A872A
:100F4000A0918C03AB87B0918D03BC87C801B7011A
:100F500029853A85AD010E94711B88233CF489855F
:100F60009A85AB85BC853C014D0112C060908E0313
:100F700070908F038090900390909103C801B70107
:100F8000A40193010E94C01C181614F037014801F7
:100F900060927E0370927F0380928003909281031F
:100FA00060919703709198038091990390919A03AF
:100FB00026E636E646E65FE30E94C41C7B018C0110
:100FC000C201B101209182033091830340918403D7
:100FD000509185030E940C1B2DEC3CEC4CEC5DE326
:100FE0000E94C41C9B01AC01C801B7010E940D1BEB
:100FF0005B016C016093970370939803809399034E
:1010000090939A0369817A818B819C8120916D03F1
:1010100030916E0340916F03509170030E94C41C85
:10102000A40193010E940D1B7B018C01C601B50137
:1010300020917503309176034091770350917803A6
:101040000E94C41C9B01AC01C801B7010E940C1B8B
:10105000209193033091940340919503509196030E
:101060000E94C41C7B018C01A0908E0390908F0382
:1010700080909003709091032A2D392D482D572D83
:101080000E94C01C18162CF48A2D992DA82DB72D5E
:101090000EC0C801B70129853A854B855C850E9441
:1010A000711B882334F489859A85AB85BC857C01C6
:1010B0008D01E0925903F0925A0300935B03109361
:1010C0005C03209282033092830340928403509207
:1010D00085038D819E81AF81B88580937A0390933B
:1010E0007B03A0937C03B0937D03809132039091A6
:1010F0003303892B09F041C060917A0170917B0123
:1011000080917C0190917D01209176013091770151
:1011100040917801509179010E940D1B7B018C0157
:1011200060937A0170937B0180937C0190937D01A1
:1011300020E030E04AE253E40E94C01C88232CF0F7
:101140008DEC9CECACECBEEB0FC0C801B70120E00D
:1011500030E040E251E40E94711B88230CF04CC047
:101160008DEC9CECACECBEE3809376019093770120
:10117000A0937801B09379013FC060917A0170919A
:101180007B0180917C0190917D01209159033091E8
:101190005A0340915B0350915C030E940D1B7B013D
:1011A0008C0160937A0170937B0180937C01909312
:1011B0007D0120E030E04AE253E40E94C01C181692
:1011C0002CF480E090E0AAE2B3E40EC0C801B701BD
:1011D00020E030E040E251E40E94711B882364F477
:1011E00080E090E0A0E2B1E480937A0190937B01EB
:1011F000A0937C01B0937D0180919B03882381F0B3
:1012000060917A0170917B0180917C0190917D01C8
:101210000E94DD1B9B01AC0180EE92E0B90168D613
:101220002CDC0E9445187B018C016093D4027093E2
:10123000D5028093D6029093D7028091DC029091E0
:10124000DD02A091DE02B091DF022091D802309140
:10125000D9024091DA025091DB02820F931FA41F42
:10126000B51F8E159F05A007B10708F059C0E09281
:10127000D802F092D9020093DA021093DB028EE7D3
:1012800095E060E071E00E94B216409155035091E4
:10129000560360915703709158038EE795E022E062
:1012A00030E00E9485178EE795E069E071E00E94CA
:1012B000B21640915D0350915E0360915F0370919F
:1012C00060038EE795E022E030E00E9485178EE70C
:1012D00095E065E171E00E94B2164091590350918A
:1012E0005A0360915B0370915C038EE795E022E006
:1012F00030E00E94871740917A0150917B01609104
:101300007C0170917D018EE795E022E030E00E9443
:10131000871706C080910C04882309F09ECD6ECDFE
:101320002C960FB6F894DEBF0FBECDBFCF91DF91E4
:101330001F910F91FF90EF90DF90CF90BF90AF90F3
:101340009F908F907F906F905F904F903F902F90E5
:101350000895AF92BF92CF92DF92FF920F931F93A7
:10136000DF93CF93CDB7DEB72C970FB6F894DEBFDF
:101370000FBECDBFDE011196E4EBF1E08CE00190F1
:101380000D928150E1F78EE795E06CE171E00E94EB
:101390009817CC24DD245E010894A11CB11C8601A1
:1013A000000F111F0A0D1B1D80EB0E94C50082E07B
:1013B000F82E08C0F80180810E94DD00882349F0E2
:1013C0000F5F1F4FFA94FFEFFF16A1F70E94D400A2
:1013D0000CC08EE795E06AE371E00E94B2168EE7DA
:1013E00095E068E471E00E9498176AE070E080E0A0
:1013F00090E00E9453180894C11CD11C86E0C816C6
:10140000D10469F62C960FB6F894DEBF0FBECDBF9F
:10141000CF91DF911F910F91FF90DF90CF90BF9000
:10142000AF9008956F927F928F929F92AF92BF92EA
:10143000CF92DF92EF92FF920F931F9380E090E0A4
:10144000A0EAB2E480937A0190937B01A0937C019F
:10145000B0937D018EE795E040E855E260E070E0F2
:101460000E9419148EE060E00E94F1188FE060E0A5
:101470000E94F1180E94B0008BEF92E06ADF80E0DA
:1014800090E0A0E0B4E480935D0390935E03A093AA
:101490005F03B09360030F2EF0E06F2EF0E07F2E1D
:1014A000FAE78F2EF4EC9F2EF02D60928A03709253
:1014B0008B0380928C0390928D030F2EF0E0AF2E61
:1014C000F0E0BF2EFAE7CF2EF4E4DF2EF02DA0924D
:1014D0008E03B0928F03C0929003D09291038091BB
:1014E0009203882309F458C0E0905903F0905A03FE
:1014F00000915B0310915C03C801B701A60195013F
:101500000E94C01C18164CF4A0925903B0925A03C2
:10151000C0925B03D0925C0312C0C801B70120E007
:1015200030E04AE754EC0E94711B882344F4609237
:10153000590370925A0380925B0390925C03E0908F
:101540007E03F0907F030091800310918103C80116
:10155000B70120E030E04AE754E40E94C01C1816AE
:101560002CF480E090E0AAE7B4E40EC0C801B70113
:1015700020E030E04AE754EC0E94711B882364F4B9
:1015800080E090E0AAE7B4EC80937E0390937F0321
:10159000A0938003B093810300D000D08FE692E146
:1015A000A3E8BAE3EDB7FEB781839283A383B48344
:1015B00085E593E040E050E060EA70E40DEC1CEC5F
:1015C0002CEC3DE30F2EF7E1CF2EF7EBDF2EF1ED04
:1015D000EF2EF8E3FF2EF02DAA240E947D020F903B
:1015E0000F900F900F9080919203882309F048C0CC
:1015F000E0905903F0905A0300915B0310915C0353
:10160000E0927E03F0927F030093800310938103A6
:101610008091550390915603A0915703B0915803C0
:101620008093820390938303A0938403B0938503F4
:10163000A0908E03B0908F03C0909003D090910340
:10164000C801B701A60195010E94C01C181684F0BC
:10165000A0908A03B0908B03C0908C03D0908D0330
:10166000C801B701A60195010E94711B882344F4AB
:10167000A0927E03B0927F03C0928003D092810338
:1016800081E0809392038CE993E064E471E036D6C4
:1016900081E090E00E94AC1880EE92E06CE070E097
:1016A0004AE050E02AEA30E089D480EE92E060EA35
:1016B00070E01ED412E0812F60E00E94F1181F5FDD
:1016C0001C30C9F786E594E067E070E0D4D186E588
:1016D00094E065E17CE028D186E594E064E87BE075
:1016E00028D161E070E080E090E00E9453181F91E3
:1016F0000F91FF90EF90DF90CF90BF90AF909F90B1
:101700008F907F906F9008956F927F928F929F92AB
:10171000AF92BF92CF92DF92EF92FF920F931F93FF
:10172000DF93CF9300D000D0CDB7DEB700D000D08C
:101730000DB71EB70F5F1F4F6091E3027091E40277
:101740008091E5029091E6020E94DD1BAFEF6A2EC8
:10175000712C812C912CF80160827182828293829B
:1017600020E030E040E050E0FAE0EF2EF12C012DD7
:10177000112DAA24BB2465010E94A9176B836091D7
:101780007A0170917B0180917C0190917D010E9492
:10179000E21B6C83609130037091310380E090E034
:1017A000EDB7FEB7618272828382948220E030E0DE
:1017B00040E050E0EFEFEE2EE3E0FE2E012D112D84
:1017C0000E94A9176983609132037091330380E00E
:1017D00090E0EDB7FEB7618272828382948220E04E
:1017E00030E040E050E00E94A91769830F900F900D
:1017F0000F900F9086E594E0BE016F5F7F4F44E04D
:1018000050E0C1D00F900F900F900F90CF91DF91CB
:101810001F910F91FF90EF90DF90CF90BF90AF900E
:101820009F908F907F906F9008951F9386E594E02E
:1018300023D0182F86E594E01FD0112339F410929D
:101840009B03882319F081E080939B031F910895E7
:10185000F894FFCF0C94741A0895FC0184EC91E085
:1018600091838083089520912E0430E080912D048F
:10187000281B3109C901089540912D0480912E043F
:10188000481718F02FEF3FEF0AC0E42FF0E0E35FB6
:10189000FB4F8081282F30E04F5F40932D04C9011A
:1018A0000895E0912D0480912E04E81718F0EFEFD1
:1018B000FFEF06C0F0E0E35FFB4F8081E82FF0E030
:1018C000CF0108950895AC0120915404309155043E
:1018D00021153105E1F090912D0480912E04981787
:1018E000B0F090E008C0FA01EA0FFB1F8081A35F0F
:1018F000BB4F8C939F5FA92FB0E0A617B7079CF34F
:1019000010922D0460932E04CB01F90109950895DE
:10191000E0915204F0915304309729F010924F0453
:1019200010925004099508957093550460935404DF
:1019300008957093530460935204089510925904CB
:101940001092580488EE93E0A0E0B0E080935A042F
:1019500090935B04A0935C04B0935D0484EC91E0ED
:101960009093570480935604089584EC91E09093EB
:101970005704809356040895FC0184EC91E0918310
:101980008083CF0167CFCF92DF92EF92FF920F93C8
:101990001F93CF93DF937C016B018A0180915104E7
:1019A0008823A1F0C0E0D0E00DC0D701ED91FC91FB
:1019B000D601AC0FBD1F0190F081E02DC7016C91E5
:1019C00009952196C017D10780F303C0CB01642F7E
:1019D00058D0C801DF91CF911F910F91FF90EF90E8
:1019E000DF90CF900895DF93CF930F92CDB7DEB7FE
:1019F000FC016983809151048823C9F080915004CF
:101A0000803238F081E090E09383828320E030E000
:101A100014C080914F04E82FF0E0E15DFB4F998105
:101A200090838F5F80934F048093500404C0CE0155
:101A3000019661E026D021E030E0C9010F90CF91FE
:101A4000DF91089510922D0410922E0410924F04ED
:101A500010925004CCC10F931F938C01862F0DD090
:101A600088E89CE02ED083E69CE026D0C801EADF1F
:101A70001F910F910895EFCF0895880F8093BA00BA
:101A80000895482F613210F081E008958091870415
:101A9000843011F082E008956093AD04A0EBB4E0CF
:101AA000842F9C01F90102C081918D938E2F841B9C
:101AB0008617D0F380E008959093AB048093AA0436
:101AC00008959093AF048093AE0408951F920F92EF
:101AD0000FB60F9211242F933F934F935F936F9301
:101AE0007F938F939F93AF93BF93EF93FF938091D7
:101AF000B90090E0887F90708036910509F4F2C0BB
:101B000081369105CCF58832910509F47BC0893284
:101B10009105B4F48031910509F46FC081319105CC
:101B20003CF4009709F447C1089709F04FC165C01C
:101B30008831910509F466C0809709F047C182C0D9
:101B40008034910509F4A4C08134910544F48033B4
:101B5000910509F482C0C89709F038C189C0803561
:101B6000910509F489C08835910509F496C0883437
:101B7000910509F02BC1AEC08839910509F413C154
:101B800089399105ECF48837910509F4ABC08937A0
:101B900091054CF48836910509F4A4C0803791056D
:101BA00009F014C19FC08838910509F4FCC0803940
:101BB000910509F49DC08038910509F007C198C0CE
:101BC000803B910509F4C6C0813B91054CF4803AF5
:101BD000910509F49FC0883A910509F0F7C0BAC091
:101BE000803C910509F4E3C0883C910509F4DFC00D
:101BF000883B910509F0EAC0C2C0809162048093DD
:101C0000BB00CFC09091630480916404981768F47E
:101C100090916304E92FF0E0EB59FB4F80818093B2
:101C2000BB009F5F90936304BCC0809185048823B0
:101C300009F44BC085ED8093BC008091BC0084FD0D
:101C4000FCCFC2C080E28093880485ED8093BC0005
:101C50008091BC0084FDFCCFB7C080E380938804F2
:101C600085ED8093BC008091BC0084FDFCCFACC0AE
:101C700088E3809388049BC0809163049091BB00AB
:101C8000E82FF0E0EB59FB4F90838F5F8093630464
:101C9000909163048091640482C080916304909168
:101CA000BB00E82FF0E0EB59FB4F90838F5F8093F0
:101CB000630480918504882341F085ED8093BC0006
:101CC0008091BC0084FDFCCF7FC081E080938604BE
:101CD00084EA6EC085ED8093BC008091BC0084FDD9
:101CE000FCCF72C083E0809387041092890459C0AE
:101CF00080918904803208F056C0809189049091C7
:101D0000BB00E82FF0E0E657FB4F90838F5F809396
:101D1000890447C080918904803230F4E0918904BD
:101D2000F0E0E657FB4F108285ED8093BC00809178
:101D3000BC0084FDFCCF1092870460918904E0917F
:101D4000AA04F091AB048AE894E070E0099510923F
:101D500089042DC084E0809387041092AC04109213
:101D6000AD04E091AE04F091AF0409958091AD040B
:101D7000882329F481E08093AD041092B0049091FF
:101D8000AC04E92FF0E0E055FB4F80818093BB006D
:101D90009F5F9093AC049091AC048091AD04981730
:101DA00010F485EC01C085E88093BC000FC085EC81
:101DB0008093BC0009C01092880485ED8093BC001C
:101DC0008091BC0084FDFCCF10928704FF91EF91BD
:101DD000BF91AF919F918F917F916F915F914F9143
:101DE0003F912F910F900FBE0F901F90189510925A
:101DF000870481E0809385041092860482E161E08B
:101E00000E94301983E161E00E943019E9EBF0E0B3
:101E100080818E7F808380818D7F808388E4809322
:101E2000B80085E48093BC000895FC011182128201
:101E30008091D0048C3090F480838F5F8093D004A5
:101E4000815090E0FC01EE0FFF1FE80FF91FEF52E9
:101E5000FB4F88EB9BE09283818308958FEF808313
:101E60000895FC0120812C3008F041C08181992720
:101E700087FD909548E850E0481B590B440F551FCB
:101E8000440F551F6417750784F08281992787FDD9
:101E9000909548E552E0481B590B440F551F440FDD
:101EA000551F641775070CF4AB0142505040CA012E
:101EB000AA2797FDA095BA2F74E0880F991FAA1F33
:101EC000BB1F7A95D1F763E0B695A795979587954F
:101ED0006A95D1F74FB7F89430E0F901EE0FFF1F84
:101EE000E20FF31FEF52FB4F928381834FBF0895A0
:101EF000AF92BF92CF92DF92EF92FF920F931F9318
:101F0000CF93DF93EC019B0182E0603278070CF005
:101F100047C077FF03C020E030E005C0653B710596
:101F200014F024EB30E000D000D0B901882777FD11
:101F30008095982F2981332727FD3095E8E8AE2E2C
:101F4000B12CA21AB30AAA0CBB1CAA0CBB1CCC2431
:101F5000B7FCC094DC2CEA81FF27E7FDF09528E56B
:101F600032E02E1B3F0B220F331F220F331F44275B
:101F700037FD4095542FEDB7FEB72183328343835D
:101F8000548320E030E040E050E004EBE02EF12C00
:101F9000012D112DDED79B010F900F900F900F9008
:101FA000CE01B9015EDFDF91CF911F910F91FF90BC
:101FB000EF90DF90CF90BF90AF900895CF92DF92D7
:101FC000EF92FF921F93CF93DF93EC01162F7A01CC
:101FD000690188818C3008F064C0862F61E00E941E
:101FE000F118888190E0FC01EE0FFF1FE80FF91F48
:101FF000EF52FB4F1F738081807C812B808380E2B6
:1020000092E08E199F0964E070E00E94751D69835B
:1020100080E699E08C199D0964E070E00E94751DCE
:102020006A83A8818A2F6CE00E94551D682F70E09A
:10203000AB01440F551F460F571F440F551F440F48
:10204000551F20E030E0C901840F951FFC01EE0F01
:10205000FF1FE80FF91FEF52FB4F808186FD15C06F
:102060002F5F3F4F2C30310571F724C01092800054
:1020700082E0809381001092850010928400B19AD2
:1020800080916F00826080936F008A2F90E0FC0146
:10209000EE0FFF1FE80FF91FEF52FB4F80818064A6
:1020A00080838881DF91CF911F91FF90EF90DF9027
:1020B000CF900895672BD1F2E8CF1F920F920FB601
:1020C0000F9211242F933F934F935F936F937F93BE
:1020D0008F939F93AF93BF93EF93FF938091F504FA
:1020E00087FF05C010928500109284002BC02091BC
:1020F000F504332727FD30958091D00490E0281710
:10210000390704F58091F504992787FD9095FC0126
:10211000EE0FFF1FE80FF91FEF52FB4F808186FF84
:1021200011C08091F504992787FD9095FC01EE0F71
:10213000FF1FE80FF91FEF52FB4F80818F7360E0A4
:102140000E9430198091F5048F5F8093F5042091EF
:10215000F504332727FD30958091D00490E02817AF
:1021600039070CF04EC08091F5048C300CF049C05A
:1021700020918400309185008091F504992787FD96
:102180009095FC01EE0FFF1FE80FF91FEF52FB4F78
:1021900081819281280F391F309389002093880014
:1021A0008091F504992787FD9095FC01EE0FFF1FA4
:1021B000E80FF91FEF52FB4F808186FF2BC0809103
:1021C000F504992787FD9095FC01EE0FFF1FE80F9E
:1021D000F91FEF52FB4F80818F7361E00E9430192D
:1021E00019C080E49CE905C080918400909185002D
:1021F000049690938900809388008FEF8093F50474
:1022000009C08091840090918500049680549C4977
:1022100040F3EACFFF91EF91BF91AF919F918F91E2
:102220007F916F915F914F913F912F910F900FBED2
:102230000F901F901895CF93DF93FC01EE59FF4F3D
:10224000A081B181E256F040AA30B105C4F5EB019E
:1022500020E030E070E01DC068816D3211F471E063
:1022600017C0862F80538A3098F4C901880F991FB0
:10227000880F991F880F991F220F331F820F931FFA
:10228000262F332727FD309520533040280F391F44
:102290002196C417D50701F7772319F030952195BA
:1022A0003F4F9796AA0FBB1FAE0FBF1F2D933C93B6
:1022B000EE59FF4F80819181019691838083DF9158
:1022C000CF910895CF93DF93EC01C45BDF4FE8819A
:1022D000F981CC54D040309711F0099505C0EB81BD
:1022E000FC81CE0108960995C45BDF4F19821882E4
:1022F000669619821882DF91CF910895FC0174834C
:1023000063830895CF92DF92EF92FF920F931F9312
:10231000CF93DF93DC016B018A01061B170BFC01D5
:10232000E45BFF4F11821082CD91DC917F010CC0E4
:10233000C601A8010E949800009729F48A819B8118
:10234000F701918380832496F70180819181892B05
:1023500029F4688179816115710551F7DF91CF9179
:102360001F910F91FF90EF90DF90CF900895AF9263
:10237000BF92CF92DF92EF92FF920F931F93CF9372
:10238000DF937C01EC01289629E430E0E20EF31E95
:10239000F701808127EB3FEFE20EF31EC82EDD240C
:1023A00089E090E0C80ED91ECE0CDF1CECE4F0E012
:1023B000EE0EFF1EF7011182108226E130E0E20EE0
:1023C000F31EF701118210822EE93FEFE20EF31E99
:1023D00001C02196CC15DD0509F437C1888189300B
:1023E000C1F38032B1F3BE018B3524F081568A31BE
:1023F00020F02BC181340CF428C18E010F5F1F4FD8
:102400000C151D0509F421C1F80180818A30C1F045
:102410008B302CF48823A1F0893031F4C3C08D3087
:1024200079F0803209F4BEC0813424F480538A30BC
:1024300028F30BC18B3514F381568A31F8F205C1AC
:102440005E01C701B501A8015DDF05C05E01C701DE
:10245000BE01A801F0DEE8012196CC15DD0509F4E6
:10246000F0C088818A30C1F38B301CF48823A1F33B
:10247000ECC08D3089F38B3309F0E7C0C701B5019B
:10248000AE0120DF2196CC15DD0509F4DEC0888180
:102490008930C1F38032B1F3BE018B3524F081560F
:1024A0008A3120F0D2C081340CF4CFC08E012C2FA1
:1024B0009D2F0F5F1F4F0C151D0509F4C6C0F801B5
:1024C0008081A22EB92E8A3009F4BBCF8B3034F430
:1024D000882309F4B6CF893031F411C08D3009F466
:1024E000B0CF803261F0813424F480538A3008F315
:1024F000ACC08B35F4F281568A31D8F2A6C0C70140
:10250000A80100DF03C0C701A80195DE5E01E80154
:102510002196CC15DD0509F498C088818D3009F429
:102520009BCF8E304CF4893099F38A3009F494CFE4
:10253000882309F491CF06C08B3251F08D3241F0DF
:10254000803231F380538A3008F07FC08E010CC096
:102550008E010F5F1F4F0C151D0509F476C0898190
:1025600080538A3008F071C0BE010F5F1F4F0C15F9
:102570001D0509F46AC0F80180818A3009F466CF2C
:102580008B3034F4882309F461CF893039F4BBCF20
:102590008D3009F45BCF803209F4B5CF80538A3097
:1025A00020F353C0C701A801ADDE03C0C701A801D5
:1025B00042DE5E01E8012196CC15DD0509F445C037
:1025C00088818D3081F08E303CF48930A1F38A30DF
:1025D00051F0882341F009C08B3261F08D3251F007
:1025E000803219F4E8CF8E0136CF80538A3068F5F7
:1025F0008E010AC08E010F5F1F4F0C151D0529F1BA
:10260000898180538A3008F5BE010F5F1F4F0C157A
:102610001D05D9F0F80180818A3009F417CF8B307D
:1026200034F4882309F412CF893039F4BFCF8D30C8
:1026300009F40CCF803209F4B9CF80538A3028F3E3
:1026400004C0C701B501AE013DDEDF91CF911F91FE
:102650000F91FF90EF90DF90CF90BF90AF900895D3
:102660001F93CF93DF93EC01162F6D3011F06A307A
:1026700039F4CE017CDE1886C75BDF4F188222C09A
:10268000862F992787FD90950E942D1D892B69F033
:10269000DE01A75BBF4F8C918034A0F4FE01E80FF0
:1026A000F11D10878F5F8C930AC0183059F4FE011A
:1026B000E75BFF4F8081882329F081508083C80F1A
:1026C000D11D1886DF91CF911F9108950F931F930D
:1026D0008C01FC0171836083128214821382478310
:1026E000065B1F4FF801118210820A541040C80186
:1026F000059666E671E00E949100F8011086075B7E
:102700001F4FF80110820D5F1F4FF80111821082D8
:102710000A5E1F4FF801118210821F910F910895D8
:1027200008951F920F920FB60F9211242F933F938B
:102730004F938F939F93EF93FF938091C00082FDFF
:102740001DC04091C60020913605309137052F5F9E
:102750003F4F2F73307080913805909139052817BD
:10276000390771F0E0913605F0913705EA50FB4FDB
:102770004083309337052093360502C08091C60010
:10278000FF91EF919F918F914F913F912F910F90DA
:102790000FBE0F901F901895E0918A05F0918B0560
:1027A000E05CFF4F8191919120813181821B930BDD
:1027B0008F739070892B09F0B3CF08951F920F92F9
:1027C0000FB60F9211242F933F938F939F93EF9304
:1027D000FF9320917A0530917B0580917C05909143
:1027E0007D052817390731F48091C1008F7D8093D2
:1027F000C10014C0E0917C05F0917D05E65CFA4FC4
:10280000208180917C0590917D0501968F73907059
:1028100090937D0580937C052093C600FF91EF91F6
:102820009F918F913F912F910F900FBE0F901F900E
:102830001895AF92BF92DF92EF92FF920F931F9382
:10284000CF93DF93EC017A018B01DD24403081EEE0
:10285000580780E0680780E0780711F0DD24D39402
:1028600091E0A92EB12CEC89FD89DD2069F0C5012C
:1028700008A002C0880F991F0A94E2F7808360E0E5
:1028800079E08DE390E005C0108260E874E88EE1A5
:1028900090E0A80197010E94881D215030404040DF
:1028A0005040569547953795279580E12030380759
:1028B00020F0DD2011F0DD24D6CFE889F9893083BE
:1028C000EA89FB89208319A2EE89FF89408121E0F2
:1028D00030E0C9010C8C02C0880F991F0A94E2F7FE
:1028E000482B4083EE89FF894081C9010D8C02C0CD
:1028F000880F991F0A94E2F7482B4083EE89FF89DD
:102900004081C9010E8C02C0880F991F0A94E2F71A
:10291000482B4083EE89FF8980810F8C02C0220FF3
:10292000331F0A94E2F7209528232083DF91CF916B
:102930001F910F91FF90EF90DF90BF90AF9008959F
:10294000DC011C96ED91FC911D97E05CFF4F2191FD
:10295000319180819181281B390B2F733070C9010F
:102960000895DC011C96ED91FC911D97E05CFF4FF2
:1029700020813181E054F040DF01AE5BBF4F8D918B
:102980009C9111972817390719F42FEF3FEF07C0D3
:102990008D919C91E80FF91F8081282F30E0C901AB
:1029A0000895DC011C96ED91FC911D97E05CFF4FB2
:1029B00020813181E054F040DF01AE5BBF4F8D914B
:1029C0009C9111972817390719F42FEF3FEF10C08A
:1029D0008D919C911197E80FF91F20818D919C9109
:1029E000119701968F73907011969C938E9330E09F
:1029F000C9010895DC0191968C919197882339F053
:102A00005496ED91FC915597808186FFF9CF919670
:102A10001C920895CF93DF93EC01EE85FF85E05C77
:102A2000FF4F20813181E054F0402F5F3F4F2F73E3
:102A30003070DF01AE5BBF4F8D919C9111972817CD
:102A40003907D1F3E05CFF4F80819181E054F04081
:102A5000E80FF91F6083EE85FF85E05CFF4F31834F
:102A60002083EE89FF89208181E090E00F8C02C0F5
:102A7000880F991F0A94E2F7282B208381E089A30D
:102A8000EC89FD8980818064808381E090E0DF9122
:102A9000CF910895109281051092800588EE93E001
:102AA000A0E0B0E08093820590938305A093840515
:102AB000B093850588ED91E090937F0580937E0526
:102AC00086EF94E090938B0580938A058AE395E0E6
:102AD00090938D0580938C0585EC90E090938F0505
:102AE00080938E0584EC90E09093910580939005FF
:102AF00080EC90E0909393058093920581EC90E0B8
:102B0000909395058093940582EC90E090939705BF
:102B10008093960586EC90E09093990580939805B4
:102B200084E080939A0583E080939B0587E08093FF
:102B30009C0585E080939D0581E080939E05089526
:102B4000CF92DF92EF92FF920F931F93CF93DF9379
:102B50007C016B018A01C0E0D0E00FC0D6016D910D
:102B60006D01D701ED91FC910190F081E02DC7013D
:102B70000995C80FD91F015010400115110571F7B3
:102B8000CE01DF91CF911F910F91FF90EF90DF90D9
:102B9000CF900895EF92FF920F931F938C01DC0169
:102BA000ED91FC910190F081E02D6DE009957C01A3
:102BB000D801ED91FC910190F081E02DC8016AE00F
:102BC00009959C012E0D3F1DC9011F910F91FF908A
:102BD000EF900895CF93DF93EC016115710519F41F
:102BE00020E030E00FC0DB010D900020E9F71197E5
:102BF000A61BB70BE881F9810280F381E02DAD01BE
:102C000009959C01C901DF91CF9108954F925F9280
:102C10007F928F929F92AF92BF92CF92DF92EF926C
:102C2000FF920F931F93DF93CF93CDB7DEB7A1979A
:102C30000FB6F894DEBF0FBECDBF2C01742ECB01B2
:102C4000223008F42AE019A231E2C32ED12CCC0E96
:102C5000DD1E822E9924AA24BB24672D752FA50181
:102C6000940156D779018A01C801B701A5019401E1
:102C7000FDD6472D461B0894C108D1084A3014F4EC
:102C8000405D01C0495CF6014083E114F104010597
:102C9000110521F07E2C5F2DC801DFCFC201B601E6
:102CA00099DFA1960FB6F894DEBF0FBECDBFCF91CE
:102CB000DF911F910F91FF90EF90DF90CF90BF9029
:102CC000AF909F908F907F905F904F900895DC0120
:102CD0002115310541F4ED91FC910190F081E02D39
:102CE000642F0995089592CFCF92DF92EF92FF92D1
:102CF0000F931F93CF93DF93EC016A017B012115A2
:102D0000310541F4E881F9810190F081E02D642FD3
:102D100009951DC02A303105C9F477FF16C0E88136
:102D2000F9810190F081E02D6DE209958C01442735
:102D30005527BA014C195D096E097F09CE012AE0B9
:102D400065DF9801280F391F03C02AE05FDF9C016F
:102D5000C901DF91CF911F910F91FF90EF90DF900C
:102D6000CF90089537CF08957F928F929F92AF9220
:102D7000BF92CF92DF92EF92FF920F931F93CF9368
:102D8000DF934C017A018B01722ECB01BA01A801AD
:102D900097015DD6882321F0C40168E671E01FC069
:102DA000C0E0D0E057016801E894D7F8C601B5014A
:102DB0002FEF3FEF4FE75FE74AD6882349F4C6017C
:102DC000B5012FEF3FEF4FE75FE78BD4181614F0F4
:102DD000C1E0D0E0219731F0C4016CE671E0FADE89
:102DE000EC0184C0C801B7012FEF3FEF4FE75FE46C
:102DF000C7D518164CF0C801B7012FEF3FEF4FE7CA
:102E00005FEC6FD4882324F4C40160E771E0E7CF5E
:102E1000C801B70120E030E040E050E062D487FD17
:102E200003C0C0E0D0E00EC0D401ED91FC91019050
:102E3000F081E02DC4016DE20995EC0117FB1095BE
:102E400017F9109520E030E040E05FE3DD240AC090
:102E5000CA01B90120E030E040E251E446D49B01D0
:102E6000AC01D394D714A0F3C801B701D6D35B014A
:102E70006C01A8D47B018C01C401B801A7012AE030
:102E800030E025DFC80FD91F772031F0C40164E797
:102E900071E0A0DEC80FD91FC801B701BFD49B01E4
:102EA000AC01C601B501B8D31FC020E030E040E25C
:102EB00051E46AD57B018C0180D45B016C01CC2488
:102EC000B7FCC094DC2CC401B601A5012AE030E0B7
:102ED0000BDFC80FD91FC601B501A2D49B01AC01FD
:102EE000C801B70199D37A947720F9F6CE01DF9122
:102EF000CF911F910F91FF90EF90DF90CF90BF90F7
:102F0000AF909F908F907F9008952ECF0895EF926D
:102F1000FF920F931F937C0127DF8C01C7013ADEDC
:102F2000080F191FC8011F910F91FF90EF9008958E
:102F3000EF92FF920F931F937C014CDE8C01C7012F
:102F400029DE080F191FC8011F910F91FF90EF9004
:102F500008952F923F924F925F926F927F928F923D
:102F60009F92AF92BF92CF92DF92EF92FF920F9318
:102F70001F93DF93CF93CDB7DEB73B014C0119010F
:102F80002A016D897E898F89988D6A197B098C0940
:102F90009D09621A730A840A950AA401930166D5F1
:102FA000E218F30804091509A8019701D3D52A0DE1
:102FB0003B1D4C1D5D1DB901CA01CF91DF911F91D1
:102FC0000F91FF90EF90DF90CF90BF90AF909F90C8
:102FD0008F907F906F905F904F903F902F900895CB
:102FE000CF93DF93C3D00E94120ACCECD3E10E94AE
:102FF000AF062097E1F3D0DBFACF1F920F920FB606
:103000000F9211242F933F938F939F93AF93BF936E
:103010008091A4059091A505A091A605B091A70562
:103020003091A8050196A11DB11D232F2D5F2D37CD
:1030300020F02D570196A11DB11D2093A805809366
:10304000A4059093A505A093A605B093A70580912C
:10305000A0059091A105A091A205B091A3050196AC
:10306000A11DB11D8093A0059093A105A093A20579
:10307000B093A305BF91AF919F918F913F912F91F5
:103080000F900FBE0F901F9018958FB7F894209156
:10309000A4053091A5054091A6055091A7058FBFC5
:1030A000B901CA0108959B01AC017FB7F8948091E2
:1030B000A0059091A105A091A205B091A30566B5C8
:1030C000A89B05C06F3F19F00196A11DB11D7FBFE0
:1030D000BA2FA92F982F8827860F911DA11DB11DEA
:1030E00062E0880F991FAA1FBB1F6A95D1F7BC0128
:1030F0002DC0FFB7F8948091A0059091A105A091F3
:10310000A205B091A305E6B5A89B05C0EF3F19F055
:103110000196A11DB11DFFBFBA2FA92F982F882797
:103120008E0F911DA11DB11DE2E0880F991FAA1FEE
:10313000BB1FEA95D1F7861B970B885E9340C8F2B8
:10314000215030404040504068517C4F211531059E
:103150004105510571F60895019739F0880F991FBF
:10316000880F991F02970197F1F70895789484B515
:10317000826084BD84B5816084BD85B5826085BD73
:1031800085B5816085BDEEE6F0E080818160808359
:10319000E1E8F0E01082808182608083808181603C
:1031A0008083E0E8F0E0808181608083E1EBF0E003
:1031B000808184608083E0EBF0E0808181608083A7
:1031C000EAE7F0E080818460808380818260808390
:1031D0008081816080838081806880831092C100BB
:1031E0000895CF93DF93482F50E0CA0186569F4F32
:1031F000FC0134914A575F4FFA018491882369F1A9
:1032000090E0880F991FFC01E859FF4FA591B491F8
:10321000FC01EE58FF4FC591D491662351F42FB7AE
:10322000F8948C91932F909589238C93888189238E
:103230000BC0623061F42FB7F8948C91932F909566
:1032400089238C938881832B88832FBF06C09FB7E7
:10325000F8948C91832B8C939FBFDF91CF9108952D
:10326000482F50E0CA0182559F4FFC012491CA01AA
:1032700086569F4FFC0194914A575F4FFA01349153
:10328000332309F440C0222351F1233071F024305C
:1032900028F42130A1F0223011F514C02630B1F00D
:1032A0002730C1F02430D9F404C0809180008F779A
:1032B00003C0809180008F7D8093800010C084B512
:1032C0008F7702C084B58F7D84BD09C08091B00026
:1032D0008F7703C08091B0008F7D8093B000E32F83
:1032E000F0E0EE0FFF1FEE58FF4FA591B4912FB7FE
:1032F000F894662321F48C919095892302C08C91D7
:10330000892B8C932FBF0895682F70E0CB018255D5
:103310009F4FFC012491CB0186569F4FFC014491A5
:103320006A577F4FFB019491992319F420E030E014
:103330003CC0222351F1233071F0243028F4213095
:10334000A1F0223011F514C02630B1F02730C1F0C1
:103350002430D9F404C0809180008F7703C080911D
:1033600080008F7D8093800010C084B58F7702C06D
:1033700084B58F7D84BD09C08091B0008F7703C074
:103380008091B0008F7D8093B000892F90E0880FEE
:10339000991F84589F4FFC01A591B4918C9120E016
:1033A00030E0842311F021E030E0C90108950F934B
:1033B0001F93CF93DF93BC018230910510F462E03C
:1033C00070E0E091AB05F091AC0540E050E0A0E08A
:1033D000B0E024C08081918186179707D0F08617CE
:1033E000970771F482819381109729F013969C932B
:1033F0008E9312972CC09093AC058093AB0527C099
:103400004115510519F08417950718F48D01AC0189
:10341000EF01DF01828193819C01F9013097D1F6A0
:1034200041155105F9F0CA01861B970B84309105AF
:1034300080F48A819B810115110521F0F8019383A5
:10344000828304C09093AC058093AB05FE01329655
:1034500045C0FE01E80FF91F6193719302979983AC
:1034600088833CC08091A9059091AA05892B41F4DD
:1034700080919C0190919D019093AA058093A9054C
:1034800040919E0150919F014115510541F44DB766
:103490005EB780919A0190919B01481B590B209136
:1034A000A9053091AA0524173507B0F4CA01821B7B
:1034B000930B8617970780F0AB014E5F5F4F841721
:1034C000950750F0420F531F5093AA054093A9054A
:1034D000F9016193719302C0E0E0F0E0CF01DF9168
:1034E000CF911F910F910895CF93DF939C01009787
:1034F00009F48FC0EC0122971B821A826091AB0500
:103500007091AC056115710581F488819981820FF4
:10351000931F2091A9053091AA052817390739F57D
:10352000D093AA05C093A90574C0DB0140E050E028
:10353000AC17BD0708F1BB83AA83FE01219131912D
:10354000E20FF31FAE17BF0779F48D919C9111978D
:10355000280F391F2E5F3F4F3983288312968D9194
:103560009C9113979B838A834115510571F4D093E5
:10357000AC05C093AB054DC012968D919C911397ED
:10358000AD01009711F0DC01D3CFDA011396DC9383
:10359000CE931297FA0121913191E20FF31FCE17CA
:1035A000DF0769F488819981280F391F2E5F3F4F0B
:1035B000FA01318320838A819B8193838283E0E0B7
:1035C000F0E0DB0112968D919C911397009719F012
:1035D000BC01FD01F6CFAB014E5F5F4FDB018D916A
:1035E0009C91840F951F2091A9053091AA05281759
:1035F000390779F4309729F41092AC051092AB0595
:1036000002C013821282425050405093AA05409348
:10361000A905DF91CF9108955058BB27AA270ED056
:1036200075C166D130F06BD120F031F49F3F11F4B9
:103630001EF45BC10EF4E095E7FB51C1E92F77D191
:1036400080F3BA17620773078407950718F071F4BF
:103650009EF58FC10EF4E0950B2EBA2FA02D0B0115
:10366000B90190010C01CA01A0011124FF27591BC7
:1036700099F0593F50F4503E68F11A16F040A22FCD
:10368000232F342F4427585FF3CF4695379527953E
:10369000A795F0405395C9F77EF41F16BA0B620B3D
:1036A000730B840BBAF09150A1F0FF0FBB1F661F84
:1036B000771F881FC2F70EC0BA0F621F731F841FC7
:1036C00048F4879577956795B795F7959E3F08F0ED
:1036D000B3CF9395880F08F09927EE0F97958795AC
:1036E0000895D9D008F481E008950CD00FC107D116
:1036F00040F0FED030F021F45F3F19F0F0C05111DE
:1037000039C1F3C014D198F39923C9F35523B1F308
:10371000951B550BBB27AA2762177307840738F040
:103720009F5F5F4F220F331F441FAA1FA9F333D09F
:103730000E2E3AF0E0E830D091505040E695001C53
:10374000CAF729D0FE2F27D0660F771F881FBB1F0F
:10375000261737074807AB07B0E809F0BB0B802DE9
:10376000BF01FF2793585F4F2AF09E3F510568F035
:10377000B6C000C15F3FECF3983EDCF386957795C9
:103780006795B795F7959F5FC9F7880F911D969537
:10379000879597F90895E1E0660F771F881FBB1F93
:1037A000621773078407BA0720F0621B730B840B40
:1037B000BA0BEE1F88F7E095089504D06894B11114
:1037C000D9C00895BCD088F09F5790F0B92F9927A1
:1037D000B751A0F0D1F0660F771F881F991F1AF01C
:1037E000BA95C9F712C0B13081F0C3D0B1E00895E5
:1037F000C0C0672F782F8827B85F39F0B93FCCF366
:10380000869577956795B395D9F73EF49095809511
:10381000709561957F4F8F4F9F4F0895E89409C031
:1038200097FB3EF490958095709561957F4F8F4FF3
:103830009F4F9923A9F0F92F96E9BB279395F69509
:10384000879577956795B795F111F8CFFAF4BB0F87
:1038500011F460FF1BC06F5F7F4F8F4F9F4F16C0EB
:10386000882311F096E911C0772321F09EE8872F75
:10387000762F05C0662371F096E8862F70E060E031
:103880002AF09A95660F771F881FDAF7880F9695AA
:10389000879597F90895990F0008550FAA0BE0E84E
:1038A000FEEF16161706E807F907C0F01216130602
:1038B000E407F50798F0621B730B840B950B39F442
:1038C0000A2661F0232B242B252B21F408950A26A8
:1038D00009F4A140A6958FEF811D811D089597F9E8
:1038E0009F6780E870E060E008959FEF80EC0895A6
:1038F00000240A94161617061806090608950024CF
:103900000A9412161306140605060895092E039448
:10391000000C11F4882352F0BB0F40F4BF2B11F4BC
:1039200060FF04C06F5F7F4F8F4F9F4F089557FD1B
:103930009058440F551F59F05F3F71F04795880F1D
:1039400097FB991F61F09F3F79F0879508951216B4
:1039500013061406551FF2CF4695F1DF08C0161660
:1039600017061806991FF1CF869571056105089411
:103970000895E894BB2766277727CB0197F9089528
:103980008ADF08F48FEF08950BD0C0CFB1DF28F0A5
:10399000B6DF18F0952309F0A2CFA7CF1124EACF04
:1039A000C6DFA0F3959FD1F3950F50E0551F629F9E
:1039B000F001729FBB27F00DB11D639FAA27F00D88
:1039C000B11DAA1F649F6627B00DA11D661F829FAF
:1039D0002227B00DA11D621F739FB00DA11D621F94
:1039E000839FA00D611D221F749F3327A00D611DB1
:1039F000231F849F600D211D822F762F6A2F112493
:103A00009F5750408AF0E1F088234AF0EE0FFF1FE5
:103A1000BB1F661F771F881F91505040A9F79E3F1C
:103A2000510570F05CCFA6CF5F3FECF3983EDCF31E
:103A3000869577956795B795F795E7959F5FC1F759
:103A4000FE2B880F911D9695879597F9089523DF92
:103A5000880B990B0895803209F0911104C08052AF
:103A60008F55E0F70895992788270895629FD00120
:103A7000739FF001829FE00DF11D649FE00DF11D29
:103A8000929FF00D839FF00D749FF00D659FF00DD8
:103A90009927729FB00DE11DF91F639FB00DE11DC5
:103AA000F91FBD01CF0111240895991B79E004C0CD
:103AB000991F961708F0961B881F7A95C9F780956D
:103AC0000895AA1BBB1B51E107C0AA1FBB1FA61765
:103AD000B70710F0A61BB70B881F991F5A95A9F7B7
:103AE00080959095BC01CD01089597FB092E07267E
:103AF0000AD077FD04D0E5DF06D000201AF47095D7
:103B000061957F4F0895F6F7909581959F4F0895A1
:103B1000A1E21A2EAA1BBB1BFD010DC0AA1FBB1FD1
:103B2000EE1FFF1FA217B307E407F50720F0A21B43
:103B3000B30BE40BF50B661F771F881F991F1A94B0
:103B400069F760957095809590959B01AC01BD01DA
:103B5000CF01089597FB092E05260ED057FD04D0FE
:103B6000D7DF0AD0001C38F4509540953095219548
:103B70003F4F4F4F5F4F0895F6F7909580957095A2
:103B800061957F4F8F4F9F4F0895EE0FFF1F059058
:103B9000F491E02D099410E0C8ECD0E003C0FE01E0
:0E3BA000F6DF2296CC3CD107D1F7F894FFCF88
:103BAE0050494420696E3A200020736574706F6925
:103BBE006E743A2000206F75743A2000496E697455
:103BCE0069616C697A696E672050697841727420F8
:103BDE0043616D6572612E2E2E0053657175656E93
:103BEE00636520696E697400206661696C65642E78
:103BFE0000746573740072616E646F6D006F6E0099
:103C0E006F666600730020006E616E00696E66005E
:103C1E006F7666002E009A99993E00000C43510172
:103C2E004501560146015D013D01600141016401FE
:103C3E00350560014101000000008000AD05000067
:103C4E00000000004D012705530100000000470150
:103C5E002E05280C30013008069008C01A40333368
:103C6E0000000000F30CC30C330C3C0C510C620C26
:103C7E002D0CBC0C000000000A15A015A014D114C8
:043C8E00B114FA145F
:00000001FF
