:1000000063C0000089C0000087C0000085C00000F8
:1000100083C0000081C000007FC000007DC00000E0
:100020007BC0000079C0000077C0000075C00000F0
:1000300073C0000071C000006FC000006DC0000000
:100040000C94750969C00000C2C500000DC600000F
:1000500063C0000061C000005FC000005DC0000020
:100060005BC0000059C00000000000002400270011
:100070002A0000000000250028002B0000000000DE
:1000800023002600290004040404040404040202DA
:100090000202020203030303030301020408102007
:1000A0004080010204081020010204081020000012
:1000B0000007000201000003040600000000000029
:1000C0000000FF00D5049F0711241FBECFEFD8E02A
:1000D000DEBFCDBF11E0A0E0B1E0E4E4F7E102C093
:1000E00005900D92A839B107D9F712E0A8E9B1E05F
:1000F00001C01D92AD3CB107E1F710E0C8ECD0E0C3
:1001000004C02297FE010E94910BC23CD107C9F79F
:100110000E9468090C94A00B73CFA0E0B0E0E3E963
:10012000F0E00C94600BEC01A880B980CA80DB8001
:10013000A114B104C104D10441F484E2A82E89EDD4
:10014000B82E8BE5C82E87E0D82EC601B5012DE16B
:1001500033EF41E050E00E943D0B27EA31E440E0FC
:1001600050E00E94FC0A7B018C01C601B5012DE123
:1001700033EF41E050E00E943D0BCA01B9012CEE83
:1001800034EF4FEF5FEF0E94FC0A6E0D7F1D801F62
:10019000911F97FF04C06150704080409048688371
:1001A00079838A839B839B01AC015F77B901CA0184
:1001B000CDB7DEB7EAE00C947C0BAFCF8CE691E0D4
:1001C000ACCF60936C0170936D0180936E0190933E
:1001D0006F010895FB01DC0101900D920020E1F711
:1001E0000895FB01DC014150504030F08D910190A9
:1001F000801919F40020B9F7881B990B0895AF9264
:10020000BF92CF92DF92EF92FF920F931F9304EA77
:1002100011E0C80161E044E08CD422E0A22EB12CB0
:10022000A00EB11EC50162E044E083D494E0C92E63
:10023000D12CC00ED11EC60163E044E07AD486E022
:10024000E82EF12CE00EF11EC70164E044E071D409
:1002500010929B0110929A0110929F0110929E01A0
:100260008FEF90E090939D0180939C011093AD01DE
:100270000093AC01B092AF01A092AE01D092B10157
:10028000C092B001F092B301E092B20184EB91E030
:1002900060E771E04AE048D31F910F91FF90EF9023
:1002A000DF90CF90BF90AF90089507C082EA92E0B0
:1002B000CDD5682F84EB91E002D382EA92E095D508
:1002C000892BA1F7089582E061E00E94690A82E02B
:1002D00061E00E94A80A10929B0110929A0110926C
:1002E0009F0110929E018FEF90E090939D0180936B
:1002F0009C011092980184EB91E063E072E02ED1B2
:1003000081E090E00E94240A82EA92E040E052EC10
:1003100061E070E0E4D461E070E080E090E00C9493
:10032000CB0982EA92E060E071E083D782E061E08D
:100330000C94A80A82EA92E064E071E07AD782E045
:1003400060E00C94A80A82EA92E067E071E071D75D
:100350000E94BD092091A0013091A1014091A2010C
:100360005091A301621B730B840B950B695E734064
:1003700080409040A0F061E070E080E090E026E0F6
:1003800030E040E050E087D760939801F6D7609363
:10039000A0017093A1018093A2019093A3010895FD
:1003A000CF93DF9382EA92E06EE071E042D7CCEA2D
:1003B000D1E0888199816FEFE0D28881998161E0F5
:1003C0003BD368EE73E080E090E0E5D788819981C7
:1003D00062E032D368EE73E080E090E0DCD78881A1
:1003E000998164E029D368EE73E080E090E0D3D790
:1003F0008991999160E0C1D281E0C43BD807C9F6E8
:10040000DF91CF910895EF92FF920F931F937C019C
:1004100002EA12E0C80163E171E009D7C801B7013F
:1004200006D7C80167E271E004D71F910F91FF90D2
:10043000EF9008958091160290911702019729F08C
:1004400082EA92E069E271E0F4C682EA92E06DE34A
:1004500071E0EDD6609102027091030282EA92E0AF
:100460004AE050E0C7D62091020230910302809109
:100470009E0190919F012817390744F080919C01BB
:1004800090919D01281739070CF4C90190939B01A5
:1004900080939A010895CF93DF93FC01EE59FF4FAB
:1004A000A081B181E256F040AA30B105C4F5EB015C
:1004B00020E030E070E01DC068816D3211F471E021
:1004C00017C0862F80538A3098F4C901880F991F6E
:1004D000880F991F880F991F220F331F820F931FB8
:1004E000262F332727FD309520533040280F391F02
:1004F0002196C417D50701F7772319F03095219578
:100500003F4F9796AA0FBB1FAE0FBF1F2D933C9373
:10051000EE59FF4F80819181019691838083DF9115
:10052000CF910895CF93DF93EC01C45BDF4FE88157
:10053000F981CC54D040309711F0099505C0EB817A
:10054000FC81CE0108960995C45BDF4F19821882A1
:10055000669619821882DF91CF910895FC01748309
:1005600063830895CF92DF92EF92FF920F931F93D0
:10057000CF93DF93DC016B018A01061B170BFC0193
:10058000E45BFF4F11821082CD91DC917F010BC0A3
:10059000C601A80126DE009729F48A819B81F70114
:1005A000918380832496F70180819181892B29F49E
:1005B000688179816115710559F7DF91CF911F919C
:1005C0000F91FF90EF90DF90CF900895AF92BF9280
:1005D000CF92DF92EF92FF920F931F93CF93DF930F
:1005E0007C01EC01289629E430E0E20EF31EF701CD
:1005F000808127EB3FEFE20EF31EC82EDD2489E059
:1006000090E0C80ED91ECE0CDF1CECE4F0E0EE0E3C
:10061000FF1EF7011182108226E130E0E20EF31E88
:10062000F701118210822EE93FEFE20EF31E01C0A6
:100630002196CC15DD0509F437C188818930C1F3D5
:100640008032B1F3BE018B3524F081568A3120F01F
:100650002BC181340CF428C18E010F5F1F4F0C1584
:100660001D0509F421C1F80180818A30C1F08B3069
:100670002CF48823A1F0893031F4C3C08D3079F097
:10068000803209F4BEC0813424F480538A3028F3C8
:100690000BC18B3514F381568A31F8F205C15E0126
:1006A000C701B501A8015EDF05C05E01C701BE013B
:1006B000A801F1DEE8012196CC15DD0509F4F0C0B2
:1006C00088818A30C1F38B301CF48823A1F3ECC0FD
:1006D0008D3089F38B3309F0E7C0C701B501AE0156
:1006E00021DF2196CC15DD0509F4DEC08881893033
:1006F000C1F38032B1F3BE018B3524F081568A31CB
:1007000020F0D2C081340CF4CFC08E012C2F9D2F4D
:100710000F5F1F4F0C151D0509F4C6C0F80180813D
:10072000A22EB92E8A3009F4BBCF8B3034F4882343
:1007300009F4B6CF893031F411C08D3009F4B0CF4F
:10074000803261F0813424F480538A3008F3ACC0E5
:100750008B35F4F281568A31D8F2A6C0C701A801C0
:1007600001DF03C0C701A80196DE5E01E801219602
:10077000CC15DD0509F498C088818D3009F49BCF34
:100780008E304CF4893099F38A3009F494CF882361
:1007900009F491CF06C08B3251F08D3241F0803296
:1007A00031F380538A3008F07FC08E010CC08E0177
:1007B0000F5F1F4F0C151D0509F476C0898180530A
:1007C0008A3008F071C0BE010F5F1F4F0C151D0568
:1007D00009F46AC0F80180818A3009F466CF8B3051
:1007E00034F4882309F461CF893039F4BBCF8D30DC
:1007F00009F45BCF803209F4B5CF80538A3020F3FF
:1008000053C0C701A801AEDE03C0C701A80143DE83
:100810005E01E8012196CC15DD0509F445C088810B
:100820008D3081F08E303CF48930A1F38A3051F064
:10083000882341F009C08B3261F08D3251F0803253
:1008400019F4E8CF8E0136CF80538A3068F58E01D7
:100850000AC08E010F5F1F4F0C151D0529F18981FC
:1008600080538A3008F5BE010F5F1F4F0C151D0520
:10087000D9F0F80180818A3009F417CF8B3034F435
:10088000882309F412CF893039F4BFCF8D3009F4B1
:100890000CCF803209F4B9CF80538A3028F304C0DA
:1008A000C701B501AE013EDEDF91CF911F910F91DF
:1008B000FF90EF90DF90CF90BF90AF9008951F937F
:1008C000CF93DF93EC01162F6D3011F06A3039F4BD
:1008D000CE017CDE1886C75BDF4F188221C0862FD1
:1008E000992787FD909523D7892B69F0DE01A75BB7
:1008F000BF4F8C918034A0F4FE01E80FF11D1087EA
:100900008F5F8C930AC0183059F4FE01E75BFF4FEC
:100910008081882329F081508083C80FD11D1886DB
:10092000DF91CF911F9108950F931F938C01FC01CC
:10093000718360831282148213824783065B1F4F88
:10094000F801118210820A541040C80105966AE627
:1009500071E040DCF8011086075B1F4FF801108240
:100960000D5F1F4FF801118210820A5E1F4FF801C0
:10097000118210821F910F910895FC01E081E230F5
:1009800069F0E33018F4E13079F405C0E33049F060
:10099000E43051F408C06093B30008956093B4004C
:1009A000089567BD089568BD08950895E0EBF0E0EF
:1009B00090819368908387708093B1001092B30008
:1009C0008BE061E086C5E0EBF0E09081936290837C
:1009D00087708093B1001092B40083E061E079C524
:1009E000CF93DF938CE060E0B3D588E060E0B0D5D2
:1009F000C7E0D0E084E060E0ABD58091190290E0E0
:100A00000C2E02C0959587950A94E2F780FF03C0EB
:100A100088E061E002C088E060E09AD584E061E0AF
:100A200097D521978FEFCF3FD80721F78CE061E072
:100A30008FD5DF91CF910895FC01E081E23061F024
:100A4000E33020F4E13009F05AC009C0E33051F03E
:100A5000E43009F054C009C041E054E008C042E06D
:100A600053E005C045E057E002C040E056E0623088
:100A7000C1F0643069F1613009F041C081E090E07B
:100A80009C0102C0220F331F5A95E2F7209502C045
:100A9000880F991F4A95E2F740911902482B2423A9
:100AA00012C081E090E09C0102C0220F331F4A95E2
:100AB000E2F7209540911902242302C0880F991F64
:100AC0005A95E2F7282B2093190288E192E088CF0B
:100AD00081E090E09C0102C0220F331F4A95E2F7AB
:100AE00002C0880F991F5A95E2F7822B80952091BA
:100AF000190228232093190288E192E071CF08950A
:100B00000F931F938C018CE061E0E3D487E061E0F8
:100B1000E0D488E061E0DDD484E061E0DAD41092D2
:100B20001902C8015DDF87E060E012D51F910F91C7
:100B300008950F931F93FC01162F042F60834183A8
:100B400088E192E0DDDF1230B1F0133020F4113093
:100B500009F039C005C01330C9F01430A1F524C024
:100B600080911902837F8093190288E192E038DF37
:100B7000802F1CDF28C0809119028D7E809319027E
:100B800088E192E02DDF802F1EDF1DC080911902C9
:100B90008F758093190288E192E022DF84B5836823
:100BA00084BD17BC86E00DC0809119028E7B8093B6
:100BB000190288E192E014DF84B5836284BD18BC19
:100BC00085E061E086D41F910F91089508951F92EA
:100BD0000F920FB60F9211242F933F934F938F9341
:100BE0009F93EF93FF938091C00082FD1DC04091C1
:100BF000C60020915A0230915B022F5F3F4F2F7346
:100C0000307080915C0290915D022817390771F075
:100C1000E0915A02F0915B02E65EFD4F4083309313
:100C20005B0220935A0202C08091C600FF91EF91AF
:100C30009F918F914F913F912F910F900FBE0F90E9
:100C40001F901895E091AE02F091AF02E05CFF4F6B
:100C50008191919120813181821B930B8F739070D0
:100C6000892B09F0B3CF08951F920F920FB60F9200
:100C700011242F933F938F939F93EF93FF93209192
:100C80009E0230919F028091A0029091A1022817AC
:100C9000390731F48091C1008F7D8093C10014C069
:100CA000E091A002F091A102E25AFD4F20818091D3
:100CB000A0029091A10201968F7390709093A1026F
:100CC0008093A0022093C600FF91EF919F918F9196
:100CD0003F912F910F900FBE0F901F901895AF92DC
:100CE000BF92DF92EF92FF920F931F93CF93DF9308
:100CF000EC017A018B01DD24403081EE580780E061
:100D0000680780E0780711F0DD24D39491E0A92EE4
:100D1000B12CEC89FD89DD2069F0C50108A002C075
:100D2000880F991F0A94E2F7808360E079E08DE3F1
:100D300090E005C0108260E874E88EE190E0A801C0
:100D4000970179D421503040404050405695479506
:100D50003795279580E12030380720F0DD2011F00D
:100D6000DD24D7CFE889F9893083EA89FB8920839C
:100D700019A2EE89FF89408121E030E0C9010C8C85
:100D800002C0880F991F0A94E2F7482B4083EE892E
:100D9000FF894081C9010D8C02C0880F991F0A94F8
:100DA000E2F7482B4083EE89FF894081C9010E8C10
:100DB00002C0880F991F0A94E2F7482B4083EE89FE
:100DC000FF8980810F8C02C0220F331F0A94E2F743
:100DD000209528232083DF91CF911F910F91FF90C1
:100DE000EF90DF90BF90AF900895DC011C96ED91DD
:100DF000FC911D97E05CFF4F2191319180819181A1
:100E0000281B390B2F733070C9010895DC011C9623
:100E1000ED91FC911D97E05CFF4F20813181E05402
:100E2000F040DF01AE5BBF4F8D919C911197281769
:100E3000390719F42FEF3FEF07C08D919C91E80F10
:100E4000F91F8081282F30E0C9010895DC011C962C
:100E5000ED91FC911D97E05CFF4F20813181E054C2
:100E6000F040DF01AE5BBF4F8D919C911197281729
:100E7000390719F42FEF3FEF10C08D919C91119716
:100E8000E80FF91F20818D919C91119701968F7326
:100E9000907011969C938E9330E0C9010895DC0107
:100EA00091968C919197882339F05496ED91FC910D
:100EB0005597808186FFF9CF91961C920895CF9324
:100EC000DF93EC01EE85FF85E05CFF4F20813181EF
:100ED000E054F0402F5F3F4F2F733070DF01AE5B67
:100EE000BF4F8D919C91119728173907D1F3E05C82
:100EF000FF4F80819181E054F040E80FF91F60833B
:100F0000EE85FF85E05CFF4F31832083EE89FF890A
:100F1000208181E090E00F8C02C0880F991F0A9415
:100F2000E2F7282B208381E089A3EC89FD89808169
:100F30008064808381E090E0DF91CF9108951092EA
:100F4000A5021092A40288EE93E0A0E0B0E08093A6
:100F5000A6029093A702A093A802B093A9028CE8DE
:100F600091E09093A3028093A2028AE192E0909391
:100F7000AF028093AE028EE592E09093B10280932F
:100F8000B00285EC90E09093B3028093B20284ECBF
:100F900090E09093B5028093B40280EC90E090933F
:100FA000B7028093B60281EC90E09093B9028093EF
:100FB000B80282EC90E09093BB028093BA0286EC78
:100FC00090E09093BD028093BC0284E08093BE02C7
:100FD00083E08093BF0287E08093C00285E0809326
:100FE000C10281E08093C2020895CF92DF92EF9216
:100FF000FF920F931F93CF93DF937C016B018A01C4
:10100000C0E0D0E00FC0D6016D916D01D701ED9128
:10101000FC910190F081E02DC7010995C80FD91FFF
:10102000015010400115110571F7CE01DF91CF91EC
:101030001F910F91FF90EF90DF90CF900895EF9266
:10104000FF920F931F938C01DC01ED91FC910190B5
:10105000F081E02D6DE009957C01D801ED91FC91C6
:101060000190F081E02DC8016AE009959C012E0DE8
:101070003F1DC9011F910F91FF90EF900895CF93ED
:10108000DF93EC016115710519F420E030E00FC029
:10109000DB010D900020E9F71197A61BB70BE88143
:1010A000F9810280F381E02DAD0109959C01C90110
:1010B000DF91CF9108954F925F927F928F929F928E
:1010C000AF92BF92CF92DF92EF92FF920F931F9356
:1010D000DF93CF93CDB7DEB7A1970FB6F894DEBFFD
:1010E0000FBECDBF2C01742ECB01223008F42AE0B4
:1010F00019A231E2C32ED12CCC0EDD1E822E9924F2
:10110000AA24BB24672D752FA501940194D27901DF
:101110008A01C801B701A50194016ED2472D461B73
:101120000894C108D1084A3014F4405D01C0495CFC
:10113000F6014083E114F1040105110521F07E2C34
:101140005F2DC801DFCFC201B60199DFA1960FB6AE
:10115000F894DEBF0FBECDBFCF91DF911F910F91ED
:10116000FF90EF90DF90CF90BF90AF909F908F90C7
:101170007F905F904F900895CF92DF92EF92FF9211
:101180000F931F93CF93DF93EC016A017B0121152D
:10119000310541F4E881F9810190F081E02D642F5F
:1011A00009951DC02A303105C9F477FF16C0E881C2
:1011B000F9810190F081E02D6DE209958C014427C1
:1011C0005527BA014C195D096E097F09CE012AE045
:1011D00072DF9801280F391F03C02AE06CDF9C01E1
:1011E000C901DF91CF911F910F91FF90EF90DF9098
:1011F000CF900895CF92DF92EF92FF920F931F93BB
:101200006C017B019A010027F7FC0095102FB801B3
:10121000A701B2DF8C01C60112DF080F191FC80138
:101220001F910F91FF90EF90DF90CF90089527CFFF
:101230000895EF92FF920F931F937C0120DF8C01A2
:10124000C701FDDE080F191FC8011F910F91FF9004
:10125000EF900895EF92FF920F931F937B018C0103
:10126000611571058105910529F420E030E040E029
:1012700050E00AC00E94DE00A8019701FED1AC0137
:10128000CB01DA019C01AD01B901CA011F910F9197
:10129000FF90EF900895EF92FF920F931F937B01C1
:1012A0008C0162177307840795075CF4261B370BC4
:1012B000480B590BCA01B901CDDFE60EF71E081F16
:1012C000191FB701C8011F910F91FF90EF9008956A
:1012D000CF93DF93C3D00E946301C2E2D6E00E94A5
:1012E00055012097E1F3AEDCFACF1F920F920FB6B3
:1012F0000F9211242F933F938F939F93AF93BF939C
:101300008091C8029091C902A091CA02B091CB020B
:101310003091CC020196A11DB11D232F2D5F2D37D9
:1013200020F02D570196A11DB11D2093CC02809372
:10133000C8029093C902A093CA02B093CB028091D5
:10134000C4029091C502A091C602B091C702019655
:10135000A11DB11D8093C4029093C502A093C60243
:10136000B093C702BF91AF919F918F913F912F9101
:101370000F900FBE0F901F9018958FB7F894209183
:10138000C8023091C9024091CA025091CB028FBF6E
:10139000B901CA0108959B01AC017FB7F89480910F
:1013A000C4029091C502A091C602B091C70266B571
:1013B000A89B05C06F3F19F00196A11DB11D7FBF0D
:1013C000BA2FA92F982F8827860F911DA11DB11D17
:1013D00062E0880F991FAA1FBB1F6A95D1F7BC0155
:1013E0002DC0FFB7F8948091C4029091C502A091DE
:1013F000C602B091C702E6B5A89B05C0EF3F19F041
:101400000196A11DB11DFFBFBA2FA92F982F8827C4
:101410008E0F911DA11DB11DE2E0880F991FAA1F1B
:10142000BB1FEA95D1F7861B970B885E9340C8F2E5
:10143000215030404040504068517C4F21153105CB
:101440004105510571F60895019739F0880F991FEC
:10145000880F991F02970197F1F70895789484B542
:10146000826084BD84B5816084BD85B5826085BDA0
:1014700085B5816085BDEEE6F0E080818160808386
:10148000E1E8F0E010828081826080838081816069
:101490008083E0E8F0E0808181608083E1EBF0E030
:1014A000808184608083E0EBF0E0808181608083D4
:1014B000EAE7F0E0808184608083808182608083BD
:1014C0008081816080838081806880831092C100E8
:1014D0000895CF93DF93482F50E0CA0186569F4F5F
:1014E000FC0134914A575F4FFA018491882369F1D6
:1014F00090E0880F991FFC01E859FF4FA591B49126
:10150000FC01EE58FF4FC591D491662351F42FB7DB
:10151000F8948C91932F909589238C9388818923BB
:101520000BC0623061F42FB7F8948C91932F909593
:1015300089238C938881832B88832FBF06C09FB714
:10154000F8948C91832B8C939FBFDF91CF9108955A
:10155000482F50E0CA0182559F4FFC012491CA01D7
:1015600086569F4FFC0194914A575F4FFA01349180
:10157000332309F440C0222351F1233071F0243089
:1015800028F42130A1F0223011F514C02630B1F03A
:101590002730C1F02430D9F404C0809180008F77C7
:1015A00003C0809180008F7D8093800010C084B53F
:1015B0008F7702C084B58F7D84BD09C08091B00053
:1015C0008F7703C08091B0008F7D8093B000E32FB0
:1015D000F0E0EE0FFF1FEE58FF4FA591B4912FB72B
:1015E000F894662321F48C919095892302C08C9104
:1015F000892B8C932FBF0895629FD001739FF001B8
:10160000829FE00DF11D649FE00DF11D929FF00D92
:10161000839FF00D749FF00D659FF00D9927729FC9
:10162000B00DE11DF91F639FB00DE11DF91FBD0154
:10163000CF0111240895A1E21A2EAA1BBB1BFD01A4
:101640000DC0AA1FBB1FEE1FFF1FA217B307E407A1
:10165000F50720F0A21BB30BE40BF50B661F771FF9
:10166000881F991F1A9469F76095709580959095D9
:101670009B01AC01BD01CF01089597FB092E052602
:101680000ED057FD04D0D7DF0AD0001C38F4509597
:101690004095309521953F4F4F4F5F4F0895F6F796
:1016A00090958095709561957F4F8F4F9F4F0895CE
:1016B0002F923F924F925F926F927F928F929F9262
:1016C000AF92BF92CF92DF92EF92FF920F931F9350
:1016D000CF93DF93CDB7DEB7CA1BDB0B0FB6F89401
:1016E000DEBF0FBECDBF09942A88398848885F8441
:1016F0006E847D848C849B84AA84B984C884DF80B2
:10170000EE80FD800C811B81AA81B981CE0FD11D95
:101710000FB6F894DEBF0FBECDBFED010895EE0FFA
:10172000FF1F0590F491E02D0994803209F091118A
:1017300004C080528F55E0F70895992788270895AF
:04174000F894FFCF4B
:101744004F4646004F4E0052414E444F4D005445C3
:101754005354002E2E556E6B6E6F776E20636F6D33
:101764006D616E64202700270053796E7461783AA6
:1017740020706F776572203C76616C3E004D6F740B
:101784006F7220706F7765722073657420746F2098
:1017940000706F77657200746573740072616E64B3
:1017A4006F6D006F6E006F66660020000100000020
:1017B40051011A025701D0015C01A30163019A018E
:1017C4006601910100000000000000005F07F507BA
:0817D400F506260706074F0782
:00000001FF
