:1000000091C00000B6C00000B4C00000B2C0000043
:10001000B0C00000AEC00000ACC000000C943A1F9D
:10002000A8C00000A6C00000A4C00000A2C000003C
:10003000A0C000009EC000009CC000009AC000004C
:100040000C948C2796C000000C948F220C94DC2218
:1000500090C000008EC000008CC000008AC000006C
:100060000C948B1D86C00000084AD73B3BCE016E26
:1000700084BCBFFDC12F3D6C74319ABD56833DDAFF
:100080003D00C77F11BED9E4BB4C3E916BAAAABE0E
:10009000000000803F05A84CCDB2D44EB93836A937
:1000A000020C50B9918688083CA6AAAA2ABE000074
:1000B00000803F68203D3E2068656C7000000000B5
:1000C00000240027002A0000000000250028002B43
:1000D000000000000023002600290004040404049A
:1000E00004040402020202020203030303030301E5
:1000F00002040810204080010204081020010204BC
:1001000008102000000007000201000003040600A0
:100110000000000000000000BC12411AC31C48246B
:10012000B712DA1C11241FBECFEFD8E0DEBFCDBF5F
:1001300013E0A0E0B1E0ECE6FDE502C005900D9211
:10014000A032B107D9F717E0A0E2B3E001C01D92D9
:10015000AC36B107E1F711E0C0E2D1E004C022976C
:10016000FE010E94A62EC831D107C9F70E947F2741
:100170005EC046CFA0E0B0E0E0ECF0E00C94752E5D
:10018000EC01A880B980CA80DB80A114B104C1044D
:10019000D10441F484E2A82E89EDB82E8BE5C82E57
:1001A00087E0D82EC601B5012DE133EF41E050E0E4
:1001B0000E94522E27EA31E440E050E00E94EA2DEE
:1001C0007B018C01C601B5012DE133EF41E050E028
:1001D0000E94522ECA01B9012CEE34EF4FEF5FEFAF
:1001E0000E94EA2D6E0D7F1D801F911F97FF04C096
:1001F0006150704080409048688379838A839B83F4
:100200009B01AC015F77B901CA01CDB7DEB7EAE067
:100210000C94912EAFCF80EB92E0ACCF6093B00204
:100220007093B1028093B2029093B3020895F89450
:100230000C94AA2EFB01DC0101900D920020E1F745
:100240000895FB01DC014150504030F08D91019048
:10025000801919F40020B9F7881B990B0895FC0147
:1002600082ED92E0918380830895FC016685778515
:10027000808991890C94D72BE0912003F091210380
:10028000A081B18116962D913C911797CF01F9016C
:1002900009950895FC0182ED92E091838083CF015E
:1002A0000C943E1A9C018091200390912103892B8C
:1002B00071F4309321032093200360E570E080E027
:1002C00090E00E94711F8CE391E00C94611F0895EF
:1002D0000F931F93CF93DF93062FEA01122F0E94F3
:1002E000DA1B882399F0802F0E94F71B882341F4A2
:1002F0000DC088810E94F71B882341F01150219680
:100300001123B9F70E94EE1B81E001C080E0DF916C
:10031000CF911F910F910895DF93CF930F92CDB797
:10032000DEB74983AE014F5F5F4F21E0D1DF0F9011
:10033000CF91DF910895FF920F931F93CF93DF9397
:10034000F82E062FEA01122F0E94DA1B8823E9F00B
:10035000802F0E94F71B882341F00E94EE1B8F2DF7
:1003600081600E94DA1B882359F40E94EE1B80E012
:100370000CC0115080E009F481E00E94291C89938F
:100380001123B9F70E94EE1B81E0DF91CF911F91FD
:100390000F91FF90089521E0CECF0F931F93DF932D
:1003A000CF9300D0CDB7DEB7082F162FAE014E5F2A
:1003B0005F4FF1DF1F5F802F612FAE014F5F5F4FF7
:1003C000EADF398120E08A81280F311DC9010F90B1
:1003D0000F90CF91DF911F910F910895DF93CF93ED
:1003E0000F92CDB7DEB7AE014F5F5F4FD4DF89818B
:1003F0000F90CF91DF910895FC0182ED92E09183FF
:10040000808308952F923F924F925F926F927F92D6
:100410008F929F92AF92BF92CF92DF92EF92FF9214
:100420000F931F93DF93CF9300D000D0CDB7DEB7EB
:100430001C0149835A836B837C834801590126013F
:100440003701C701B6010E946D2D7B018C0120E0B0
:1004500030E040E050E00E94FF2C18160CF046C03F
:10046000F1016681778180859185A50194010E94C3
:100470006E2AA80197010E943C2B7B018C01C301CD
:10048000B2010E94392B9B01AC01C801B7010E9447
:100490000A2D9B01AC0169817A818B819C810E942C
:1004A0006F2A5B016C01F1012285338544855585F6
:1004B0000E94FF2C1816D4F0C601B501F10122816B
:1004C0003381448155810E94352B87FD0FC0C801BF
:1004D000B70120E030E040E050E00E94FF2C181609
:1004E0007CF017FB109517F910950AC00F2EF0E05D
:1004F000EF2EFCE3FF2EFCE10F2FF6E41F2FF02D73
:10050000B701C8010F900F900F900F90CF91DF911E
:100510001F910F91FF90EF90DF90CF90BF90AF9021
:100520009F908F907F906F905F904F903F902F9013
:1005300008952F923F924F925F926F927F928F9287
:100540009F92AF92BF92CF92DF92EF92FF920F9362
:100550001F93CF93DF93EC013A014B01180129015E
:1005600056016701C601B5010E94392B7B018C0140
:1005700020E030E040E050E00E94352B882309F471
:1005800041C06A817B818C819D81A40193010E947D
:100590006E2AA80197010E943C2B7B018C01C601A9
:1005A000B5010E946D2D9B01AC01C801B7010E94ED
:1005B0000A2D9B01AC01C201B1010E946F2A5B01AF
:1005C0006C012E853F85488959890E94FF2C181699
:1005D000CCF0C601B5012E813F81488559850E9426
:1005E000352B87FD0FC0C801B70120E030E040E0A7
:1005F00050E00E94FF2C18167CF017FB109517F99D
:1006000010950AC00F2EF0E0EF2EFCE3FF2EFCE168
:100610000F2FF6E41F2FF02DB701C801DF91CF9106
:100620001F910F91FF90EF90DF90CF90BF90AF9010
:100630009F908F907F906F905F904F903F902F9002
:1006400008956F927F928F929F92AF92BF92CF92B6
:10065000DF92EF92FF920F931F933C016A017B019F
:1006600048015901FC016281738184819581A70150
:1006700096010E946E2A7B018C01F30166817781CD
:1006800080859185A50194010E946E2A5B016C0111
:10069000C801B701A80197010E940A2DA601950182
:1006A0000E946F2AA60195010E946F2A0E94772D51
:1006B000F30122853385448555850E946E2A7B018E
:1006C0008C0120E030E040E050E00E94FF2C181642
:1006D00024F017FB109517F91095B701C8011F9169
:1006E0000F91FF90EF90DF90CF90BF90AF909F90D1
:1006F0008F907F906F9008952F923F924F925F92CC
:100700006F927F928F929F92AF92BF92CF92DF9221
:10071000EF92FF920F931F93DF93CF93CDB7DEB786
:10072000A8970FB6F894DEBF0FBECDBF4B8B5C8B86
:100730006D8B7E8B0F8B188F298F3A8F84969A83BF
:1007400089831BA28CE38CA39CE19DA3A6E4AEA3AA
:1007500018A61FA2E981FA8100811181D8011A9699
:100760008D919D910D90BC91A02D8B839C83AD8329
:10077000BE83D80112968D919D910D90BC91A02DB4
:100780008F839887A987BA876B817C818D819E81B1
:100790002F81388549855A850E946E2A6B8F7C8F00
:1007A0008D8F9E8FD8011E968D919D910D90BC913D
:1007B000A02D8B879C87AD87BE87D80116968D911B
:1007C0009D910D90BC91A02D8F87988BA98BBA8B92
:1007D0006B857C858D859E852F85388949895A89C9
:1007E0000E946E2A6F8F78A389A39AA36B897C8954
:1007F0008D899E892F81388549855A850E946E2A68
:100800005B016C016B897C898D899E892F85388974
:1008100049895A890E946E2A3B014C01C601B501E3
:100820002B8D3C8D4D8D5E8D0E940A2D7B018C01A0
:10083000C401B3012F8D38A149A15AA10E940A2DEC
:100840009B01AC01C801B7010E946F2A1B012C015A
:1008500020E030E040E050E00E94352B18166CF0AC
:10086000C601B501A60195010E940A2D7B018C01EC
:10087000C401B301A401930144C06B8D7C8D8D8DA7
:100880009E8D9B01AC010E940A2D7B018C016F8D16
:1008900078A189A19AA19B01AC010E940A2D9B011C
:1008A000AC01C801B7010E946F2A7B018C01A20133
:1008B00091010E94352B18165CF16B897C898D891A
:1008C0009E892B813C814D815E810E946E2A7B0135
:1008D0008C016B897C898D899E892B853C854D8512
:1008E0005E850E946E2A5B016C01C801B701A801F8
:1008F00097010E940A2D7B018C01C601B501A6015A
:1009000095010E940A2D9B01AC01C801B7014CC0A2
:10091000C201B101A80197010E943C2B7B018C010F
:100920002B8D3C8D4D8D5E8D0E940A2D5B016C01DF
:10093000C801B7012F8D38A149A15AA10E940A2DE3
:100940007B018C01C601B5012F81388549855A8507
:100950000E946F2A2B893C894D895E890E946E2AEC
:100960005B016C01C801B7012F85388949895A8913
:100970000E946F2A2F89388D498D5A8D0E946E2AC8
:100980007B018C01C601B501A60195010E940A2DCB
:100990005B016C01C801B701A80197010E940A2DF3
:1009A0009B01AC01C601B5010E946F2A0E94772D00
:1009B0007B018C012BA13CA14DA15EA10E94352B96
:1009C000882324F4EBA2FCA20DA31EA3EFA1F8A59B
:1009D0003196F8A7EFA389819A8102969A83898339
:1009E000369709F0B7CE2BA13CA14DA15EA1B9016C
:1009F000CA01A8960FB6F894DEBF0FBECDBFCF9147
:100A0000DF911F910F91FF90EF90DF90CF90BF90FB
:100A1000AF909F908F907F906F905F904F903F909E
:100A20002F900895EF92FF920F931F930E94C71982
:100A30007B018C010E94C7199B01AC01C801B70161
:100A40000E946F2A20E030E040E85FE30E946E2AB7
:100A50001F910F91FF90EF9008950F931F938C01BA
:100A6000FC01108211820E94C71920E030E04EE79D
:100A700053E40E940A2D0E94A92BF8016283C80149
:100A8000D1DF20E030E040E251E40E940A2D0E94D4
:100A9000A42BF8016383C801C5DF20E030E040E209
:100AA00051E40E940A2D0E94A42BF80164831F9137
:100AB0000F9108956F927F928F929F92AF92BF9203
:100AC000CF92DF92EF92FF920F931F934C013B0165
:100AD000A2DB7B018C0100D000D0CDB6DEB608943D
:100AE000C11CD11CF30160857185828593850E94AC
:100AF000A42BF6016083718382839383C801B701BD
:100B000020E030E040E050E0F1E0EF2EF12C012D4C
:100B1000112DAA24BB2465010E943827F4016083AB
:100B20000F900F900F900F9076DB7B018C0100D01F
:100B300000D0CDB6DEB60894C11CD11CF30164858B
:100B40007585868597850E94A42BF6016083718345
:100B500082839383C801B70120E030E040E050E099
:100B6000E1E0EE2EF12C012D112DAA24BB2465010C
:100B70000E943827F40161830F900F900F900F901F
:100B80000E94C71920E030E04EE753E40E940A2D8E
:100B90000E94A92BF4016283C40144DF20E030E00D
:100BA00040E251E40E940A2D0E94A42BF4016383C9
:100BB000C40138DF20E030E040E251E40E940A2D19
:100BC0000E94A42BF40164831F910F91FF90EF907A
:100BD000DF90CF90BF90AF909F908F907F906F905D
:100BE00008954F925F926F927F928F929F92AF92F1
:100BF000BF92CF92DF92EF92FF920F931F93CF930A
:100C0000DF93EC01C45BDD4F688179818A819B8130
:100C1000CC54D2400E94D72B6B017C0132E2432E90
:100C200032E0532E4C0E5D1EF2016083718382838D
:100C3000938320E030E040E85FEB0E94FF2C8823A4
:100C40000CF490C000D000D00DB71EB70F5F1F4F3F
:100C5000C701B6010E94A42B26E9622E712C812CBB
:100C6000912CF80160827182828293822CEB32E0B7
:100C700040E050E0BCE0EB2EB7E1FB2E012D112D42
:100C8000A5E0AA2EB12CC12CD12C0E9438270F90A0
:100C90000F900F900F9097FF05C060E070E080E02C
:100CA00090E05AC000D000D00DB71EB70F5F1F4FA5
:100CB000F20160817181828193810E94A42BF801ED
:100CC00060827182828293822CEB32E040E050E0BD
:100CD000FCE0EF2EF7E1FF2E012D112DE5E0AE2E09
:100CE000B12CC12CD12C0E9438270F900F900F905F
:100CF0000F90653F7105810591052CF060E070E073
:100D000084E793E429C000D000D00DB71EB70F5F71
:100D10001F4FF20160817181828193810E94A42B17
:100D2000F80160827182828293822CEB32E040E093
:100D300050E0BCE0EB2EB7E1FB2E012D112DA5E01C
:100D4000AA2EB12CC12CD12C0E9438270E94D72B5F
:100D50000F900F900F900F90CE5DDD4F68837983D9
:100D60008A839B83DF91CF911F910F91FF90EF902A
:100D7000DF90CF90BF90AF909F908F907F906F90BB
:100D80005F904F9008952F923F924F925F926F9293
:100D90007F928F929F92AF92BF92CF92DF92EF920B
:100DA000FF920F931F93DF93CF93CDB7DEB7C2545B
:100DB000D0400FB6F894DEBF0FBECDBF1C019C0122
:100DC00026583E4F3A87298721963FAF2EAF21976D
:100DD0001E8A1D8A8A519E4F9EA78DA7D101A65EAD
:100DE000BD4FB8ABAFA7F101E25EFD4FFAABE9AB87
:100DF00091012E5F3D4F3CAB2BABC10188509E4F04
:100E00009EAB8DABD101A650BE4FB8AFAFABF101D9
:100E1000E85EFD4FFAAFE9AF91012E5D3D4F3CAF6B
:100E20002BAF0D891E89000F111F000F111F8D8917
:100E30009E89080F191F06581E4F020D131DADA5E0
:100E4000BEA50D90BC91A02DBC8BAB8BAFA5B8A956
:100E50008D919D910D90BC91A02D8DA39EA3AFA3CC
:100E6000B8A7A9A9BAA98D919D910D90BC91A02D6B
:100E700089A39AA3ABA3BCA3EBA9FCA90190F08121
:100E8000E02DF8A3EF8FC801CDDD6B8F7C8F8D8FA8
:100E90009E8F2196AEADBFAD219713966C917727AB
:100EA00067FD7095872F972F0E94D72B6B017C01D0
:100EB000EDA9FEA960817181882777FD8095982F23
:100EC0000E94D72B20E030E040E251E40E943C2B0E
:100ED0009B01AC01C701B6010E946F2A6B017C0126
:100EE000C801A0DD20E030E040E450E40E940A2D7B
:100EF0009B01AC01C701B6010E946F2A4B015C0146
:100F00002196AEADBFAD219714966C91772767FD02
:100F10007095872F972F0E94D72B6B017C01EFA92B
:100F2000F8AD60817181882777FD8095982F0E94A8
:100F3000D72B20E030E040E251E40E943C2B9B01A3
:100F4000AC01C701B6010E946F2A6B017C01C80188
:100F500069DD20E030E040E450E40E940A2D9B016E
:100F6000AC01C701B6010E946F2A7B018C0121965A
:100F7000AEADBFAD21976C9170E080E090E00E9433
:100F8000D52BA50194010E946F2A2B013C012196CB
:100F9000EEADFFAD2197618170E080E090E00E94AE
:100FA000D52BA80197010E946F2A6F8B788F898FAC
:100FB0009A8FC501B4010E94A42B2196AEADBFAD9E
:100FC000219713966C93C801B7010E94A42B219618
:100FD000EEADFFAD21976483C301B20120E030E0A4
:100FE00040E050E00E94352B882314F460E010C0EC
:100FF000C301B20120E030E04FE753E40E94FF2C30
:10100000181614F46FEF04C0C301B2010E94A92B9B
:101010002196AEADBFAD21976C936F89788D898D88
:101020009A8D20E030E040E050E00E94352B88238C
:1010300014F410E015C06F89788D898D9A8D20E0A9
:1010400030E04FE753E40E94FF2C181614F41FEF12
:1010500007C06F89788D898D9A8D0E94A92B162FD4
:101060002196EEADFFAD21971183608170E0882756
:1010700077FD8095982F0E94D72B5B016C01AB897F
:10108000BC892D913D914D915C910E94352B181694
:1010900074F5612F70E0882777FD8095982F0E9466
:1010A000D72B7B018C01EB89FC892481358146811A
:1010B00057810E94352B1816D4F4C601B501AB89AF
:1010C000BC8918962D913D914D915C911B970E9482
:1010D000FF2C87FF0CC0C801B701EB89FC89248570
:1010E0003585468557850E94FF2C88234CF0219634
:1010F000AEADBFAD219713961C92139714961C9218
:10110000E9ADFAAD80819181883C91052CF080E0B9
:1011100090E0A0E8BFE39FC02196AEADBFAD2197A0
:101120006C9170E080E090E00E94D52B6B017C0117
:101130002196EEADFFAD2197618170E080E090E0F7
:101140000E94D52B8B019C018B899C89B701A6013C
:10115000D3DA20E030E040E251E40E94352B8823CE
:101160002CF460E070E080E291E447C02196AEADDF
:10117000BFAD21976C9170E080E090E00E94D52B8C
:101180006B017C012196EEADFFAD2197618170E08E
:1011900080E090E00E94D52B8B019C018B899C897B
:1011A000B701A601A9DA20E030E044E753E40E9449
:1011B000FF2C18162CF460E070E084E793E41DC067
:1011C0002196AEADBFAD21976C9170E080E090E0CC
:1011D0000E94D52B6B017C012196EEADFFAD2197CE
:1011E000618170E080E090E00E94D52B8B019C0132
:1011F0008B899C89B701A6017FDA0E94A42B2B0161
:101200003C0100D000D0ADB7BEB711961D921D9223
:101210001D921C92149720E030E040E050E0A4EFD3
:10122000EA2EF12C012D112DAA24BB2465010E9468
:1012300038270E94D72B0F900F900F900F902DEC16
:101240003CEC4CEC5DE30E94352B88234CF48DEC98
:101250009CECACECBDE38D839E83AF83B88751C01B
:1012600000D000D0ADB7BEB711961D921D921D9251
:101270001C921497C301B20120E030E040E050E03E
:10128000F4EFEF2EF12C012D112DAA24BB246501C2
:101290000E9438270E94D72B0F900F900F900F902D
:1012A00026E636E646E65FE30E94FF2C18162CF48D
:1012B00086E696E6A6E6BFE3CECF00D000D0ADB777
:1012C000BEB711961D921D921D921C921497C301D8
:1012D000B20120E030E040E050E0E4EFEE2EF12CEF
:1012E000012D112DAA24BB2465010E9438270E94DC
:1012F000D72B6D837E838F8398870F900F900F90ED
:101300000F90EBADFCAD608171818281938120E013
:1013100030E040E85FEB0E94FF2C18165CF00F2EC7
:10132000F0E0EF2EF0E0FF2EF0E00F2FFFE31F2F95
:10133000F02D62C12196AEADBFAD21976C9170E0EA
:1013400080E090E00E94D52B6F87788B898B9A8BF9
:101350002196EEADFFAD2197618170E080E090E0D5
:101360000E94D52B6B877C878D879E876DA17EA180
:101370008FA198A529A13AA14BA15CA10E946E2A38
:101380005B016C012F8D38A1B901882777FD80950D
:10139000982F0E94D72B28ED33E24FE95AE30E94A1
:1013A0000A2D20E030E04AEF53E40E943C2B7B0101
:1013B0008C016B8D7C8D8D8D9E8D2DEC3CEC4CECE1
:1013C0005DE30E940A2D9B01AC01C801B7010E9498
:1013D0006F2A9B01AC01C601B5010E946F2A2BED5B
:1013E0003FE049E450E40E946F2A69A77AA78BA7DF
:1013F0009CA76B887C88882499241DAE3CE33EAF73
:101400008CE1482E06E4502EF301A08DB18DED91B4
:10141000FC911197A080B180CD014F8558896989D1
:101420007A890B851C852D853E85E9A5FAA5ABA596
:101430002296AFAF2297BCA52396BFAF23976F012B
:101440007D01F50109957B018C012DAD3EADA20119
:101450000E94352B87FD05C08DAD9EADD2017C016C
:101460008D010894811C911CE2E0F0E06E0E7F1E5D
:10147000F6E08F16910431F0D801C701EDAE9EAFB2
:101480002D01C2CFC801B701ABADBCAD2D913D91CF
:101490004D915C910E946E2A9B01AC010E940A2D25
:1014A0000E94A42B2B013C0100D000D0EDB7FEB769
:1014B000118212821382148220E030E040E050E07A
:1014C00010E6E12E1AEEF12E012D112DAA24BB24D7
:1014D00065010E9438270E94D72B0F900F900F9024
:1014E0000F902DEC3CEC4CEC5DE30E94352B8823F7
:1014F0002CF42DEC3CEC4CEC5DE34FC000D000D064
:10150000ADB7BEB711961D921D921D921C921497F5
:10151000C301B20120E030E040E050E0B0E6EB2E45
:10152000BAEEFB2E012D112DAA24BB2465010E94C9
:1015300038270E94D72B0F900F900F900F9026E620
:1015400036E646E65FE30E94FF2C18162CF426E6EA
:1015500036E646E65FE321C000D000D0EDB7FEB727
:101560001182128213821482C301B20120E030E0A2
:1015700040E050E0A0E6EA2EAAEEFA2E012D112D51
:10158000AA24BB2465010E9438270E94D72B9B0107
:10159000AC010F900F900F900F906D817E818F8125
:1015A00098850E940A2D7B018C0126E636E646E6E8
:1015B0005FE30E94FF2C18165CF40F2EF6E6EF2E68
:1015C000F6E6FF2EF6E60F2FFFE31F2FF02D14C0D7
:1015D000C801B7012DEC3CEC4CEC5DE30E94352BCF
:1015E000882354F40F2EFDECEF2EFCECFF2EFCECC8
:1015F0000F2FFDE31F2FF02DC801B70120E030E0D1
:101600004FE753E40E940A2D0E94A92B2196AEAD0C
:10161000BFAD219712966C931297ED89FE89319692
:10162000FE8BED8B15962196BFAFAEAF21973A9703
:1016300009F0F7CBFCE7CF2EF1E0DF2EC20CD31C74
:10164000AA24BB240F2EF0E0EF2EF0E0FF2EF0E0F6
:101650000F2FF0E01F2FF02DD6016C9170E088273E
:1016600077FD8095982F0E94D72B9B01AC01C80174
:10167000B7010E946F2A7B018C010894A11CB11C48
:10168000E5E0F0E0CE0EDF1EFAE0AF16B10421F780
:1016900020E030E040E251E40E943C2B69837A83F1
:1016A0008B839C835B016C018824992421961FAE57
:1016B0001EAE219770C0C601B501A80197010E9416
:1016C0006E2A5B016C01C40101966AE070E00E9421
:1016D0001D2E4C0105C02901662457FC6094762C10
:1016E000C301B2010E94D72B7B018C01C601B50159
:1016F000A80197010E94FF2C1816ECF20E94C7194E
:101700007B018C010E94C71920E030E040E05FE3DC
:101710000E94FF2C18164CF52196AEADBFAD219757
:10172000AA0FBB1FAA0FBB1F21962EAD3FAD21975D
:10173000A20FB31FA20DB31DA455BE4FF401EE0FAF
:10174000FF1FEE0FFF1FE80DF91DE20DF31DE65818
:10175000FE4F81918D9381918D9380818C932F5F2A
:101760003F4F21963FAF2EAF219721968EAD9FAD73
:1017700021970A974CF5C801B70129813A814B811D
:101780005C810E940A2D9B01AC01C601B5010E943B
:101790006F2A5B016C012196EEADFFAD2197EE0F34
:1017A000FF1FEE0FFF1F2196AEADBFAD2197EA0FD1
:1017B000FB1FE20DF31DE458FE4F8081282F30E01F
:1017C000882309F49BCF87CFD101A455BE4F49850B
:1017D0005A8520E030E08C91FA01808311968C913B
:1017E0001197818312968C91129782832F5F3F4FBE
:1017F00015964B5F5F4F2A30310569F70E94C71974
:1018000020E030E048EC53E40E940A2D20E030E074
:1018100040E251E40E940A2D0E94A42BCB010197C3
:101820000997B8F4CB01880F991F880F991F860F6D
:10183000971F86589E4F26EE31E0220E331ED101AF
:101840006D917C91EAE1FEEF2E0E3F1E820D931DFD
:1018500031D9910120513E4F21963FAF2EAF2197B4
:1018600080E090E0A0E0B0E0F90180839183A28362
:10187000B38344EFA42E41E0B42EA20CB31CF501B7
:1018800080839183A283B383890145012CEA31E0EF
:10189000220E331EA985BA856C9170E0882777FDEA
:1018A0008095982F0E94D72B9B01AC01F801608195
:1018B0007181828193810E946F2A2B013C01D801A2
:1018C0006D937D938D939C931397E985FA85618140
:1018D00070E0882777FD8095982F0E94D72B9B0179
:1018E000AC01D4016D917D918D919C910E946F2AE4
:1018F0006B017C01F401608371838283938329856A
:101900003A852B5F3F4F3A8729872215330511F619
:10191000C301B20120E030E040E251E40E943C2BE0
:101920002196AEADBFAD21976D937D938D939C9322
:101930001397C701B60120E030E040E251E40E9475
:101940003C2BF5016083718382839383CE5BDF4FF1
:101950000FB6F894DEBF0FBECDBFCF91DF911F91C0
:101960000F91FF90EF90DF90CF90BF90AF909F903E
:101970008F907F906F905F904F903F902F90089541
:101980000F931F938C0189E061E00E94A62889E0F3
:1019900060E00E94E5288AE060E00E94A6280E949C
:1019A000E227F8016683778380879187C8010E94C8
:1019B00052011F910F910895DF92EF92FF920F93C2
:1019C0001F93CF93DF93EC01D62E0E94E22768830A
:1019D00079838A839B83E880F9800A811B812C812B
:1019E0003D814E815F8188859985AA85BB85820F5F
:1019F000931FA41FB51F8E159F05A007B10710F0F8
:101A000080E00BC0DD2041F088819981AA81BB81F3
:101A10008C839D83AE83BF8381E0DF91CF911F9143
:101A20000F91FF90EF90DF900895EF92FF920F9348
:101A30001F93CF93DF93EC018A89833009F469C047
:101A4000843030F4813049F1823008F040C00AC05F
:101A5000853009F4ACC0853008F4A1C0863009F0A7
:101A6000BEC0BAC0CE01029660E0A6DF882309F4AA
:101A7000B6C01A999AC088E090E0A0E0B0E08A87EA
:101A80009B87AC87BD870E94E2276E837F83888710
:101A90009987299A81E08A8BA2C0CE01029660E0E4
:101AA0008BDF882309F49BC01A997FC080E593ECF3
:101AB000A0E0B0E08A879B87AC87BD8729980E9409
:101AC000E2276E837F838887998782E0E4CF1A9B21
:101AD00002C083E0E0CFCE01029660E06DDF882394
:101AE00009F47DC080E593ECA0E0B0E08A879B8795
:101AF000AC87BD870E94E2276E837F8388879987A2
:101B00008FEF9FEFAFEFBFEF8E879F87A88BB98BCB
:101B100044C083B18695869580FD2BC00E94E22744
:101B20009B01AC018E819F81A885B9852817390753
:101B30004A075B0768F08E819F81A885B985790186
:101B40008A01E81AF90A0A0B1B0BD801C7010CC05D
:101B50008E819F81A885B98580959095A095B09537
:101B6000820F931FA41FB51F8E879F87A88BB98BE9
:101B700023C0CE01029660E01FDF882381F180E55B
:101B800093ECA0E0B0E08A879B87AC87BD870E947A
:101B9000E2276E837F838887998784E07CCFCE019C
:101BA000029660E009DF8823D1F085E074CF83B12D
:101BB0008695869580FD13C01B8A88EE93E0A0E091
:101BC000B0E08A879B87AC87BD870E94E2276E833F
:101BD0007F838887998702C08B8981111A8ADF9158
:101BE000CF911F910F91FF90EF900895FC0182ED2E
:101BF00092E091838083CF010C943E1A2F923F9202
:101C00004F925F926F927F928F929F92AF92BF920C
:101C1000CF92DF92EF92FF920F931F93CF93DF93B8
:101C20008130910509F085C46F5F7F4F09F08CC446
:101C3000109225031092240310922703109226037A
:101C4000109229031092280310922B0310922A035A
:101C500010922D0310922C0310922F0310922E033A
:101C600040E050E060E070E0EAE6F3E020EE32E0D1
:101C700030936B0320936A0330937D0320937C039E
:101C80008F010C5D1F4F86EE92E090938F0380933F
:101C90008E03A6E3EA2EF12CEE0EFF1E9093A10315
:101CA0008093A0033093B3032093B2033093C50312
:101CB0002093C4033093D7032093D6033093E903D2
:101CC0002093E8039093FB038093FA0390930D0411
:101CD00080930C0490931F0480931E04309331046E
:101CE00020933004909343048093420490935504CE
:101CF000809354043093670420936604909379048E
:101D0000809378048CEE92E090938B0480938A0405
:101D10004093300350933103609332037093330345
:101D20004093340350933503609336037093370325
:101D300080E090E0A6E3B3E4809338039093390306
:101D4000A0933A03B0933B030F2EF0E02F2EF0E068
:101D50003F2EF4E74F2EF3E45F2EF02D20923C034C
:101D600030923D0340923E0350923F0380934003E4
:101D700090934103A0934203B09343032092440302
:101D800030924503409246035092470340936C03C0
:101D900050936D0360936E0370936F0340937003D1
:101DA0005093710360937203709373038093740371
:101DB00090937503A0937603B093770340937803D1
:101DC0005093790360937A0370937B03F0934903F4
:101DD000E093480340937E0350937F036093800316
:101DE0007093810320928203309283034092840394
:101DF000509285038093860390938703A093880372
:101E0000B093890320928A0330928B0340928C0313
:101E100050928D037296F0934B03E0934A034093E4
:101E200090035093910360939203709393034093B4
:101E30009403509395036093960370939703409394
:101E400098035093990360939A0370939B03209295
:101E50009C0330929D0340929E0350929F031093E7
:101E60004D0300934C038093A2039093A303A0938C
:101E7000A403B093A5034093A6035093A7036093D4
:101E8000A8037093A9038093AA039093AB03A09334
:101E9000AC03B093AD032092AE033092AF034092F7
:101EA000B0035092B103F0924F03E0924E030F2E15
:101EB000F0E0EF2EF0E0FF2EF4E70F2FF2E41F2FFB
:101EC000F02DE092B403F092B5030093B6031093A3
:101ED000B7030F2EF0E0AF2EF0E0BF2EF0EFCF2EC5
:101EE000F1E4DF2EF02DA092B803B092B903C092B6
:101EF000BA03D092BB0320E030E042EF52E42093DB
:101F0000BC033093BD034093BE035093BF03A09224
:101F1000C003B092C103C092C203D092C30382EB4C
:101F200093E09093510380935003E092C603F092A4
:101F3000C7030093C8031093C9030F2EF0E0EF2EE0
:101F4000F0E0FF2EF6E50F2FF3E41F2FF02DE092C7
:101F5000CA03F092CB030093CC031093CD032093DC
:101F6000CE033093CF034093D0035093D103E0923C
:101F7000D203F092D3030093D4031093D50384ECDF
:101F800093E09093530380935203A092D803B092AE
:101F9000D903C092DA03D092DB03A092DC03B092A3
:101FA000DD03C092DE03D092DF0320E030E048E1A1
:101FB00053E42093E0033093E1034093E203509312
:101FC000E303A092E403B092E503C092E603D0924B
:101FD000E70386ED93E09093550380935403A0921A
:101FE000EA03B092EB03C092EC03D092ED03E092CF
:101FF000EE03F092EF030093F0031093F1032093AC
:10200000F2033093F3034093F4035093F503E0920B
:10201000F603F092F7030093F8031093F90388EEA8
:1020200093E09093570380935603A092FC03B092E1
:10203000FD03C092FE03D092FF03A0920004B09271
:102040000104C0920204D0920304A0920404B0924E
:102050000504C0920604D0920704E0920804F092AE
:10206000090400930A0410930B048AEF93E0909301
:1020700059038093580320930E0430930F04409328
:10208000100450931104A0921204B0921304C09251
:102090001404D0921504209316043093170440932F
:1020A000180450931904E0921A04F0921B04009350
:1020B0001C0410931D048CE094E090935B038093C8
:1020C0005A030F2EF0E06F2EF0E07F2EF8E38F2EF4
:1020D000F2E49F2EF02D60922004709221048092F1
:1020E000220490922304A0922404B0922504C0926A
:1020F0002604D092270460922804709229048092CA
:102100002A0490922B0420E030E040E752E4209330
:102110002C0430932D0440932E0450932F048EE111
:1021200094E090935D0380935C036092320470921C
:102130003304809234049092350420933604309313
:10214000370440933804509339040F2EF0E0EF2EFB
:10215000F0E0FF2EF8E00F2FF3E41F2FF02DE092B8
:102160003A04F0923B0400933C0410933D04209306
:102170003E0430933F04409340045093410480E375
:1021800094E090935F0380935E03E0924404F092A6
:1021900045040093460410934704A0924804B0926B
:1021A0004904C0924A04D0924B04E0924C04F0924D
:1021B0004D0400934E0410934F0420935004309329
:1021C0005104409352045093530482E494E090935A
:1021D000610380936003609256047092570480926A
:1021E00058049092590420E030E048E353E42093EF
:1021F0005A0430935B0440935C0450935D046092F6
:102200005E0470925F048092600490926104209258
:10221000620430926304409264045092650484E541
:1022200094E09093630380936203609268047092D9
:10223000690480926A0490926B0420936C0430933A
:102240006D0440936E0450936F04E0927004F0921A
:1022500071040093720410937304209374043093F8
:102260007504409376045093770486E694E0909347
:10227000650380936403E0927A04F0927B040093F8
:102280007C0410937D0420937E0430937F0440935C
:10229000800450938104E0928204F09283040093BE
:1022A000840410938504209286043092870440921F
:1022B00088045092890488E794E0909367038093A0
:1022C000660380E090E0A6EBB2E480938C049093E8
:1022D0008D04A0938E04B0938F0480E090E0A4EF6F
:1022E000B2E48093900490939104A0939204B093ED
:1022F0009304A0929404B0929504C0929604D09254
:102300009704A0929804B0929904C0929A04D09233
:102310009B048AE894E09093690380936803CCE976
:10232000D4E0CE010E942D05259684E0CE3CD8074E
:10233000C1F7CE010E942D05259685E0C030D80753
:10234000C1F780E090E0A0E0B0E08A8B9B8BAC8B83
:10235000BD8B8E8B9F8BA88FB98F0E940B010E9423
:10236000BE1980E393E099878887C0E0D0E0CE0172
:10237000880F991F880F991F8C0F9D1F609108056A
:102380007091090584569B4F0E945A052196CA30C8
:10239000D10569F780E090E0A0E0B0E080930A0505
:1023A00090930B05A0930C05B0930D0580930E053B
:1023B00090930F05A0931005B093110510921B0583
:1023C00010921A0510921D0510921C0510921F05FF
:1023D00010921E05109221051092200510922305DF
:1023E00010922205109225051092240510922705BF
:1023F00010922605109229051092280510922B059F
:1024000010922A0510922D0510922C0510922F057E
:1024100010922E051092310510923005109233055E
:10242000109232051092350510923405109237053E
:10243000109236058093440590934505A093460578
:10244000B093470585E090E0A0E0B0E080935005B0
:1024500090935105A0935205B09353050E94D42741
:1024600060934C0570934D0580934E0590934F05F6
:1024700082E090E0A0E0B0E080935C0590935D0581
:10248000A0935E05B0935F050E94D4276093580522
:102490007093590580935A0590935B0582ED92E005
:1024A000909361058093600580E197E2A0E0B0E041
:1024B00080936A0590936B05A0936C05B0936D05AE
:1024C0000E94E22760936605709367058093680514
:1024D00090936905109272058FEF9FEFAFEFBFEFFA
:1024E00080936E0590936F05A0937005B09371056E
:1024F0001092730582EF92E09093610580936005DE
:102500001092230388E893E1A0E0B0E080937C057B
:1025100090937D05A0937E05B0937F050E94D427FC
:10252000609378057093790580937A0590937B0585
:102530000BC0892B49F46F5F7F4F31F482ED92E03D
:102540009093610580936005DF91CF911F910F916A
:10255000FF90EF90DF90CF90BF90AF909F908F90C3
:102560007F906F905F904F903F902F90089580E004
:1025700090E06FEF7FEF42CB81E090E06FEF7FEF75
:102580003DCBEF92FF920F931F93DF93CF9300D039
:1025900000D000D0CDB7DEB77C018B0186EA62E3C4
:1025A000AE014F5F5F4F26E00E949B01882351F1EF
:1025B0009A8180E0298130E0822B932BF7012285DC
:1025C0003385820F931F909581959F4FF8019383D8
:1025D00082839C8180E02B8130E0822B932BF7015A
:1025E00020853185820F931F909581959F4FF8012B
:1025F000918380839E8180E02D8130E0822B932B1C
:102600009583848326960FB6F894DEBF0FBECDBFA8
:10261000CF91DF911F910F91FF90EF900895EF926E
:10262000FF920F931F93DF93CF9300D000D000D081
:10263000CDB7DEB78C017B0180ED6DE1AE014F5F60
:102640005F4F26E00E949B01882351F1398120E0F1
:102650008A8190E0282B392BF80184819581281BF1
:10266000390BF701338322833B8120E08C8190E09A
:10267000282B392BF80182819381281B390BF70114
:10268000318320833D8120E08E8190E0282B392BFF
:10269000F80186819781821B930BF70195838483D0
:1026A00026960FB6F894DEBF0FBECDBFCF91DF9157
:1026B0001F910F91FF90EF9008950F931F93DF9359
:1026C000CF9300D000D000D0CDB7DEB78B018CE324
:1026D00063E0AE014F5F5F4F26E00E949B018823BD
:1026E000E1F0998180E02A8130E0822B932BF80180
:1026F000938382839B8180E02C8130E0822B932B1B
:10270000909581959F4F958384839D8180E02E8154
:1027100030E0822B932B9183808326960FB6F8941A
:10272000DEBF0FBECDBFCF91DF911F910F910895F6
:102730002F923F924F925F926F927F928F929F92D1
:10274000AF92BF92CF92DF92EF92FF920F931F93BF
:10275000DF93CF93CDB7DEB728970FB6F894DEBFDF
:102760000FBECDBF6C01BC0168507E4F0ADF8601F1
:1027700002501E4FC601B80152DFC601B8014FDF3B
:1027800034E0A32E32E0B32EAC0CBD1CC601B50163
:1027900094DF26E032E0C20ED31ED6016D917C910B
:1027A000882777FD8095982F0E94D72B7B018C017D
:1027B000F50160817181882777FD8095982F0E94AF
:1027C000D72B9B01AC01C801B7010E94E22A24E18A
:1027D00030E0C20ED31ED6016D937D938D939C93F2
:1027E0001397ECEFFFEFCE0EDF1ED601ED90FC90BD
:1027F000EAEEFDEFCE0EDF1E0027F7FC0095102F4E
:102800002AE0622E22E0722E6C0C7D1CD3016D91A9
:102810007C91882777FD8095982F2DE432E040E069
:1028200050E00E94EA2DA80197010E94522E490112
:102830005A01F301318320839CE0292E92E0392E46
:102840002C0C3D1CD1016D917C91882777FD8095E2
:10285000982F2DE432E040E050E00E94EA2DA801DC
:1028600097010E94522E29013A01F1013183208300
:102870008EE0282E82E0382E2C0C3D1CD1016D916B
:102880007C91882777FD8095982F2DE432E040E0F9
:1028900050E00E94EA2DA80197010E94522E590192
:1028A000F1013183208320E132E0C20ED31E662481
:1028B00057FC6094762CC301B2012BE432E040E077
:1028C00050E00E94EA2D7B018C01C401AA2797FDEC
:1028D000A095BA2F89839A83AB83BC83BC01CD01B9
:1028E0002BE231E040E050E00E94EA2DE60EF71EB8
:1028F000081F191FC501AA2797FDA095BA2F8D8320
:102900009E83AF83B887BC01CD0122E730E040E071
:1029100050E00E94EA2DE60EF71E081F191FC8019D
:10292000B70128EE33E040E050E00E94522ED6017D
:102930002D933D936D01C301B20124EB3EEF4FEFA8
:102940005FEF0E94EA2D7B018C0169817A818B8186
:102950009C8127E53FEF4FEF5FEF0E94EA2DE60EE7
:10296000F71E081F191F6D817E818F81988524EFC6
:1029700031E040E050E00E94EA2DE60EF71E081F0D
:10298000191FC801B70128EE33E040E050E00E9473
:10299000522EF601219331936F01C301B2012DE54F
:1029A0003EEF4FEF5FEF0E94EA2D7B018C016981C2
:1029B0007A818B819C8124EF31E040E050E00E94DD
:1029C000EA2DE60EF71E081F191F6D817E818F818B
:1029D000988521E530E040E050E00E94EA2DE60EC7
:1029E000F71E081F191FC801B70128EE33E040E0A9
:1029F00050E00E94522ED6012D933C93E4E0F0E08B
:102A0000CE0EDF1EC501880F991F8A0D9B1D880FF2
:102A1000991F880C991C880C991C880D991D6AE0D7
:102A200070E00E941D2ED6016D937C9328960FB600
:102A3000F894DEBF0FBECDBFCF91DF911F910F91F4
:102A4000FF90EF90DF90CF90BF90AF909F908F90CE
:102A50007F906F905F904F903F902F900895EF92EE
:102A6000FF920F931F9314D50E94D4277B018C01F2
:102A700060935405709355058093560590935705C0
:102A800080915C0590915D05A0915E05B0915F0518
:102A9000209158053091590540915A0550915B0598
:102AA000820F931FA41FB51F8E159F05A007B107A6
:102AB00008F040C0E0925805F092590500935A057D
:102AC00010935B0580912303882319F0813091F5E1
:102AD00009C088EE60E041E00E948C0181E08093B3
:102AE000230328C088EE60E00E94EE01882311F5E0
:102AF00088EE60E40E94CD0190932D0580932C0513
:102B000088EE62E40E94CD0190932F0580932E05FC
:102B100088EE64E40E94CD019093310580933005E6
:102B200088EE66E40E94CD019093390580933805C4
:102B3000109223030E94D4277B018C0160934805E7
:102B40007093490580934A0590934B0580915005F9
:102B500090915105A0915205B091530520914C05DB
:102B600030914D0540914E0550914F05820F931FB6
:102B7000A41FB51F8E159F05A007B10798F4E0921A
:102B80004C05F0924D0500934E0510934F0582E2DF
:102B900093E00E94F10582E293E0CADD82E293E0D5
:102BA0000E94C3061F910F91FF90EF9008950F931D
:102BB0001F93862F142F022F04D6812F18D6802F13
:102BC00016D60CD61F910F910895CF93DF93EC0189
:102BD0006115710521F08DE397E00E94412668811F
:102BE00079818DE397E04AE050E00E9412268DE360
:102BF00097E060E071E00E9441266A817B818DE36D
:102C000097E04AE050E00E9412268DE397E060E0F2
:102C100071E00E9441266C817D818DE397E04AE05E
:102C200050E00E942426DF91CF9108952F923F9289
:102C30004F925F926F927F928F929F92AF92BF92CC
:102C4000CF92DF92EF92FF920F931F93DF93CF9378
:102C5000CDB7DEB766970FB6F894DEBF0FBECDBF17
:102C60006C018DE397E062E071E00E942727C601C6
:102C700066EA70E04CE250E02CE030E098DF65E07E
:102C800070E080E090E00E940828C60166EA70E0EB
:102C90004DE250E028E030E08ADF65E070E080E05F
:102CA00090E00E940828C60166EA70E041E350E027
:102CB0002BE030E07CDFC60160ED70E04EE350E0D9
:102CC00020E830E074DF65E070E080E090E00E9492
:102CD0000828C60160ED70E046E150E028E130E0F0
:102CE00066DF65E070E080E090E00E9408288DE3F8
:102CF00097E06FE071E00E942727C60160ED70E069
:102D000045E150E020E030E052DF65E070E080E037
:102D100090E00E940828C60160ED70E04EE350E0AC
:102D200023E030E044DF68EE73E080E090E00E9452
:102D300008288DE397E06CE171E00E9427278CE37F
:102D400060E04CE10E948C018CE361E040E60E946F
:102D50008C018CE362E040E00E948C018DE397E0FF
:102D600069E271E00E9427271A8219821C821B8265
:102D70001E821D8218861F821A8619861C861B8653
:102D80001E861D86188A1F861A8A198A00E010E09E
:102D90004E010894811C911C27E0A22EB12CAC0E90
:102DA000BD1E9DE0E92EF12CEC0EFD1EC601B40106
:102DB00036DCC601B501E5DBC601B7017EDC61E0AA
:102DC00070E080E090E00E9408280F5F1F4F003401
:102DD000110561F71E8A1D8A662477241C8A1B8AC6
:102DE00022243324AA24BB2488249924442455244F
:102DF00000E010E0EE24FF24C601BE016F5F7F4FAC
:102E00000EDC89819A81080F191F8B819C81E80E45
:102E1000F91E8D819E81680E791EC601BE01695F13
:102E20007F4FAFDB8F819885A80EB91E89859A8563
:102E3000880E991E8B859C85480E591EC601BE01C1
:102E4000635F7F4F3ADC8D859E852B893C89280FF7
:102E5000391F3C8B2B8B8F859889280E391E61E09A
:102E600070E080E090E00E9408288D899E8901969C
:102E70009E8B8D8B8034910509F0BECF86E0159531
:102E800007958A95E1F7F6011383028316E0F5941E
:102E9000E7941A95E1F7F582E482B6E075946794B9
:102EA000BA95E1F777826682A6E0B594A794AA95D1
:102EB000E1F7B186A08676E0959487947A95E1F75C
:102EC0009386828666E0559447946A95E1F7558625
:102ED000448656E0359427945A95E1F7B101882746
:102EE00077FD8095982F0E94D72B7B018C012B8931
:102EF0003C8946E0359527954A95E1F7B901882741
:102F000077FD8095982F0E94D72B9B01AC01C801BB
:102F1000B7010E94E22A8601025E1D4FF80160831C
:102F2000718382839383C601BE01695F7F4FC5DBD6
:102F3000C601BE01695F7F4F24DBC6010E94F10517
:102F4000C601F6DBC60188509E4F67E371E03DDEA7
:102F5000C60182509E4F6DE371E037DEC6018C5F83
:102F60009D4F64E471E031DEC601865F9D4F6AE4E7
:102F700071E02BDEC601805F9D4F62E571E025DECA
:102F80008DE397E068E571E00E9441268DE397E0CC
:102F900062E671E00E94412626E132E0C20ED31EB5
:102FA000F601619171916F018DE397E04AE050E085
:102FB0000E9412268DE397E06AE671E00E944126A6
:102FC000F601619171916F018DE397E04AE050E065
:102FD0000E9412268DE397E065E771E00E9441268A
:102FE000F80140815181628173818DE397E022E095
:102FF00030E00E9414278DE397E06FE771E00E94B4
:103000004126F60140815181628173818DE397E011
:1030100022E030E00E9414278DE397E069E871E038
:103020000E94412628E030E0C20ED31EF601408106
:103030005181628173818DE397E022E030E00E944C
:1030400016278DE397E061E971E00E9427276696D5
:103050000FB6F894DEBF0FBECDBFCF91DF911F91A9
:103060000F91FF90EF90DF90CF90BF90AF909F9027
:103070008F907F906F905F904F903F902F9008952A
:103080008DE061E00E94A6288DE060E00E94E528C6
:103090000E940B016115710581059105C9F36ED17F
:1030A0008DE397E040E855E260E070E00E9417236E
:1030B00088E061E00E94A6288BE061E00E94A628DB
:1030C0008BE060E00E94E52888E061E00E94E5284E
:1030D00081E090E00E9461280E94E2270E94D427AC
:1030E00061E070E080E090E00E9408288DE397E0C6
:1030F00061EA71E00E9427271FD382E061E00E940D
:10310000A62882E061E00E94E5288DE397E062EB6B
:1031100071E00E94272780E695E00E94C00C61E0E4
:1031200070E080E090E00E94082836D361E070E013
:1031300080E090E00E9408288AE08093B80086E052
:1031400061E00E94A62886E061E00E94E5288DE308
:1031500097E06DEB71E00E94272788EE66E04FE074
:103160000E948C0188EE67E04CE00E948C0188EEA2
:1031700068E047E00E948C0188EE69E045E00E942B
:103180008C0188EE6AE049EC0E948C0188EE6BE0CD
:1031900040E00E948C0188EE6CE049EC0E948C01BA
:1031A00088EE6DE040E00E948C0188EE6EE049EC14
:1031B0000E948C0188EE6FE040E00E948C0188EE56
:1031C00060E147EC0E948C0188EE61E140E00E94E2
:1031D0008C018DE397E06CEC71E00E94272782E27E
:1031E00093E024DD109222038DE397E065ED71E01A
:1031F0000E9427278DE397E06BED71E00E9427275F
:1032000088E396E065E070E05BD488E396E06EE0EA
:1032100079E1B4D38DE061E00C94E528AF92BF92E0
:10322000CF92DF92EF92FF920F931F9380913A0516
:1032300080938005809138058093810500D000D06F
:103240000DB71EB70F5F1F4F60913C0570913D0594
:1032500080913E0590913F052091400530914105B8
:1032600040914205509143050E946E2A0E94A42B72
:103270002FEF30E040E050E0F801208331834283BB
:10328000538320E030E040E050E0E6E0EE2EF12C09
:10329000012D112DAA24BB2465010E9438270E940C
:1032A000D72B7B018C010F900F900F900F900AC0CD
:1032B000C801B70120E030E04FE753E40E946F2AD5
:1032C0007B018C01C801B70120E030E040E050E014
:1032D0000E94352B87FDECCF0AC0C801B70120E062
:1032E00030E04FE753E40E946F2A7B018C01C80154
:1032F000B70120E030E04FE753E40E94FF2C18169E
:1033000064F3C801B7010E94A92B60938305609103
:1033100044057091450580914605909147050E94AE
:10332000A92B60938205609112057091130580911D
:103330001405909115050E94A92B60938405609156
:1033400016057091170580911805909119050E9436
:10335000A92B6093850581E08093860588E396E03C
:1033600060E875E046E050E033D31F910F91FF9085
:10337000EF90DF90CF90BF90AF9008956093870556
:10338000709388058093890590938A050895AF927C
:10339000BF92CF92DF92EF92FF920F931F93E09034
:1033A0008705F09088050091890510918A05C8016C
:1033B000B7012DE133EF41E050E00E94522ED22EB2
:1033C000C32EB42EA52E622F732F842F952F23EE9C
:1033D0003CE04EEF5FEF0E94EA2DE60EF71E081F5D
:1033E000191FC801B70127EA31E440E050E00E940C
:1033F000EA2D7B018C016D2D7C2D8B2D9A2D2CEED1
:1034000034EF4FEF5FEF0E94EA2DE60EF71E081F24
:10341000191FE0928705F0928805009389051093A3
:103420008A0517FF10C08FEF9FEFAFEFBFE7E80EE1
:10343000F91E0A1F1B1FE0928705F0928805009372
:10344000890510938A0560918705709188058091A0
:10345000890590918A050E94D72B20E030E040E05A
:1034600050E30E940A2D1F910F91FF90EF90DF9083
:10347000CF90BF90AF900895F894FFCF0C94D629C9
:1034800008958BE895E064EB72E04AE00C946422C6
:103490001F930EC08DE397E00E94CF23182F8DE37A
:1034A00097E0612F0E94EB248BE895E0612FD6D73F
:1034B0008DE397E00E949E23892B61F71F91089569
:1034C0000F931F938DE397E06AEE71E00E9441260F
:1034D000609172058DE397E070E04AE050E00E9451
:1034E00012268DE397E061EF71E00E944126409142
:1034F0006E0550916F0560917005709171058DE3B7
:1035000097E02AE030E00E94D4258DE397E067EF52
:1035100071E00E9441260E94E2278B019C0180916C
:10352000660590916705A0916805B0916905081737
:1035300019072A073B0778F0809166059091670587
:10354000A0916805B0916905B901A801481B590B04
:103550006A0B7B0B10C04091660550916705609126
:103560006805709169054095509560957095400F7C
:10357000511F621F731F8DE397E02AE030E00E9425
:10358000B1251F910F9108950F931F930AE115E044
:10359000C80165E072E019DBC80106966BE072E0D5
:1035A00014DBC8010C9662E172E00FDBC8014296A1
:1035B00068E172E00ADBC801489660E272E005DB70
:1035C0000DE317E0C80166E272E00E944126C801DF
:1035D00060E372E00E9441266091380570913905E0
:1035E000C8014AE050E00E941226C80168E372E078
:1035F0000E94412660913A0570913B05C8014AE05E
:1036000050E00E941226C80163E472E00E94412645
:1036100040914005509141056091420570914305EC
:10362000C80122E030E00E941427C8016DE472E076
:103630000E94412640913C0550913D0560913E0518
:1036400070913F05C80122E030E00E941427C801B4
:1036500067E572E00E94412640914405509145057E
:103660006091460570914705C80122E030E00E9454
:1036700016271F910F910895CF93DF938DE397E065
:103680006FE572E00E942727CCE9D4E08DE397E054
:1036900063E772E00E9441268DE397E068814AE08B
:1036A00050E00E94C3258DE397E069E772E00E9435
:1036B00041268DE397E069814AE050E00E94C325EE
:1036C0008DE397E06BE772E00E9441268DE397E07F
:1036D0006A814AE050E00E94C3258DE397E060E8EC
:1036E00072E00E9441266B81772767FD70958DE31C
:1036F00097E04AE050E00E9412268DE397E069E7E8
:1037000072E00E9441266C81772767FD70958DE3FA
:1037100097E04AE050E00E9412268DE397E065E8CA
:1037200072E00E942727259684E0CE3CD80709F056
:10373000ADCFDF91CF9108958BE895E067EA7BE10B
:10374000DBC48DE397E063EB70E00C941325EF92FC
:10375000FF920F931F937C010DE317E0C80167E808
:1037600072E00E944126C801B7010E944126C801AB
:1037700066E972E00E944126E4DF1F910F91FF90FD
:10378000EF90089594E19A95F1F7089508954A9B72
:10379000FECFA89408950895539852985B985A982C
:1037A000882799274B9B08954A9B089581E00895A7
:1037B00081E008954A9BEBDF539AE4DF18C081E073
:1037C0000895529ADFDF5398DDDF5298DBDF4A9B82
:1037D000DEDF539AD7DF0BC081E00895529A539AE7
:1037E000D1DF5298CFDF4A9BD2DF5398CBCF0894DA
:1037F000881F01C0880FB9F0529A00000000000035
:1038000018F40000539802C0539A00C0BBDF5298CE
:10381000A8940000000000004A9BB9DF12F488273A
:1038200012C0B0DFE7CF529A000000005398AADF21
:10383000992788275298A89400004A9BA8DF7AF31A
:103840004B9B81E09FDF00000000529A089581E0C9
:10385000089571E0529A539800000000000092DF32
:10386000529890DFA8940000000000004A9B8FDF70
:10387000B2F088944B990894771F60F7529A803081
:1038800011F0539801C0539A0000000000007ADF45
:103890005298A894000000004A9B79DF73DF000073
:1038A0000000529A872F9927089580E20895FC011D
:1038B00080E093E09183808308952091100630E0AA
:1038C00080910F06281B3109C901089540910F0608
:1038D00080911006481718F02FEF3FEF0AC0E42F31
:1038E000F0E0E151FA4F8081282F30E04F5F4093A4
:1038F0000F06C9010895E0910F0680911006E817A0
:1039000018F0EFEFFFEF06C0F0E0E151FA4F8081D1
:10391000E82FF0E0CF0108950895AC01209136061C
:103920003091370621153105E1F090910F06809115
:1039300010069817B0F090E008C0FA01EA0FFB1FDC
:103940008081A151BA4F8C939F5FA92FB0E0A61739
:10395000B7079CF310920F0660931006CB01F90194
:1039600009950895E0913406F0913506309729F0D5
:10397000109231061092320609950895709335061B
:1039800060933406089510923B0610923A0688EE32
:1039900093E0A0E0B0E080933C0690933D06A093B6
:1039A0003E06B0933F0680E093E090933906809303
:1039B0003806089580E093E09093390680933806A6
:1039C0000895FC0180E093E091838083CF0156CD80
:1039D000CF92DF92EF92FF920F931F93CF93DF93DB
:1039E0007C016B018A01809133068823A1F0C0E03D
:1039F000D0E00DC0D701ED91FC91D601AC0FBD1FF9
:103A00000190F081E02DC7016C9109952196C017B6
:103A1000D10780F303C0CB01642F58D0C801DF91D8
:103A2000CF911F910F91FF90EF90DF90CF9008956D
:103A3000DF93CF930F92CDB7DEB7FC0169838091FE
:103A400033068823C9F080913206803238F081E055
:103A500090E09383828320E030E014C080913106AF
:103A6000E82FF0E0EF5EF94F998190838F5F8093AC
:103A700031068093320604C0CE01019661E026D063
:103A800021E030E0C9010F90CF91DF9108951092AD
:103A90000F06109210061092310610923206CCC119
:103AA0000F931F938C01862F0DD082EB9CE12ED0BB
:103AB0008DE89CE126D0C801EADF1F910F9108959F
:103AC000EFCF0895880F8093BA000895482F613290
:103AD00010F081E0089580916906843011F082E051
:103AE000089560938F06A2E9B6E0842F9C01F90146
:103AF00002C081918D938E2F841B8617D0F380E0B6
:103B0000089590938D0680938C0608959093910666
:103B10008093900608951F920F920FB60F92112472
:103B20002F933F934F935F936F937F938F939F93C5
:103B3000AF93BF93EF93FF938091B90090E0887F9C
:103B400090708036910509F4F2C081369105CCF56C
:103B50008832910509F47BC089329105B4F4803133
:103B6000910509F46FC0813191053CF4009709F487
:103B700047C1089709F04FC165C08831910509F424
:103B800066C0809709F047C182C08034910509F46E
:103B9000A4C08134910544F48033910509F482C0B6
:103BA000C89709F038C189C08035910509F489C0EA
:103BB0008835910509F496C08834910509F02BC128
:103BC000AEC08839910509F413C189399105ECF427
:103BD0008837910509F4ABC0893791054CF48836D4
:103BE000910509F4A4C08037910509F014C19FC064
:103BF0008838910509F4FCC08039910509F49DC00D
:103C00008038910509F007C198C0803B910509F4FF
:103C1000C6C0813B91054CF4803A910509F49FC0E0
:103C2000883A910509F0F7C0BAC0803C910509F4C3
:103C3000E3C0883C910509F4DFC0883B910509F099
:103C4000EAC0C2C0809144068093BB00CFC090916F
:103C5000450680914606981768F490914506E92F2D
:103C6000F0E0E95BF94F80818093BB009F5F909308
:103C70004506BCC080916706882309F44BC085EDDA
:103C80008093BC008091BC0084FDFCCFC2C080E268
:103C900080936A0685ED8093BC008091BC0084FD12
:103CA000FCCFB7C080E380936A0685ED8093BC00AB
:103CB0008091BC0084FDFCCFACC088E380936A0691
:103CC0009BC0809145069091BB00E82FF0E0E95B36
:103CD000F94F90838F5F80934506909145068091C0
:103CE000460682C0809145069091BB00E82FF0E027
:103CF000E95BF94F90838F5F80934506809167065B
:103D0000882341F085ED8093BC008091BC0084FD48
:103D1000FCCF7FC081E08093680684EA6EC085EDA9
:103D20008093BC008091BC0084FDFCCF72C083E016
:103D30008093690610926B0659C080916B068032A1
:103D400008F056C080916B069091BB00E82FF0E020
:103D5000E459F94F90838F5F80936B0647C0809141
:103D60006B06803230F4E0916B06F0E0E459F94FD5
:103D7000108285ED8093BC008091BC0084FDFCCF57
:103D80001092690660916B06E0918C06F0918D06A9
:103D90008CE696E070E0099510926B062DC084E0E9
:103DA0008093690610928E0610928F06E09190061D
:103DB000F0919106099580918F06882329F481E07E
:103DC00080938F061092920690918E06E92FF0E074
:103DD000EE56F94F80818093BB009F5F90938E06D3
:103DE00090918E0680918F06981710F485EC01C093
:103DF00085E88093BC000FC085EC8093BC0009C0AF
:103E000010926A0685ED8093BC008091BC0084FD11
:103E1000FCCF10926906FF91EF91BF91AF919F91F6
:103E20008F917F916F915F914F913F912F910F9063
:103E30000FBE0F901F9018951092690681E0809335
:103E400067061092680682E161E00E94E52883E13E
:103E500061E00E94E528E9EBF0E080818E7F8083BD
:103E600080818D7F808388E48093B80085E480938F
:103E7000BC0008951F920F920FB60F9211242F933A
:103E80003F934F935F936F937F938F939F93AF93E2
:103E9000BF93EF93FF93E091B206F091B3060995BB
:103EA000FF91EF91BF91AF919F918F917F916F9112
:103EB0005F914F913F912F910F900FBE0F901F90E8
:103EC00018959093B3068093B206892B21F08091C8
:103ED0007000826003C0809170008D7F80937000BD
:103EE0000895611571058105910521F461E070E087
:103EF00080E090E09B01AC0174E0220F331F441F6F
:103F0000551F7A95D1F7DA01C901B695A79597950E
:103F10008795813061E0960760E0A60760E0B6070C
:103F200020F4682F615091E06BC0813068E0960703
:103F300060E0A60760E0B60758F4F4E056954795B0
:103F400037952795FA95D1F7622F615092E058C0C6
:103F5000813060E2960760E0A60760E0B60758F49B
:103F6000E6E05695479537952795EA95D1F7622F64
:103F7000615093E045C0813060E4960760E0A60799
:103F800060E0B60758F477E0569547953795279542
:103F90007A95D1F7622F615094E032C0813060E8A9
:103FA000960760E0A60760E0B60740F4BB27A52FA0
:103FB000942F832F682F615095E022C0813060E0FC
:103FC000960761E0A60760E0B60740F4892F9A2FB4
:103FD000AB2FBB27682F615096E012C081509040F4
:103FE000A440B04018F097E06FEF0AC08BE0569500
:103FF0004795379527958A95D1F7622F615097E0BD
:104000001092B1001092B0001092B2008091B600F0
:104010008F7D8093B6006093B3008091B4068823AF
:1040200011F482E001C082E48093B0009093B1006B
:104030000895CF93DF93FC01EE59FF4FA081B1812A
:10404000E256F040AA30B105C4F5EB0120E030E0C3
:1040500070E01DC068816D3211F471E017C0862FC9
:1040600080538A3098F4C901880F991F880F991FCF
:10407000880F991F220F331F820F931F262F33277C
:1040800027FD309520533040280F391F2196C41743
:10409000D50701F7772319F0309521953F4F979673
:1040A000AA0FBB1FAE0FBF1F2D933C93EE59FF4FBE
:1040B00080819181019691838083DF91CF910895D2
:1040C000CF93DF93EC01C45BDF4FE881F981CC54DF
:1040D000D040309711F0099505C0EB81FC81CE01ED
:1040E00008960995C45BDF4F19821882669619827B
:1040F0001882DF91CF910895FC0174836383089542
:10410000CF92DF92EF92FF920F931F93CF93DF93A3
:10411000DC016B018A01061B170BFC01E45BFF4FFE
:1041200011821082CD91DC917F010CC0C601A801E3
:104130000E942101009729F48A819B81F7019183D4
:1041400080832496F70180819181892B29F46881ED
:1041500079816115710551F7DF91CF911F910F9111
:10416000FF90EF90DF90CF900895AF92BF92CF92E3
:10417000DF92EF92FF920F931F93CF93DF937C0117
:10418000EC01289629E430E0E20EF31EF70180816D
:1041900027EB3FEFE20EF31EC82EDD2489E090E00E
:1041A000C80ED91ECE0CDF1CECE4F0E0EE0EFF1EB4
:1041B000F7011182108226E130E0E20EF31EF701D2
:1041C000118210822EE93FEFE20EF31E01C021960C
:1041D000CC15DD0509F437C188818930C1F38032FF
:1041E000B1F3BE018B3524F081568A3120F02BC10A
:1041F00081340CF428C18E010F5F1F4F0C151D0573
:1042000009F421C1F80180818A30C1F08B302CF48F
:104210008823A1F0893031F4C3C08D3079F0803229
:1042200009F4BEC0813424F480538A3028F30BC1D2
:104230008B3514F381568A31F8F205C15E01C7014E
:10424000B501A8015DDF05C05E01C701BE01A8017F
:10425000F0DEE8012196CC15DD0509F4F0C0888177
:104260008A30C1F38B301CF48823A1F3ECC08D306D
:1042700089F38B3309F0E7C0C701B501AE0120DF38
:104280002196CC15DD0509F4DEC088818930C1F3A3
:104290008032B1F3BE018B3524F081568A3120F093
:1042A000D2C081340CF4CFC08E012C2F9D2F0F5F14
:1042B0001F4F0C151D0509F4C6C0F8018081A22E00
:1042C000B92E8A3009F4BBCF8B3034F4882309F43B
:1042D000B6CF893031F411C08D3009F4B0CF8032BF
:1042E00061F0813424F480538A3008F3ACC08B35FC
:1042F000F4F281568A31D8F2A6C0C701A80100DFC6
:1043000003C0C701A80195DE5E01E8012196CC1526
:10431000DD0509F498C088818D3009F49BCF8E307B
:104320004CF4893099F38A3009F494CF882309F446
:1043300091CF06C08B3251F08D3241F0803231F393
:1043400080538A3008F07FC08E010CC08E010F5F51
:104350001F4F0C151D0509F476C0898180538A30E2
:1043600008F071C0BE010F5F1F4F0C151D0509F449
:104370006AC0F80180818A3009F466CF8B3034F44A
:10438000882309F461CF893039F4BBCF8D3009F42B
:104390005BCF803209F4B5CF80538A3020F353C00D
:1043A000C701A801ADDE03C0C701A80142DE5E015E
:1043B000E8012196CC15DD0509F445C088818D30D2
:1043C00081F08E303CF48930A1F38A3051F088239B
:1043D00041F009C08B3261F08D3251F0803219F416
:1043E000E8CF8E0136CF80538A3068F58E010AC03F
:1043F0008E010F5F1F4F0C151D0529F18981805318
:104400008A3008F5BE010F5F1F4F0C151D05D9F04E
:10441000F80180818A3009F417CF8B3034F4882377
:1044200009F412CF893039F4BFCF8D3009F40CCFA5
:10443000803209F4B9CF80538A3028F304C0C70111
:10444000B501AE013DDEDF91CF911F910F91FF903D
:10445000EF90DF90CF90BF90AF9008951F93CF93D0
:10446000DF93EC01162F6D3011F06A3039F4CE0174
:104470007CDE1886C75BDF4F188222C0862F992703
:1044800087FD90950E94E12D892B69F0DE01A75BE5
:10449000BF4F8C918034A0F4FE01E80FF11D10870E
:1044A0008F5F8C930AC0183059F4FE01E75BFF4F11
:1044B0008081882329F081508083C80FD11D188600
:1044C000DF91CF911F9108950F931F938C01FC01F1
:1044D000718360831282148213824783065B1F4FAD
:1044E000F801118210820A541040C801059660EA52
:1044F00072E00E941A01F8011086075B1F4FF80155
:1045000010820D5F1F4FF801118210820A5E1F4F4B
:10451000F801118210821F910F91089508951F9242
:104520000F920FB60F9211242F933F934F938F93B7
:104530009F93EF93FF938091C00082FD1DC0409137
:10454000C6002091F5063091F6062F5F3F4F2F737E
:1045500030708091F7069091F8062817390771F0AE
:10456000E091F506F091F606EB54F94F4083309355
:10457000F6062093F50602C08091C600FF91EF91E8
:104580009F918F914F913F912F910F900FBE0F9060
:104590001F901895E0914907F0914A07E05CFF4FA2
:1045A0008191919120813181821B930B8F73907047
:1045B000892B09F0B3CF08951F920F920FB60F9277
:1045C00011242F933F938F939F93EF93FF93209109
:1045D000390730913A0780913B0790913C072817A3
:1045E000390731F48091C1008F7D8093C10014C0E0
:1045F000E0913B07F0913C07E750F94F2081809113
:104600003B0790913C0701968F73907090933C0705
:1046100080933B072093C600FF91EF919F918F916C
:104620003F912F910F900FBE0F901F901895AF9252
:10463000BF92DF92EF92FF920F931F93CF93DF937E
:10464000EC017A018B01DD24403081EE580780E0D7
:10465000680780E0780711F0DD24D39491E0A92E5B
:10466000B12CEC89FD89DD2069F0C50108A002C0EC
:10467000880F991F0A94E2F7808360E079E08DE368
:1046800090E005C0108260E874E88EE190E0A80137
:1046900097010E94302E21503040404050405695A6
:1046A00047953795279580E12030380720F0DD20A9
:1046B00011F0DD24D6CFE889F9893083EA89FB89B6
:1046C000208319A2EE89FF89408121E030E0C901F1
:1046D0000C8C02C0880F991F0A94E2F7482B408384
:1046E000EE89FF894081C9010D8C02C0880F991F96
:1046F0000A94E2F7482B4083EE89FF894081C90183
:104700000E8C02C0880F991F0A94E2F7482B408351
:10471000EE89FF8980810F8C02C0220F331F0A941B
:10472000E2F7209528232083DF91CF911F910F91ED
:10473000FF90EF90DF90BF90AF900895DC011C9642
:10474000ED91FC911D97E05CFF4F219131918081AB
:104750009181281B390B2F733070C9010895DC013A
:104760001C96ED91FC911D97E05CFF4F20813181FB
:10477000E054F040DF01AE5BBF4F8D919C911197EB
:104780002817390719F42FEF3FEF07C08D919C913F
:10479000E80FF91F8081282F30E0C9010895DC015E
:1047A0001C96ED91FC911D97E05CFF4F20813181BB
:1047B000E054F040DF01AE5BBF4F8D919C911197AB
:1047C0002817390719F42FEF3FEF10C08D919C91F6
:1047D0001197E80FF91F20818D919C9111970196F7
:1047E0008F73907011969C938E9330E0C901089559
:1047F000DC0191968C919197882339F05496ED9134
:10480000FC915597808186FFF9CF91961C9208956F
:10481000CF93DF93EC01EE85FF85E05CFF4F2081B5
:104820003181E054F0402F5F3F4F2F733070DF0134
:10483000AE5BBF4F8D919C91119728173907D1F32B
:10484000E05CFF4F80819181E054F040E80FF91F58
:104850006083EE85FF85E05CFF4F31832083EE8926
:10486000FF89208181E090E00F8C02C0880F991FA2
:104870000A94E2F7282B208381E089A3EC89FD8943
:1048800080818064808381E090E0DF91CF91089502
:104890001092400710923F0788EE93E0A0E0B0E04E
:1048A0008093410790934207A0934307B093440736
:1048B00084E193E090933E0780933D0785EB96E07B
:1048C00090934A078093490789EF96E090934C07AD
:1048D00080934B0785EC90E090934E0780934D07B3
:1048E00084EC90E09093500780934F0780EC90E029
:1048F000909352078093510781EC90E09093540776
:104900008093530782EC90E090935607809355076D
:1049100086EC90E0909358078093570784E080934B
:10492000590783E080935A0787E080935B0785E00F
:1049300080935C0781E080935D070895CF92DF92BA
:10494000EF92FF920F931F93CF93DF937C016B0144
:104950008A01C0E0D0E00FC0D6016D916D01D70192
:10496000ED91FC910190F081E02DC7010995C80FF0
:10497000D91F015010400115110571F7CE01DF91CB
:10498000CF911F910F91FF90EF90DF90CF900895FE
:10499000EF92FF920F931F93CF93DF937C018B01D4
:1049A000C0E0D0E0F8010F5F1F4F6491662359F01B
:1049B000D701ED91FC910190F081E02DC70109959F
:1049C000C80FD91FEFCFCE01DF91CF911F910F916B
:1049D000FF90EF900895DC01ED91FC910190F08142
:1049E000E02D09950895EF92FF920F931F938C018C
:1049F000DC01ED91FC910190F081E02D6DE00995D5
:104A00007C01D801ED91FC910190F081E02DC8016D
:104A10006AE009959C012E0D3F1DC9011F910F9160
:104A2000FF90EF900895EF92FF920F931F937C01F8
:104A3000AFDF8C01C701D7DF9C01200F311FC901F7
:104A40001F910F91FF90EF900895CF93DF93EC01AA
:104A50006115710519F420E030E00FC0DB010D9005
:104A60000020E9F71197A61BB70BE881F9810280B6
:104A7000F381E02DAD0109959C01C901DF91CF9132
:104A800008954F925F927F928F929F92AF92BF92C2
:104A9000CF92DF92EF92FF920F931F93DF93CF930A
:104AA000CDB7DEB7A1970FB6F894DEBF0FBECDBF6E
:104AB0002C01742ECB01223008F42AE019A231E235
:104AC000C32ED12CCC0EDD1E822E9924AA24BB2409
:104AD000672D752FA50194010E94302E79018A015E
:104AE000C801B701A50194010E94EA2D472D461B7C
:104AF0000894C108D1084A3014F4405D01C0495CF3
:104B0000F6014083E114F1040105110521F07E2C2A
:104B10005F2DC801DDCFC201B60197DFA1960FB6A8
:104B2000F894DEBF0FBECDBFCF91DF911F910F91E3
:104B3000FF90EF90DF90CF90BF90AF909F908F90BD
:104B40007F905F904F900895DC012115310541F46D
:104B5000ED91FC910190F081E02D642F099508956D
:104B600090CFEF92FF920F931F937C01EDDF8C01AA
:104B7000C70139DF9C01200F311FC9011F910F911F
:104B8000FF90EF900895EF92FF920F931F939A0179
:104B9000E62EFF2400E010E0B801A701D5DF1F9149
:104BA0000F91FF90EF900895CF92DF92EF92FF92D6
:104BB0000F931F93CF93DF93EC016A017B012115C3
:104BC000310541F4E881F9810190F081E02D642FF5
:104BD00009951DC02A303105C9F477FF16C0E88158
:104BE000F9810190F081E02D6DE209958C01442757
:104BF0005527BA014C195D096E097F09CE012AE0DB
:104C000040DF9801280F391F03C02AE03ADF9C01DA
:104C1000C901DF91CF911F910F91FF90EF90DF902D
:104C2000CF900895EF92FF920F931F937B019A010B
:104C30000027F7FC0095102FB801A701B5DF1F91E1
:104C40000F91FF90EF900895CF92DF92EF92FF9235
:104C50000F931F936C017B019A010027F7FC0095CD
:104C6000102FB801A701A0DF8C01C601BCDE080F20
:104C7000191FC8011F910F91FF90EF90DF90CF9007
:104C80000895E3CE08957F928F929F92AF92BF9244
:104C9000CF92DF92EF92FF920F931F93CF93DF9308
:104CA0004C017A018B01722ECB01BA01A801970148
:104CB0006BD7882321F0C40162EA72E01FC0C0E014
:104CC000D0E057016801E894D7F8C601B5012FEF8D
:104CD0003FEF4FE75FE758D7882349F4C601B50196
:104CE0002FEF3FEF4FE75FE7C0D4181614F0C1E095
:104CF000D0E0219731F0C40166EA72E0A6DEEC0153
:104D000084C0C801B7012FEF3FEF4FE75FE477D6CC
:104D100018164CF0C801B7012FEF3FEF4FE75FECDB
:104D2000A4D4882324F4C4016AEA72E0E7CFC8015E
:104D3000B70120E030E040E050E097D487FD03C0A9
:104D4000C0E0D0E00EC0D401ED91FC910190F08163
:104D5000E02DC4016DE20995EC0117FB109517F9E0
:104D6000109520E030E040E05FE3DD240AC0CA0196
:104D7000B90120E030E040E251E47ED49B01AC0177
:104D8000D394D714A0F3C801B701A9D35B016C0178
:104D9000E0D47B018C01C401B801A7012AE030E016
:104DA000D3DEC80FD91F772031F0C4016EEA72E05C
:104DB0004CDEC80FD91FC801B701F7D49B01AC0165
:104DC000C601B5018BD31FC020E030E040E251E4C2
:104DD00021D67B018C01B8D45B016C01CC24B7FCDB
:104DE000C094DC2CC401B601A5012AE030E0DCDE71
:104DF000C80FD91FC601B501DAD49B01AC01C801A7
:104E0000B7016CD37A947720F9F6CE01DF91CF9178
:104E10001F910F91FF90EF90DF90CF90BF90AF90D8
:104E20009F908F907F9008952ECF0895EF92FF92DC
:104E30000F931F937C0127DF8C01C701D4DD080F7E
:104E4000191FC8011F910F91FF90EF900895EF92E5
:104E5000FF920F931F937C01F8DD8C01C701C3DD26
:104E6000080F191FC8011F910F91FF90EF9008952F
:104E70002F923F924F925F926F927F928F929F926A
:104E8000AF92BF92CF92DF92EF92FF920F931F9358
:104E9000DF93CF93CDB7DEB73B014C0119012A0157
:104EA0006D897E898F89988D6A197B098C099D0986
:104EB000621A730A840A950AA40193018BD6E21838
:104EC000F30804091509A8019701ECD62A0D3B1D2A
:104ED0004C1D5D1DB901CA01CF91DF911F910F914A
:104EE000FF90EF90DF90CF90BF90AF909F908F900A
:104EF0007F906F905F904F903F902F900895CF9349
:104F0000DF93E9D00E944018CAECD2E20E942F152C
:104F10002097E1F33FDBFACF1F920F920FB60F926B
:104F200011242F933F938F939F93AF93BF938091BF
:104F3000630790916407A0916507B091660730916F
:104F400067070196A11DB11D232F2D5F2D3720F07E
:104F50002D570196A11DB11D20936707809363070C
:104F600090936407A0936507B093660780915F07ED
:104F700090916007A0916107B09162070196A11D11
:104F8000B11D80935F0790936007A0936107B09372
:104F90006207BF91AF919F918F913F912F910F9099
:104FA0000FBE0F901F9018958FB7F894209163074C
:104FB0003091640740916507509166078FBFB90132
:104FC000CA0108959FB7F89420915F073091600758
:104FD000409161075091620786B5A89B06C08F3F3C
:104FE00021F02F5F3F4F4F4F5F4F9FBF542F432FF5
:104FF000322F2227280F311D411D511D82E0220F23
:10500000331F441F551F8A95D1F7B901CA0108956E
:105010009B01AC017FB7F89480915F079091600786
:10502000A0916107B091620766B5A89B05C06F3F6C
:1050300019F00196A11DB11D7FBFBA2FA92F982F7E
:105040008827860F911DA11DB11D62E0880F991F51
:10505000AA1FBB1F6A95D1F7BC012DC0FFB7F894FA
:1050600080915F0790916007A0916107B0916207FE
:10507000E6B5A89B05C0EF3F19F00196A11DB11D33
:10508000FFBFBA2FA92F982F88278E0F911DA11D22
:10509000B11DE2E0880F991FAA1FBB1FEA95D1F747
:1050A000861B970B885E9340C8F2215030404040E9
:1050B000504068517C4F211531054105510571F66D
:1050C0000895019739F0880F991F880F991F02974B
:1050D0000197F1F70895789484B5826084BD84B512
:1050E000816084BD85B5826085BD85B5816085BDE3
:1050F000EEE6F0E0808181608083E1E8F0E01082FC
:10510000808182608083808181608083E0E8F0E03C
:10511000808181608083E1EBF0E080818460808326
:10512000E0EBF0E0808181608083EAE7F0E080815D
:1051300084608083808182608083808181608083BD
:105140008081806880831092C1000895CF93DF939F
:10515000482F50E0CA0181519F4FFC0134914552C4
:105160005F4FFA018491882369F190E0880F991FBD
:10517000FC01E354FF4FA591B491FC01E953FF4FAB
:10518000C591D491662351F42FB7F8948C91932F45
:10519000909589238C93888189230BC0623061F4B8
:1051A0002FB7F8948C91932F909589238C938881B5
:1051B000832B88832FBF06C09FB7F8948C91832BD5
:1051C0008C939FBFDF91CF910895482F50E0CA0183
:1051D0008D5F9E4FFC012491CA0181519F4FFC01BC
:1051E000949145525F4FFA013491332309F440C042
:1051F000222351F1233071F0243028F42130A1F022
:10520000223011F514C02630B1F02730C1F024301F
:10521000D9F404C0809180008F7703C08091800012
:105220008F7D8093800010C084B58F7702C084B5D5
:105230008F7D84BD09C08091B0008F7703C08091BD
:10524000B0008F7D8093B000E32FF0E0EE0FFF1FE2
:10525000E953FF4FA591B4912FB7F894662321F439
:105260008C919095892302C08C91892B8C932FBFB0
:1052700008950F931F93CF93DF93BC018230910564
:1052800010F462E070E0E0916A07F0916B0740E093
:1052900050E0A0E0B0E024C080819181861797079C
:1052A000D0F08617970771F482819381109729F0C7
:1052B00013969C938E9312972CC090936B078093B8
:1052C0006A0727C04115510519F08417950718F48E
:1052D0008D01AC01EF01DF01828193819C01F90115
:1052E0003097D1F641155105F9F0CA01861B970B8D
:1052F0008430910580F48A819B810115110521F08C
:10530000F8019383828304C090936B0780936A07AC
:10531000FE01329645C0FE01E80FF91F61937193BB
:105320000297998388833CC08091680790916907B0
:10533000892B41F48091CA029091CB029093690726
:10534000809368074091CC025091CD0241155105E0
:1053500041F44DB75EB78091C8029091C902481BD5
:10536000590B209168073091690724173507B0F46D
:10537000CA01821B930B8617970780F0AB014E5F23
:105380005F4F8417950750F0420F531F50936907E2
:1053900040936807F9016193719302C0E0E0F0E087
:1053A000CF01DF91CF911F910F910895CF93DF939C
:1053B0009C01009709F48FC0EC0122971B821A828E
:1053C00060916A0770916B076115710581F488819E
:1053D0009981820F931F20916807309169072817E0
:1053E000390739F5D0936907C093680774C0DB01AA
:1053F00040E050E0AC17BD0708F1BB83AA83FE0173
:1054000021913191E20FF31FAE17BF0779F48D910F
:105410009C911197280F391F2E5F3F4F39832883A6
:1054200012968D919C9113979B838A834115510508
:1054300071F4D0936B07C0936A074DC012968D919B
:105440009C911397AD01009711F0DC01D3CFDA01E5
:105450001396DC93CE931297FA0121913191E20FCA
:10546000F31FCE17DF0769F488819981280F391F50
:105470002E5F3F4FFA01318320838A819B81938382
:105480008283E0E0F0E0DB0112968D919C9113970E
:10549000009719F0BC01FD01F6CFAB014E5F5F4FE5
:1054A000DB018D919C91840F951F209168073091AD
:1054B00069072817390779F4309729F410926B0798
:1054C00010926A0702C013821282425050405093D9
:1054D000690740936807DF91CF9108955058BB2723
:1054E000AA270ED041C201D230F006D220F031F40A
:1054F0009F3F11F41EF4C0C10EF4E095E7FBB6C166
:10550000E92F54D280F3BA1762077307840795070F
:1055100018F071F49EF56CC20EF4E0950B2EBA2FC4
:10552000A02D0B01B90190010C01CA01A0011124A9
:10553000FF27591B99F0593F50F4503E68F11A1655
:10554000F040A22F232F342F4427585FF3CF4695E6
:1055500037952795A795F0405395C9F77EF41F1608
:10556000BA0B620B730B840BBAF09150A1F0FF0FD2
:10557000BB1F661F771F881FC2F70EC0BA0F621FBE
:10558000731F841F48F4879577956795B795F795AE
:105590009E3F08F0B3CF9395880F08F09927EE0F40
:1055A000979587950895A1D158F080E891E009F486
:1055B0009EEFA2D128F040E851E059F45EEF09C017
:1055C0005BC116C2E92FE078F1D168F3092E052AF4
:1055D000C1F3261737074807590738F00E2E07F88A
:1055E000E02569F0E025E0640AC0EF6307F8009465
:1055F00007FADB01B9019D01DC01CA01AD01EF939E
:105600004AD0B2D10AD05F91552331F02BED3FE063
:1056100049E450FD49EC63CF0895DF93DD27B92FAE
:10562000BF7740E85FE31616170648075B0710F4DC
:10563000D92FE9D19F938F937F936F93A2D2E8E6FE
:10564000F0E01DD191D12F913F914F915F91EED11B
:10565000DD2349F09058A2EA2AED3FE049EC5FE3F0
:10566000D0785D274DDFDF917FC1DCD008F481E089
:1056700008954AD1E39589C10CD076C13DD140F05F
:1056800034D130F021F45F3F19F0F0C05111B1C1B5
:10569000F3C08CD198F39923C9F35523B1F3951B2B
:1056A000550BBB27AA2762177307840738F09F5F43
:1056B0005F4F220F331F441FAA1FA9F333D00E2EB2
:1056C0003AF0E0E830D091505040E695001CCAF71F
:1056D00029D0FE2F27D0660F771F881FBB1F2617E4
:1056E00037074807AB07B0E809F0BB0B802DBF01B7
:1056F000FF2793585F4F2AF09E3F510568F0B6C0D0
:1057000078C15F3FECF3983EDCF38695779567951B
:10571000B795F7959F5FC9F7880F911D9695879567
:1057200097F90895E1E0660F771F881FBB1F621786
:1057300073078407BA0720F0621B730B840BBA0B44
:10574000EE1F88F7E095089504D06894B11151C117
:10575000089534D188F09F5790F0B92F9927B75109
:10576000A0F0D1F0660F771F881F991F1AF0BA9525
:10577000C9F712C0B13081F03BD1B1E0089538C112
:10578000672F782F8827B85F39F0B93FCCF386951B
:1057900077956795B395D9F73EF490958095709578
:1057A00061957F4F8F4F9F4F0895E89409C097FBF5
:1057B0003EF490958095709561957F4F8F4F9F4FE8
:1057C0009923A9F0F92F96E9BB279395F69587952C
:1057D00077956795B795F111F8CFFAF4BB0F11F4EF
:1057E00060FF1BC06F5F7F4F8F4F9F4F16C0882396
:1057F00011F096E911C0772321F09EE8872F762FCC
:1058000005C0662371F096E8862F70E060E02AF00C
:105810009A95660F771F881FDAF7880F96958795F8
:1058200097F90895990F0008550FAA0BE0E8FEEFCD
:1058300016161706E807F907C0F012161306E40754
:10584000F50798F0621B730B840B950B39F40A264D
:1058500061F0232B242B252B21F408950A2609F42B
:10586000A140A6958FEF811D811D089597F99F672F
:1058700080E870E060E008959FEF80EC0895DF938A
:10588000CF931F930F93FF92EF92DF927B018C01D6
:10589000689405C0DA2EEF01C9D0FE01E894A59105
:1058A0002591359145915591AEF3EF0129DEFE0129
:1058B0009701A801DA9479F7DF90EF90FF900F91AC
:1058C0001F91CF91DF9108959F938F937F936F9353
:1058D000FF93EF939B01AC019DD0EF91FF91CFDF40
:1058E0002F913F914F915F9195C000240A94161615
:1058F000170618060906089500240A9412161306BE
:10590000140605060895B8CF59D0E8F3E894EFEFF0
:10591000BB273FE048EC5FE76B3D730784079507C3
:1059200008F1FF279F57B25A6A4D7F40894CF040DB
:1059300032F4BE556542704F8643FF4F0894EE1F08
:10594000915030F0BB0F661F771F881FFF1FEBCFF2
:105950009EE7882332F0BB0F661F771F881F9A953A
:10596000C1F79395E09514C1092E0394000C11F42E
:10597000882352F0BB0F40F4BF2B11F460FF04C02A
:105980006F5F7F4F8F4F9F4F0895EF93E0FF06C0EB
:10599000A2EA2AED3FE049EC5FEBB2DDE5DF0F90D4
:1059A000039401FC9058E5E9F0E08ECF57FD905844
:1059B000440F551F59F05F3F71F04795880F97FBD3
:1059C000991F61F09F3F79F087950895121613068D
:1059D0001406551FF2CF4695F1DF08C016161706BC
:1059E0001806991FF1CF86957105610508940895F1
:1059F000E894BB2766277727CB0197F9089512DF34
:105A000008F48FEF08959B01AC0160E070E080E83E
:105A10009FE332CE0BD0A8CF68DF28F06DDF18F0FF
:105A2000952309F023CF28CF1124E3CFBFDFA0F3C4
:105A3000959FD1F3950F50E0551F629FF001729F23
:105A4000BB27F00DB11D639FAA27F00DB11DAA1F42
:105A5000649F6627B00DA11D661F829F2227B00D8F
:105A6000A11D621F739FB00DA11D621F839FA00D1A
:105A7000611D221F749F3327A00D611D231F849F6A
:105A8000600D211D822F762F6A2F11249F575040C1
:105A90008AF0E1F088234AF0EE0FFF1FBB1F661F5C
:105AA000771F881F91505040A9F79E3F510570F015
:105AB000DDCE9FCF5F3FECF3983EDCF38695779584
:105AC0006795B795F795E7959F5FC1F7FE2B880F10
:105AD000911D9695879597F908959F9315DF0F90DF
