:1000000065C000008AC0000088C0000086C00000F3
:1000100084C0000082C0000080C000007EC00000DC
:100020007CC000007AC0000078C0000076C00000EC
:1000300074C0000072C0000070C000006EC00000FC
:100040000C94B30B6AC00000CBC700000C943D08B1
:1000500064C0000062C0000060C000005EC000001C
:10006000E4C500005AC00000000000002400270082
:100070002A0000000000250028002B0000000000DE
:1000800023002600290004040404040404040202DA
:100090000202020203030303030301020408102007
:1000A0004080010204081020010204081020000012
:1000B0000007000201000003040600000000000029
:1000C00000001001AC04A9090B01C30411241FBED8
:1000D000CFEFD8E0DEBFCDBF11E0A0E0B1E0EEE3AE
:1000E000F2E202C005900D92A23DB107D9F713E0EC
:1000F000A2EDB1E001C01D92A93EB107E1F710E009
:10010000C8ECD0E004C02297FE010E940F11C23C4F
:10011000D107C9F70E94A70B01C072CFF8940C94C5
:100120001311FB01DC0101900D920020E1F708950D
:100130000895019709F06EC06F5F7F4F09F06AC0A4
:100140008CED91E06FE971E04AE020D788EB9BE00D
:10015000A0E0B0E080934A0290934B02A0934C023F
:10016000B0934D020E94FB0B6093460270934702CE
:10017000809348029093490285E090E0A0E0B0E0CF
:100180008093560290935702A0935802B09359025D
:100190000E94FB0B609352027093530280935402AF
:1001A0009093550280E090E0A0E8BFE380936A025C
:1001B00090936B02A0936C02B0936D0280936E02D9
:1001C00090936F02A0937002B093710280E090E070
:1001D000A0E0B0E080935A0290935B02A0935C028F
:1001E000B0935D0280935E0290935F02A0936002E1
:1001F000B09361028093620290936302A0936402C1
:10020000B09365028093660290936702A0936802A0
:10021000B0936902089580E090E06FEF7FEF89CF9F
:1002200081E090E06FEF7FEF84CF86E00E943A0D8F
:10023000892B31F481E090E0909341028093400259
:100240000895EF92FF920F931F937C010AEB13E046
:10025000C80160E071E00E94000BC801B7010E9474
:10026000000BC80162E171E00E94020B1F910F9127
:10027000FF90EF900895EF92FF920F931F930AEB78
:1002800013E0C80164E171E00E94020BC8016091B3
:10029000D6014AE050E00E94D30A86E2E82E81E0CF
:1002A000F82EC801B7010E94000BC8016091D70168
:1002B0004AE050E00E94D30AC801B7010E94000B37
:1002C000C8016091D9014AE050E00E94D30AC801F8
:1002D000B7010E94000BC8016091D8014AE050E0CC
:1002E0000E94D30AC801B7010E94000BC8016091A7
:1002F000DA014AE050E00E94D30AC801B7010E9427
:10030000000BC8016091DB014AE050E00E94D30A73
:10031000C801B7010E94000BC8010E94290A1F9161
:100320000F91FF90EF9008950F931F930AEB13E046
:10033000C80168E271E00E94020BC8016091D4011B
:100340004AE050E00E94E40AC8016091D2014AE00C
:1003500050E00E94E40AC8016091D3014AE050E0F5
:100360000E94E40AC8016091D5014AE050E00E9471
:10037000E40A1F910F910895EF92FF920F931F933C
:100380007C0108EB12E0C80165E070E046E050E057
:1003900087D3C801B70146E050E00E943D0B1F9192
:1003A0000F91FF90EF9008958AEB93E065E371E081
:1003B0000E94020B86ED91E0DFDF5DCFEF92FF92AE
:1003C0000F931F937C0108EB12E0C80167E070E017
:1003D00044E050E065D3C801B70144E050E00E941A
:1003E0003D0B1F910F91FF90EF9008956F927F92B8
:1003F0008F929F92AF92BF92CF92DF92EF92FF9235
:100400000F931F930E94FB0B7B018C0160934E02A4
:1004100070934F0280935002909351028091560244
:1004200090915702A0915802B09159022091520226
:10043000309153024091540250915502820F931F04
:10044000A41FB51F8E159F05A007B10708F090C027
:10045000E0925202F092530200935402109355021C
:1004600082ED91E0ABDF86ED91E086DFE0905E0209
:10047000F0905F020091600210916102609166024B
:1004800070916702809168029091690220916E02DA
:1004900030916F0240917002509171020E94C30E20
:1004A0005B016C0120916A0230916B0240916C02F9
:1004B00050916D020E94C30E9B01AC0160E070E0A0
:1004C00080E89FE30E94270FA60195010E944E102D
:1004D0003B014C016091D80170E080E090E00E9407
:1004E000C00FA80197010E94C20E9B01AC01C4017C
:1004F000B3010E944E109B01AC01C801B7010E94DC
:10050000C30E7B018C01CB01D80180935A029093DA
:100510005B02A0935C02B0935D0260E070E080E853
:100520009FE3A40193010E94C20EA60195010E94BF
:100530004E109B01AC012093620230936302409302
:100540006402509365029701A80120935E023093E4
:100550005F024093600250936102AC01CB01DA016B
:100560008093660290936702A0936802B093690239
:100570001F910F91FF90EF90DF90CF90BF90AF90C1
:100580009F908F907F906F900895FF920F931F938D
:10059000F82E08EB12E0C80167E070E0A3D1C801B3
:1005A00060E02FD2C8016F2D2CD2C8016BD21F91F1
:1005B0000F91FF900895FF920F931F93F82E08EB71
:1005C00012E0C80166E070E08DD1C80160E019D288
:1005D00061E06F25C80115D2C80154D21F910F9157
:1005E000FF9008950F931F9386E062E00E94A70C8E
:1005F0008CED91E061E271E0C5D481E090E00E9471
:10060000620C0AEB13E0C80140E855E260E070E0DC
:100610006FD5C8016EE371E0F5D788EB92E042D266
:100620006AE070E080E090E00E94090CC8016BE491
:1006300071E0E8D781E0A9DF68EB7BE080E090E043
:100640000E94090C80E0A1DF82ED91E0B7DE6CDE54
:10065000C80165E671E0D6D786ED91E08DDE0BDE50
:10066000C8016FE771E0CED780E0A5DF68EE73E0E8
:1006700080E090E00E94090C81E09DDFC8016DE8F8
:1006800071E0C0D71F910F910895EF92FF920F93E1
:100690001F930E94FB0B609342027093430280936E
:1006A00044029093450220914A0230914B024091BE
:1006B0004C0250914D02E0904602F09047020091AA
:1006C0004802109149022E0D3F1D401F511F261751
:1006D00037074807590748F485DF81E056DF83E094
:1006E00090E090934102809340021F910F91FF9000
:1006F000EF9008953F924F925F926F927F928F9208
:100700009F92AF92BF92CF92DF92EF92FF920F93A0
:100710001F93DF93CF9300D000D0CDB7DEB76B012E
:100720007C0129833A834B835C83302E6AE070E03E
:1007300080E090E00E94090CB8EB4B2EB2E05B2EFB
:10074000C20166E070E0CED0C20161E05AD100D0B3
:1007500000D00DB71EB70F5F1F4FC701B6010E9433
:100760008F0FAFEF6A2E712C812C912CF8016082D3
:1007700071828282938220E030E040E050E0F7E630
:10078000EF2EF1E0FF2E012D112DAA24BB246501CF
:1007900097D70F900F900F900F90C20132D100D0D9
:1007A00000D00DB71EB70F5F1F4F69817A818B8113
:1007B0009C810E948F0FF8016082718282829382F5
:1007C00020E030E040E050E0E7E6EE2EE1E0FE2EF3
:1007D000012D112D75D70F900F900F900F90C20122
:1007E00010D1C201632D0DD1C2014CD10F900F90D9
:1007F0000F900F90CF91DF911F910F91FF90EF908D
:10080000DF90CF90BF90AF909F908F907F906F9030
:100810005F904F903F9008950F939091D201892F50
:1008200081508E3F38F081E090E0909341028093B8
:10083000400215C0953648F060E070E080EF91E42A
:1008400020E030E04EE353E408C060E070E080EF69
:1008500091E420E030E040EF52E402E84BDF0F91FA
:1008600008950F938091D20181508E3F38F482E039
:1008700090E090934102809340020AC060E070E0F3
:1008800088E492E420E030E04AE753E408EC32DF09
:100890000F9108958091400290914102892B09F0B7
:1008A000A5DD80914002909141028130910569F06F
:1008B000823091051CF4892B39F00895823091051E
:1008C00029F0039729F403C0E0CECBCFA5CFADCC60
:1008D00008950C942A0E0895FC0181EB91E0918318
:1008E0008083089581E08093B70260939402109210
:1008F000B5021092B60208952091930230E08091E3
:100900009202281B3109C9010895409192028091F9
:100910009302481718F02FEF3FEF0AC0E42FF0E0E2
:10092000EE58FD4F8081282F30E04F5F40939202B8
:10093000C9010895E091920280919302E81718F09E
:10094000EFEFFFEF06C0F0E0EE58FD4F8081E82F9B
:10095000F0E0CF01089508951092BB021092BA0200
:1009600088EE93E0A0E0B0E08093BC029093BD02DB
:10097000A093BE02B093BF0281EB91E09093B902C5
:100980008093B802089581EB91E09093B90280932F
:10099000B8020895FC0181EB91E091838083CF013F
:1009A00098CFCF92DF92EF92FF920F931F93CF9346
:1009B000DF937C016B018A018091B7028823A1F04B
:1009C000C0E0D0E00DC0D701ED91FC91D601AC0F95
:1009D000BD1F0190F081E02DC7016C910995219612
:1009E000C017D10780F303C0CB01642F03D1C80126
:1009F000DF91CF911F910F91FF90EF90DF90CF90FB
:100A00000895DF93CF930F92CDB7DEB7FC016983D2
:100A10008091B7028823C9F08091B602803238F005
:100A200081E090E09383828320E030E014C08091E5
:100A3000B502E82FF0E0EB56FD4F998190838F5F70
:100A40008093B5028093B60204C0CE01019661E0A6
:100A5000D1D021E030E0C9010F90CF91DF9108950E
:100A60000F93062F8091940265E972E04091B602DF
:100A700021E06AD01092B5021092B6021092B7022D
:100A80000F91089561E0ECCF413208F040E2862FEB
:100A900062E772E010D01092920280939302089560
:100AA00021E0F2CF10929202109293021092B502BE
:100AB0001092B6024BC2382F413210F040E042C0D3
:100AC0008091E9028823E1F791E09093E902209375
:100AD000E7028FEF8093EA021092C50241504093E3
:100AE000C6024F5F9093C4028091C402330F832BE0
:100AF0008093C4028091E802813041F41092E802B0
:100B00008091C4028093BB0085EC01C085EE809388
:100B1000BC008091E9028130E1F38091C502841725
:100B200010F44091C50220E030E00AC0FB01E20F62
:100B3000F31FD901A953BD4F8C9180832F5F3F4F85
:100B40002417A0F3842F08950F931F93582F122F6B
:100B5000413210F081E045C08091E9028823E1F73D
:100B600082E08093E9020093E7028FEF8093EA022C
:100B70001092C5024093C602A7ECB2E0FB0102C08E
:100B800081918D938E2F861B8417D0F31092C4020F
:100B90008091C402550F852B8093C4028091E80296
:100BA000813041F41092E8028091C4028093BB002E
:100BB00085EC01C085EE8093BC001123A9F08091E3
:100BC000E902823089F4FBCF8091EA02803211F48D
:100BD00082E007C08091EA02803311F084E001C016
:100BE00083E01F910F9108958091EA028F3F61F792
:100BF00080E0F7CF482F613210F081E008958091B6
:100C0000E902843011F082E0089560930F03A2E1BD
:100C1000B3E0842F9C01F90102C081918D938E2F46
:100C2000841B8617D0F380E008951F920F920FB6B1
:100C30000F9211242F933F934F935F936F937F9362
:100C40008F939F93AF93BF93EF93FF938091B900DE
:100C500090E0887F90708036910509F4F2C081366B
:100C60009105CCF58832910509F47BC08932910554
:100C7000B4F48031910509F46FC0813191053CF4E1
:100C8000009709F447C1089709F04FC165C0883142
:100C9000910509F466C0809709F047C182C080348D
:100CA000910509F4A4C08134910544F48033910581
:100CB00009F482C0C89709F038C189C08035910510
:100CC00009F489C08835910509F496C088349105E6
:100CD00009F02BC1AEC08839910509F413C18939D7
:100CE0009105ECF48837910509F4ABC0893791057B
:100CF0004CF48836910509F4A4C08037910509F0B9
:100D000014C19FC08838910509F4FCC08039910551
:100D100009F49DC08038910509F007C198C0803B57
:100D2000910509F4C6C0813B91054CF4803A9105C8
:100D300009F49FC0883A910509F0F7C0BAC0803C19
:100D4000910509F4E3C0883C910509F4DFC0883BB4
:100D5000910509F0EAC0C2C08091C4028093BB0033
:100D6000CFC09091C5028091C602981768F4909107
:100D7000C502E92FF0E0E953FD4F80818093BB006D
:100D80009F5F9093C502BCC08091E702882309F45D
:100D90004BC085ED8093BC008091BC0084FDFCCFEE
:100DA000C2C080E28093EA0285ED8093BC0080910E
:100DB000BC0084FDFCCFB7C080E38093EA0285EDE0
:100DC0008093BC008091BC0084FDFCCFACC088E364
:100DD0008093EA029BC08091C5029091BB00E82FEE
:100DE000F0E0E953FD4F90838F5F8093C5029091AF
:100DF000C5028091C60282C08091C5029091BB005D
:100E0000E82FF0E0E953FD4F90838F5F8093C50298
:100E10008091E702882341F085ED8093BC008091AA
:100E2000BC0084FDFCCF7FC081E08093E80284EAAF
:100E30006EC085ED8093BC008091BC0084FDFCCF2A
:100E400072C083E08093E9021092EB0259C0809156
:100E5000EB02803208F056C08091EB029091BB000B
:100E6000E82FF0E0E451FD4F90838F5F8093EB0219
:100E700047C08091EB02803230F4E091EB02F0E069
:100E8000E451FD4F108285ED8093BC008091BC0041
:100E900084FDFCCF1092E9026091EB02E0910C031B
:100EA000F0910D038CEE92E070E009951092EB0248
:100EB0002DC084E08093E90210920E0310920F037C
:100EC000E0911003F0911103099580910F0388239D
:100ED00029F481E080930F031092120390910E0386
:100EE000E92FF0E0EE5EFC4F80818093BB009F5FB6
:100EF00090930E0390910E0380910F03981710F4B6
:100F000085EC01C085E88093BC000FC085EC809320
:100F1000BC0009C01092EA0285ED8093BC0080916C
:100F2000BC0084FDFCCF1092E902FF91EF91BF91CC
:100F3000AF919F918F917F916F915F914F913F9171
:100F40002F910F900FBE0F901F9018951092E902ED
:100F500081E08093E7021092E80282E161E036D5F9
:100F600083E161E033D5E9EBF0E080818E7F80831F
:100F700080818D7F808388E48093B80085E48093AE
:100F8000BC000895FC017483638308950F931F933D
:100F90008C01FC0171836083128214821382478367
:100FA000065B1F4FF801118210820A541040C801DD
:100FB00005966DE971E0B5D8F8011086075B1F4F03
:100FC000F80110820D5F1F4FF801118210820A5E36
:100FD0001F4FF801118210821F910F9108950895FB
:100FE0001F920F920FB60F9211242F933F934F939E
:100FF0008F939F93EF93FF938091C00082FD1DC05C
:101000004091C60020917203309173032F5F3F4FD0
:101010002F733070809174039091750328173907EE
:1010200071F0E0917203F0917303EE5CFC4F40832A
:10103000309373032093720302C08091C600FF9126
:10104000EF919F918F914F913F912F910F900FBEF4
:101050000F901F901895E091C603F091C703E05CD4
:10106000FF4F8191919120813181821B930B8F736E
:101070009070892B09F0B3CF08951F920F920FB68D
:101080000F9211242F933F938F939F93EF93FF938E
:101090002091B6033091B7038091B8039091B903C2
:1010A0002817390731F48091C1008F7D8093C100EA
:1010B00014C0E091B803F091B903EA58FC4F2081C5
:1010C0008091B8039091B90301968F7390709093BB
:1010D000B9038093B8032093C600FF91EF919F91CD
:1010E0008F913F912F910F900FBE0F901F901895E9
:1010F000AF92BF92DF92EF92FF920F931F93CF9325
:10110000DF93EC017A018B01DD24403081EE58073A
:1011100080E0680780E0780711F0DD24D39491E047
:10112000A92EB12CEC89FD89DD2069F0C50108A04C
:1011300002C0880F991F0A94E2F7808360E079E08B
:101140008DE390E005C0108260E874E88EE190E0E5
:10115000A80197010E94D0102150304040405040DB
:10116000569547953795279580E12030380720F030
:10117000DD2011F0DD24D6CFE889F9893083EA89B2
:10118000FB89208319A2EE89FF89408121E030E0AC
:10119000C9010C8C02C0880F991F0A94E2F7482BF2
:1011A0004083EE89FF894081C9010D8C02C0880F00
:1011B000991F0A94E2F7482B4083EE89FF8940810A
:1011C000C9010E8C02C0880F991F0A94E2F7482BC0
:1011D0004083EE89FF8980810F8C02C0220F331F6C
:1011E0000A94E2F7209528232083DF91CF911F9165
:1011F0000F91FF90EF90DF90BF90AF900895DC01CA
:101200001C96ED91FC911D97E05CFF4F219131916F
:1012100080819181281B390B2F733070C90108958B
:10122000DC011C96ED91FC911D97E05CFF4F208145
:101230003181E054F040DF01AE5BBF4F8D919C9156
:1012400011972817390719F42FEF3FEF07C08D9139
:101250009C91E80FF91F8081282F30E0C901089583
:10126000DC011C96ED91FC911D97E05CFF4F208105
:101270003181E054F040DF01AE5BBF4F8D919C9116
:1012800011972817390719F42FEF3FEF10C08D91F0
:101290009C911197E80FF91F20818D919C911197D6
:1012A00001968F73907011969C938E9330E0C901D4
:1012B0000895DC0191968C919197882339F054968A
:1012C000ED91FC915597808186FFF9CF91961C9204
:1012D0000895CF93DF93EC01EE85FF85E05CFF4F2F
:1012E00020813181E054F0402F5F3F4F2F733070E9
:1012F000DF01AE5BBF4F8D919C9111972817390785
:10130000D1F3E05CFF4F80819181E054F040E80F21
:10131000F91F6083EE85FF85E05CFF4F31832083FA
:10132000EE89FF89208181E090E00F8C02C0880F58
:10133000991F0A94E2F7282B208381E089A3EC8986
:10134000FD8980818064808381E090E0DF91CF918E
:1013500008951092BD031092BC0388EE93E0A0E0C4
:10136000B0E08093BE039093BF03A093C003B093FB
:10137000C10385EC91E09093BB038093BA0382E3B1
:1013800093E09093C7038093C60386E793E090931E
:10139000C9038093C80385EC90E09093CB038093BE
:1013A000CA0384EC90E09093CD038093CC0380EC4F
:1013B00090E09093CF038093CE0381EC90E09093E4
:1013C000D1038093D00382EC90E09093D303809379
:1013D000D20386EC90E09093D5038093D40384E00D
:1013E0008093D60383E08093D70387E08093D8036C
:1013F00085E08093D90381E08093DA030895CF924A
:10140000DF92EF92FF920F931F93CF93DF937C01B4
:101410006B018A01C0E0D0E00FC0D6016D916D0173
:10142000D701ED91FC910190F081E02DC701099564
:10143000C80FD91F015010400115110571F7CE01D9
:10144000DF91CF911F910F91FF90EF90DF90CF90A0
:101450000895EF92FF920F931F938C01DC01ED91A1
:10146000FC910190F081E02D6DE009957C01D8019F
:10147000ED91FC910190F081E02DC8016AE00995A1
:101480009C012E0D3F1DC9011F910F91FF90EF9000
:101490000895CF93DF93EC016115710519F420E0F5
:1014A00030E00FC0DB010D900020E9F71197A61B7B
:1014B000B70BE881F9810280F381E02DAD01099538
:1014C0009C01C901DF91CF9108954F925F927F9265
:1014D0008F929F92AF92BF92CF92DF92EF92FF9244
:1014E0000F931F93DF93CF93CDB7DEB7A1970FB6BE
:1014F000F894DEBF0FBECDBF2C01742ECB0122307D
:1015000008F42AE019A231E2C32ED12CCC0EDD1E44
:10151000822E9924AA24BB24672D752FA50194013E
:101520003FD679018A01C801B701A501940119D6F6
:10153000472D461B0894C108D1084A3014F4405D79
:1015400001C0495CF6014083E114F1040105110575
:1015500021F07E2C5F2DC801DFCFC201B60199DFDB
:10156000A1960FB6F894DEBF0FBECDBFCF91DF912D
:101570001F910F91FF90EF90DF90CF90BF90AF90B1
:101580009F908F907F905F904F900895DC01211580
:10159000310541F4ED91FC910190F081E02D642F33
:1015A0000995089592CFEF92FF920F931F939A019E
:1015B000E62EFF2400E010E0B801A701E7DF1F914D
:1015C0000F91FF90EF900895CF92DF92EF92FF92EC
:1015D0000F931F936C01E62E9A01FF2400E010E0A8
:1015E000B801A701D3DF8C01C60133DF080F191F33
:1015F000C8011F910F91FF90EF90DF90CF90089559
:1016000048CF0895EF92FF920F931F937C0141DF23
:101610008C01C7011EDF080F191FC8011F910F9110
:10162000FF90EF900895CF93DF93EC01E4D06887AB
:1016300079878A879B87E881F9810680F781E02D89
:10164000CE0109959C0197FF14C0D5D02885398516
:101650004A855B85621B730B840B950B2C813D8146
:101660004E815F81621773078407950720F32FEF80
:101670003FEFC901DF91CF910895CF92DF92EF92B2
:10168000FF920F931F93CF93DF936C018B017A012D
:10169000C0E0D0E008C0C601C6DF97FD07C0F80172
:1016A00081938F012196CE15DF05A8F3CE01DF913E
:1016B000CF911F910F91FF90EF90DF90CF90089501
:1016C0002F923F924F925F926F927F928F929F9252
:1016D000AF92BF92CF92DF92EF92FF920F931F9340
:1016E000DF93CF93CDB7DEB73B014C0119012A013F
:1016F0006D897E898F89988D6A197B098C099D096E
:10170000621A730A840A950AA40193012AD5E21881
:10171000F30804091509A801970164D52A0D3B1D9A
:101720004C1D5D1DB901CA01CF91DF911F910F9131
:10173000FF90EF90DF90CF90BF90AF909F908F90F1
:101740007F906F905F904F903F902F900895CF9330
:10175000DF93C2D00E949800CBE2D8E09BD82097BC
:10176000E9F379DCFBCF1F920F920FB60F92112491
:101770002F933F938F939F93AF93BF938091E003F9
:101780009091E103A091E203B091E3033091E4036F
:101790000196A11DB11D232F2D5F2D3720F02D5750
:1017A0000196A11DB11D2093E4038093E003909363
:1017B000E103A093E203B093E3038091DC039091F3
:1017C000DD03A091DE03B091DF030196A11DB11DE1
:1017D0008093DC039093DD03A093DE03B093DF03DB
:1017E000BF91AF919F918F913F912F910F900FBE1D
:1017F0000F901F9018958FB7F8942091E0033091C7
:10180000E1034091E2035091E3038FBFB901CA01A4
:1018100008959B01AC017FB7F8948091DC0390910F
:10182000DD03A091DE03B091DF0366B5A89B05C080
:101830006F3F19F00196A11DB11D7FBFBA2FA92FCF
:10184000982F8827860F911DA11DB11D62E0880F7A
:10185000991FAA1FBB1F6A95D1F7BC012DC0FFB706
:10186000F8948091DC039091DD03A091DE03B091A8
:10187000DF03E6B5A89B05C0EF3F19F00196A11D57
:10188000B11DFFBFBA2FA92F982F88278E0F911D4A
:10189000A11DB11DE2E0880F991FAA1FBB1FEA9589
:1018A000D1F7861B970B885E9340C8F221503040D9
:1018B0004040504068517C4F21153105410551058C
:1018C00071F60895019739F0880F991F880F991FB5
:1018D00002970197F1F70895789484B5826084BDEA
:1018E00084B5816084BD85B5826085BD85B5816024
:1018F00085BDEEE6F0E0808181608083E1E8F0E084
:101900001082808182608083808181608083E0E8B2
:10191000F0E0808181608083E1EBF0E08081846091
:101920008083E0EBF0E0808181608083EAE7F0E093
:1019300080818460808380818260808380818160F7
:1019400080838081806880831092C1000895CF9346
:10195000DF93482F50E0CA0186569F4FFC01349117
:101960004A575F4FFA018491882369F190E0880F0C
:10197000991FFC01E859FF4FA591B491FC01EE5865
:10198000FF4FC591D491662351F42FB7F8948C91F1
:10199000932F909589238C93888189230BC0623083
:1019A00061F42FB7F8948C91932F909589238C93A1
:1019B0008881832B88832FBF06C09FB7F8948C91B2
:1019C000832B8C939FBFDF91CF910895482F50E0D8
:1019D000CA0182559F4FFC012491CA0186569F4F30
:1019E000FC0194914A575F4FFA013491332309F473
:1019F00040C0222351F1233071F0243028F42130EB
:101A0000A1F0223011F514C02630B1F02730C1F01A
:101A10002430D9F404C0809180008F7703C0809176
:101A200080008F7D8093800010C084B58F7702C0C6
:101A300084B58F7D84BD09C08091B0008F7703C0CD
:101A40008091B0008F7D8093B000E32FF0E0EE0F27
:101A5000FF1FEE58FF4FA591B4912FB7F89466235E
:101A600021F48C919095892302C08C91892B8C93C1
:101A70002FBF0895682F70E0CB0182559F4FFC0166
:101A80002491CB0186569F4FFC0144916A577F4FAA
:101A9000FB019491992319F420E030E03CC022230B
:101AA00051F1233071F0243028F42130A1F022309C
:101AB00011F514C02630B1F02730C1F02430D9F42C
:101AC00004C0809180008F7703C0809180008F7D5B
:101AD0008093800010C084B58F7702C084B58F7D5D
:101AE00084BD09C08091B0008F7703C08091B000A1
:101AF0008F7D8093B000892F90E0880F991F8458C4
:101B00009F4FFC01A591B4918C9120E030E084239B
:101B100011F021E030E0C90108950F931F93CF9396
:101B2000DF93BC018230910510F462E070E0E09137
:101B3000E703F091E80340E050E0A0E0B0E024C00B
:101B40008081918186179707D0F08617970771F4E7
:101B500082819381109729F013969C938E9312970C
:101B60002CC09093E8038093E70327C041155105EB
:101B700019F08417950718F48D01AC01EF01DF010E
:101B8000828193819C01F9013097D1F6411551056D
:101B9000F9F0CA01861B970B8430910580F48A8185
:101BA0009B810115110521F0F8019383828304C004
:101BB0009093E8038093E703FE01329645C0FE014F
:101BC000E80FF91F619371930297998388833CC052
:101BD0008091E5039091E603892B41F48091A9015E
:101BE0009091AA019093E6038093E5034091AB01A5
:101BF0005091AC014115510541F44DB75EB780914C
:101C0000A7019091A801481B590B2091E503309141
:101C1000E60324173507B0F4CA01821B930B86171D
:101C2000970780F0AB014E5F5F4F8417950750F028
:101C3000420F531F5093E6034093E503F90161936C
:101C4000719302C0E0E0F0E0CF01DF91CF911F91EE
:101C50000F910895CF93DF939C01009709F48FC0F3
:101C6000EC0122971B821A826091E7037091E803CE
:101C70006115710581F488819981820F931F2091EC
:101C8000E5033091E6032817390739F5D093E603C9
:101C9000C093E50374C0DB0140E050E0AC17BD0722
:101CA00008F1BB83AA83FE0121913191E20FF31F5A
:101CB000AE17BF0779F48D919C911197280F391FAA
:101CC0002E5F3F4F3983288312968D919C911397F5
:101CD0009B838A834115510571F4D093E803C09327
:101CE000E7034DC012968D919C911397AD0100971B
:101CF00011F0DC01D3CFDA011396DC93CE93129767
:101D0000FA0121913191E20FF31FCE17DF0769F439
:101D100088819981280F391F2E5F3F4FFA01318347
:101D200020838A819B8193838283E0E0F0E0DB0162
:101D300012968D919C911397009719F0BC01FD01AB
:101D4000F6CFAB014E5F5F4FDB018D919C91840F0D
:101D5000951F2091E5033091E6032817390779F4A0
:101D6000309729F41092E8031092E70302C013821F
:101D70001282425050405093E6034093E503DF91B6
:101D8000CF9108955058BB27AA270ED04DC13ED100
:101D900030F043D120F031F49F3F11F41EF433C1F1
:101DA0000EF4E095E7FB29C1E92F4FD180F3BA1774
:101DB000620773078407950718F071F49EF567C1F1
:101DC0000EF4E0950B2EBA2FA02D0B01B901900156
:101DD0000C01CA01A0011124FF27591B99F0593F9A
:101DE00050F4503E68F11A16F040A22F232F342FE2
:101DF0004427585FF3CF469537952795A795F04030
:101E00005395C9F77EF41F16BA0B620B730B840B44
:101E1000BAF09150A1F0FF0FBB1F661F771F881FFC
:101E2000C2F70EC0BA0F621F731F841F48F4879554
:101E300077956795B795F7959E3F08F0B3CF939543
:101E4000880F08F09927EE0F9795879508950CD085
:101E5000EBC0E3D040F0DAD030F021F45F3F19F06E
:101E6000CCC0511115C1CFC0F0D098F39923C9F35C
:101E70005523B1F3951B550BBB27AA276217730790
:101E8000840738F09F5F5F4F220F331F441FAA1F44
:101E9000A9F333D00E2E3AF0E0E830D09150504004
:101EA000E695001CCAF729D0FE2F27D0660F771FB2
:101EB000881FBB1F261737074807AB07B0E809F094
:101EC000BB0B802DBF01FF2793585F4F2AF09E3F29
:101ED000510568F092C0DCC05F3FECF3983EDCF344
:101EE000869577956795B795F7959F5FC9F7880FA2
:101EF000911D9695879597F90895E1E0660F771FF4
:101F0000881FBB1F621773078407BA0720F0621B84
:101F1000730B840BBA0BEE1F88F7E095089504D07D
:101F20006894B111B5C0089598D088F09F5790F08B
:101F3000B92F9927B751A0F0D1F0660F771F881FEE
:101F4000991F1AF0BA95C9F712C0B13081F09FD02D
:101F5000B1E008959CC0672F782F8827B85F39F0CB
:101F6000B93FCCF3869577956795B395D9F73EF44D
:101F700090958095709561957F4F8F4F9F4F0895F5
:101F8000E89409C097FB3EF4909580957095619513
:101F90007F4F8F4F9F4F9923A9F0F92F96E9BB27C9
:101FA0009395F695879577956795B795F111F8CF45
:101FB000FAF4BB0F11F460FF1BC06F5F7F4F8F4FB0
:101FC0009F4F16C0882311F096E911C0772321F0A6
:101FD0009EE8872F762F05C0662371F096E8862F3E
:101FE00070E060E02AF09A95660F771F881FDAF795
:101FF000880F9695879597F9089597F99F6780E8D8
:1020000070E060E008959FEF80EC089500240A944A
:102010001616170618060906089500240A941216C3
:102020001306140605060895092E0394000C11F4F6
:10203000882352F0BB0F40F4BF2B11F460FF04C0A3
:102040006F5F7F4F8F4F9F4F089557FD9058440FFC
:10205000551F59F05F3F71F04795880F97FB991F07
:1020600061F09F3F79F087950895121613061406C4
:10207000551FF2CF4695F1DF08C016161706180651
:10208000991FF1CF86957105610508940895E8942C
:10209000BB2766277727CB0197F908950BD0C4CFCC
:1020A000B5DF28F0BADF18F0952309F0A6CFABCF43
:1020B0001124EECFCADFA0F3959FD1F3950F50E026
:1020C000551F629FF001729FBB27F00DB11D639FEA
:1020D000AA27F00DB11DAA1F649F6627B00DA11D90
:1020E000661F829F2227B00DA11D621F739FB00D36
:1020F000A11D621F839FA00D611D221F749F3327A6
:10210000A00D611D231F849F600D211D822F762F3E
:102110006A2F11249F5750408AF0E1F088234AF03B
:10212000EE0FFF1FBB1F661F771F881F9150504087
:10213000A9F79E3F510570F060CFAACF5F3FECF347
:10214000983EDCF3869577956795B795F795E79573
:102150009F5FC1F7FE2B880F911D9695879597F984
:102160000895629FD001739FF001829FE00DF11DE1
:10217000649FE00DF11D929FF00D839FF00D749F01
:10218000F00D659FF00D9927729FB00DE11DF91FAD
:10219000639FB00DE11DF91FBD01CF01112408950A
:1021A000A1E21A2EAA1BBB1BFD010DC0AA1FBB1F5B
:1021B000EE1FFF1FA217B307E407F50720F0A21BCD
:1021C000B30BE40BF50B661F771F881F991F1A943A
:1021D00069F760957095809590959B01AC01BD0164
:1021E000CF01089597FB092E05260ED057FD04D088
:1021F000D7DF0AD0001C38F45095409530952195D2
:102200003F4F4F4F5F4F0895F6F79095809570952B
:1022100061957F4F8F4F9F4F0895EE0FFF1F0590E1
:10222000F491E02D099410E0C8ECD0E003C0FE0169
:0E223000F6DF2296CC3CD107D1F7F894FFCF11
:10223E00556E6B6E6F776E20636F6D6D616E642081
:10224E00270027004C6F63616C697A6174696F6E49
:10225E0020496E666F002000496D6167696E6720C8
:10226E00496E666F005445535420494D5500496ED2
:10227E00697469616C697A65642E00496E69746966
:10228E00616C697A696E6720696D6167696E672036
:10229E00756E697400496E697469616C697A696EEC
:1022AE0067206C6F63616C697A6174696F6E00414F
:1022BE00726D696E67204D6F746F727300496E692F
:1022CE007420636F6D706C65746500690020009BEF
:1022DE0001D401000000008000E9030000000000AE
:1022EE00000105D1047C0485049A04AB046C04CA75
:1022FE0004000000006909FF09FF083009100959A0
:02230E000900C4
:00000001FF
