:1000000064C000008AC0000088C0000086C00000F4
:1000100084C0000082C0000080C000007EC00000DC
:100020007CC000007AC0000078C0000076C00000EC
:1000300074C0000072C0000070C000006EC00000FC
:100040000C94FB146AC000000C945F100C94AC106C
:1000500064C0000062C0000060C000005EC000001C
:100060000C94B10E5AC000000000000024002700CC
:100070002A0000000000250028002B0000000000DE
:1000800023002600290004040404040404040202DA
:100090000202020203030303030301020408102007
:1000A0004080010204081020010204081020000012
:1000B0000007000201000003040600000000000029
:1000C0000000F007480D17125F0D11241FBECFEF7F
:1000D000D8E0DEBFCDBF14E0A0E0B1E0E2E9F1E39B
:1000E00002C005900D92A634B107D9F715E0A6E439
:1000F000B4E001C01D92AF3DB107E1F710E0C8ECDC
:10010000D0E004C02297FE010E94B918C23CD1077A
:10011000C9F70E94EE140C94BD1872CFEF92FF92B3
:100120000F931F937B018C0120E030E040E05FE4FF
:100130008CD388237CF0C801B70120E030E040E098
:100140005FE460D18ED49B01AC0120503040404030
:10015000504805C0C801B70184D49B01AC01B90166
:10016000CA011F910F91FF90EF900895A0E0B0E0B9
:10017000ECEBF0E00C948018DC012B01FA019C916F
:10018000923008F439C1EB018881823008F433C120
:10019000943069F4843009F02FC111969C91119725
:1001A0008981981709F428C1A5E0B3E025C18430FE
:1001B00009F421C18230A9F4923009F01DC19A01DD
:1001C000AD0188E0EA010990AE01E90109929E01C2
:1001D0008150C1F7E201898111969C918923818325
:1001E00008C1923009F407C112962D903C901397E4
:1001F000EB018A819B811496AD90BD90CD90DC90EF
:100200001797EC80FD800E811F819101281B390B0F
:10021000B90137FF04C066277727621B730B603272
:1002200071050CF061C0121613066CF53701480118
:10023000062E04C096948794779467940A94D2F714
:1002400021E030E040E050E004C0220F331F441FA3
:10025000551F6A95D2F721503040404050402E2122
:100260003F2140235123211531054105510521F03E
:1002700021E030E040E050E079018A01E628F728EB
:10028000082919293CC0232BD1F1260E371E350130
:100290004601062E04C096948794779467940A9436
:1002A000D2F721E030E040E050E004C0220F331FDD
:1002B000441F551F6A95D2F72150304040405040AE
:1002C0002A213B214C215D21211531054105510594
:1002D00021F021E030E040E050E059016A01A62819
:1002E000B728C828D9280BC0821593052CF01C010B
:1002F000AA24BB24650103C0EE24FF2487011196C4
:100300009C91D20111968C91981709F445C09923BC
:1003100039F0A80197012A193B094C095D0906C06B
:10032000A60195012E193F09400B510B57FD08C03E
:1003300011823382228224833583468357831DC0F2
:1003400081E081833382228288279927DC01821B06
:10035000930BA40BB50B84839583A683B7830DC041
:10036000220F331F441F551F248335834683578331
:100370008281938101979383828324813581468191
:100380005781DA01C9010197A109B1098F5F9F4F18
:10039000AF4FBF4328F30BC0918333822282EA0C14
:1003A000FB1C0C1D1D1DE482F5820683178383E070
:1003B0008083248135814681578157FF1AC0C90146
:1003C000AA2797FDA095BA2F81709070A070B07089
:1003D0005695479537952795822B932BA42BB52BB4
:1003E00084839583A683B7838281938101969383C7
:1003F0008283DF0101C0D201CD01CDB7DEB7E2E1DA
:100400000C949C18A0E2B0E0E8E0F2E00C948C18A8
:1004100069837A838B839C832D833E834F835887A4
:10042000E9E0EE2EF12CEC0EFD1ECE010196B70197
:1004300006D58E010F5E1F4FCE010596B801FFD481
:100440008A8991E089278A8BC701B801AE01475E8E
:100450005F4F8CDE1FD4A096E6E00C94A818A0E2B3
:10046000B0E0E5E3F2E00C948C1869837A838B8327
:100470009C832D833E834F835887F9E0EF2EF12C28
:10048000EC0EFD1ECE010196B701D9D48E010F5E90
:100490001F4FCE010596B801D2D4C701B801AE01F5
:1004A000475E5F4F63DEF6D3A096E6E00C94A81893
:1004B000A0E2B0E0EEE5F2E00C94801869837A8364
:1004C0008B839C832D833E834F835887CE01019677
:1004D000BE01675F7F4FB3D4CE010596BE016F5E4C
:1004E0007F4FADD49985923088F089898230C8F0E9
:1004F000943019F4823051F404C0843029F49230DD
:1005000081F485E093E0C6C0923049F420E09A85FA
:100510008A89981321E02A87CE010996BBC08230D0
:1005200049F420E09A858A89981321E02A8BCE012C
:100530004196B0C02D843E844F8458886D887E8853
:100540008F88988CEE24FF248701AA24BB246501A0
:1005500040E050E060E070E0E0E0F0E0C101817078
:100560009070892BE9F0E60CF71C081D191D9A0103
:10057000AB012A0D3B1D4C1D5D1D80E090E0A0E00D
:10058000B0E0E614F7040805190520F481E090E0D6
:10059000A0E0B0E0BA01A901480F591F6A1F7B1FF4
:1005A000AA0CBB1CCC1CDD1C97FE08C081E090E0AF
:1005B000A0E0B0E0A82AB92ACA2ADB2A3196E032A4
:1005C000F10549F0660C771C881C991C56944794D9
:1005D00037942794C3CFFA85EA892B893C898B8588
:1005E0009C85280F391F2E5F3F4F17C0CA018170AD
:1005F0009070892B61F016950795F794E79480E049
:1006000090E0A0E0B0E8E82AF92A0A2B1B2B7695A7
:100610006795579547952F5F3F4F77FDE7CF0CC004
:10062000440F551F661F771F17FD4160EE0CFF1C1E
:10063000001F111F21503040403090E0590790E0DA
:10064000690790E4790760F32B8F3C8FDB01CA01C7
:100650008F779070A070B07080349105A105B105BE
:1006600061F447FD0AC0E114F1040105110529F008
:10067000405C5F4F6F4F7F4F40781A8EFE1711F02E
:1006800081E08A8F4D8F5E8F6F8F78A383E0898F93
:10069000CE014996FFD2A096E2E10C949C18A8E105
:1006A000B0E0E5E5F3E00C94881869837A838B83E6
:1006B0009C832D833E834F835887B9E0EB2EF12C2A
:1006C000EC0EFD1ECE010196B701B9D38E010F5E6F
:1006D0001F4FCE010596B801B2D32985223008F408
:1006E0007EC03989323010F4B8017CC08A859A897D
:1006F00089278A87243011F0223031F4231709F03A
:100700006EC065E073E06EC0343039F41D861E861D
:100710001F86188A1C861B8604C0323021F484E0B0
:100720008987B7015FC02B853C858B899C89281BF5
:10073000390B3C872B87ED84FE840F851889AD88A3
:10074000BE88CF88D88CEA14FB040C051D0540F444
:10075000EE0CFF1C001F111F215030403C872B87DF
:1007600020E030E040E050E080E090E0A0E0B0E445
:1007700060E070E0EA14FB040C051D0540F0282B36
:10078000392B4A2B5B2BEA18FB080C091D09B6957F
:10079000A79597958795EE0CFF1C001F111F6F5FA3
:1007A0007F4F6F31710531F7DA01C9018F77907092
:1007B000A070B07080349105A105B10561F427FDEA
:1007C0000AC0E114F1040105110529F0205C3F4F36
:1007D0004F4F5F4F20782D873E874F87588BBE0144
:1007E000675F7F4FCB0156D26896EAE00C94A4185D
:1007F000A8E1B0E0EEEFF3E00C948C1869837A8303
:100800008B839C832D833E834F83588789E0E82E1A
:10081000F12CEC0EFD1ECE010196B70110D38E0116
:100820000F5E1F4FCE010596B80109D3898582302E
:1008300038F08989823020F0C701B80178D301C02F
:100840008FEF6896E6E00C94A818A8E1B0E0EBE220
:10085000F4E00C948C1869837A838B839C832D83BA
:100860003E834F83588789E0E82EF12CEC0EFD1E65
:10087000CE010196B701E3D28E010F5E1F4FCE016C
:100880000596B801DCD28985823038F089898230BA
:1008900020F0C701B8014BD301C08FEF6896E6E0A6
:1008A0000C94A818A8E1B0E0E8E5F4E00C948C18EA
:1008B00069837A838B839C832D833E834F83588700
:1008C00089E0E82EF12CEC0EFD1ECE010196B70159
:1008D000B6D28E010F5E1F4FCE010596B801AFD282
:1008E0008985823038F08989823020F0C701B801CB
:1008F0001ED301C081E06896E6E00C94A818A8E138
:10090000B0E0E5E8F4E00C948C1869837A838B837B
:100910009C832D833E834F83588789E0E82EF12CFA
:10092000EC0EFD1ECE010196B70189D28E010F5E3D
:100930001F4FCE010596B80182D28985823038F0EA
:100940008989823020F0C701B801F1D201C081E06D
:100950006896E6E00C94A818A8E1B0E0E2EBF4E0B9
:100960000C94901869837A838B839C832D833E83B8
:100970004F835887CE010196BE01675F7F4F5FD2DC
:10098000CE010596BE016F5E7F4F59D289858230B8
:1009900028F020E030E08989823010F421E030E056
:1009A000822F6896E2E00C94AC18A8E0B0E0EBED82
:1009B000F4E00C9489189B01AC0183E08983DA018F
:1009C000C9018827B7FD83959927AA27BB27B82E89
:1009D000211531054105510519F482E0898339C09B
:1009E0008823A9F0203080E0380780E0480780E8BD
:1009F000580729F460E070E080E09FEC2EC0EE2400
:100A0000FF248701E21AF30A040B150B02C07901D7
:100A10008A018EE1C82ED12CDC82CB82ED82FE824F
:100A20000F831887C801B701E6D001971816190679
:100A300084F4082E04C0EE0CFF1C001F111F0A9442
:100A4000D2F7ED82FE820F831887C81AD90ADC829A
:100A5000CB82BA82CE0101961DD12896E9E00C9492
:100A6000A518ACE0B0E0E7E3F5E00C9490186983DA
:100A70007A838B839C83CE010196BE016B5F7F4F8F
:100A8000DED18D81823061F1823050F1843021F4E9
:100A90008E81882351F12EC02F81388537FD20C0EB
:100AA0006E812F3131051CF06623F9F023C08EE1F1
:100AB00090E0821B930B29853A854B855C8504C0A9
:100AC00056954795379527958A95D2F76623B1F0C5
:100AD00050954095309521953F4F4F4F5F4F0EC039
:100AE00020E030E040E050E009C02FEF3FEF4FEF53
:100AF0005FE704C020E030E040E050E8B901CA01FF
:100B00002C96E2E00C94AC18A8E0B0E0EAE8F5E03E
:100B10000C9488187B018C01611571058105910584
:100B200019F482E089835FC083E089838EE1C82E57
:100B3000D12CDC82CB82ED82FE820F831887C80124
:100B4000B70159D0FC013197F7FF3BC0222733276B
:100B50002E1B3F0B57016801022E04C0D694C79488
:100B6000B794A7940A94D2F740E050E060E070E0B8
:100B700081E090E0A0E0B0E004C0880F991FAA1FB8
:100B8000BB1F2A95D2F70197A109B1098E219F2198
:100B9000A023B1230097A105B10521F041E050E069
:100BA00060E070E04A295B296C297D294D835E83D2
:100BB0006F8378878EE190E08E1B9F0B9C838B83E5
:100BC00012C0309781F00E2E04C0EE0CFF1C001FE7
:100BD000111F0A94D2F7ED82FE820F831887CE1A76
:100BE000DF0ADC82CB821A82CE01019653D028968E
:100BF000EAE00C94A418EF92FF920F931F937B01ED
:100C00008C0180E0E81680E0F80681E0080780E0CB
:100C1000180788F48FEFE816F1040105110531F08B
:100C200028F088E090E0A0E0B0E017C080E090E01D
:100C3000A0E0B0E012C080E0E81680E0F80680E0B6
:100C4000080781E0180728F088E190E0A0E0B0E014
:100C500004C080E190E0A0E0B0E020E230E040E0BD
:100C600050E0281B390B4A0B5B0B04C01695079507
:100C7000F794E7948A95D2F7F701E35FFC4F808100
:100C8000281B310941095109C9011F910F91FF909A
:100C9000EF900895DF92EF92FF920F931F93FC0164
:100CA000E480F58006811781D1808081823048F40C
:100CB00080E090E0A0E1B0E0E82AF92A0A2B1B2BA3
:100CC000A5C0843009F49FC0823021F4EE24FF24B3
:100CD000870105C0E114F1040105110519F4E0E0F4
:100CE000F0E096C0628173819FEF623879070CF063
:100CF0005BC022E83FEF261B370B2A3131052CF071
:100D000020E030E040E050E02AC0B801A701022E08
:100D100004C076956795579547950A94D2F781E078
:100D200090E0A0E0B0E004C0880F991FAA1FBB1F8D
:100D30002A95D2F70197A109B1098E219F21A023FD
:100D4000B1230097A105B10521F081E090E0A0E07A
:100D5000B0E09A01AB01282B392B4A2B5B2BDA012F
:100D6000C9018F779070A070B07080349105A10593
:100D7000B10539F427FF09C0205C3F4F4F4F5F4F4B
:100D800004C0215C3F4F4F4F5F4FE0E0F0E0203068
:100D9000A0E03A07A0E04A07A0E45A0710F0E1E01B
:100DA000F0E079018A0127C06038710564F5FB0124
:100DB000E158FF4FD801C7018F779070A070B070D5
:100DC00080349105A105B10539F4E7FE0DC080E43A
:100DD00090E0A0E0B0E004C08FE390E0A0E0B0E0DD
:100DE000E80EF91E0A1F1B1F17FF05C01695079571
:100DF000F794E794319687E016950795F794E79472
:100E00008A95D1F705C0EE24FF248701EFEFF0E0CB
:100E10006E2F679566276795902F9F77D794DD246F
:100E2000D7948E2F8695492F462B582F5D29B701D1
:100E3000CA011F910F91FF90EF90DF900895FC0180
:100E4000DB01408151812281622F6F7770E0221F88
:100E50002227221F9381892F880F822B282F30E091
:100E6000991F9927991F11969C9311972115310568
:100E7000A9F5411551056105710511F482E037C0EE
:100E800082E89FEF13969C938E9312979A01AB0181
:100E900067E0220F331F441F551F6A95D1F783E087
:100EA0008C930DC0220F331F441F551F12968D9136
:100EB0009C911397019713969C938E9312972030D1
:100EC00080E0380780E0480780E4580758F314961C
:100ED0002D933D934D935C93179708952F3F3105C4
:100EE00079F4411551056105710519F484E08C937D
:100EF000089564FF03C081E08C9312C01C9210C05F
:100F00002F57304013963C932E93129783E08C9387
:100F100087E0440F551F661F771F8A95D1F77064CD
:100F200014964D935D936D937C93179708951F933B
:100F3000DC01FB019C91923008F447C08081823033
:100F400008F443C0943051F411961C91843099F503
:100F50008181682F70E0611B71093FC0843021F0EE
:100F6000923031F48230B9F18181882389F12DC02A
:100F700011961C9111978230F1F081811817D9F4E4
:100F800012962D913C91139782819381821793073A
:100F900094F028173907BCF014968D919D910D900F
:100FA000BC91A02D248135814681578128173907AE
:100FB0004A075B0718F4112341F00AC08217930710
:100FC000A407B50740F4112319F061E070E005C0F3
:100FD0006FEF7FEF02C060E070E0CB011F910895DA
:100FE00080910F04909110049093470480934604DD
:100FF00080911104909112049093490480934804C5
:10100000809113049091140490934B0480934A04AC
:101010000895EF92FF920F931F93E82EF62E0EEA9B
:1010200014E0C80164E770E0F9D4C8016F2D85D5DC
:10103000C8016E2D82D5C801C1D51F910F91FF90B7
:10104000EF9008951F93CF93DF93182FEB0180E16A
:101050006030780754F4862F612FDBDF8D2F9927BE
:1010600087FD9A951F5F612FD4DFDF91CF911F918C
:1010700008951F93182F8EEA94E064E770E0CED4B1
:101080008EEA94E0612F59D58EEA94E097D58EEAE6
:1010900094E064E770E041E050E09ED58EEA94E091
:1010A000C7D4892BD9F38EEA94E0CBD41F9108954D
:1010B000CF93DF9380910D0460E00E9474166AE084
:1010C00070E080E090E00E94431582E060E0A1DFE4
:1010D00080E0CFDF8823E1F7C0E0D0E09E01285B0D
:1010E000822FC7DFFE01EC5AFB4F80832196C4306C
:1010F000D105A1F780910D0461E00E947416DF9183
:10110000CF91089581E060E084DF80E0B2DF882342
:10111000E1F708950F931F93182FABDF082F812F4E
:101120008F5FA7DF382F20E0200F311DC9011F91ED
:101130000F9108954F925F926F927F928F929F923C
:10114000AF92BF92CF92DF92EF92FF920F931F93D5
:10115000CF93DF936624772488249924AA24BB2480
:1011600098E8492E93E1592E862D66E052DF8A2DAC
:1011700067E04FDF882D68E04CDF8AE0CBDF8C0131
:101180008AE090E0B8015EDF8CE090E0B8015ADFC1
:101190008EE090E0B80156DF00E010E0EE24FF247E
:1011A000CC24DD24C0E0D0E0ADDF80E4B3DF080F65
:1011B000191F82E4AFDFE80EF91E84E4ABDFC80E2E
:1011C000D91E2196C430D10579F7C80164E070E0DA
:1011D0000E941C18EB01C70164E070E00E941C181B
:1011E000FB01C60164E070E00E941C189B01CE0167
:1011F0005C2F492FCE17DF071CF4CF015E2F492F3C
:10120000852F942F97FF02C080E090E0AC018217F9
:1012100093070CF4A901CE017C2F692FEC17FD0771
:101220001CF4CF017E2F692F872F962F60E181302C
:10123000960714F080E090E1281739070CF4C901F3
:10124000BA01681B790BCB014616570611F14C17F2
:101250005D0741F47FE06716710424F40894611C73
:10126000711C15C04E175F0741F46FE0A616B1045C
:1012700024F40894A11CB11C0AC04217530739F486
:101280007FE0871691041CF40894811C911C2C01AA
:101290006BCFDF91CF911F910F91FF90EF90DF9077
:1012A000CF90BF90AF909F908F907F906F905F9006
:1012B0004F900895CF92DF92EF92FF920F931F937A
:1012C000CF93DF93C12C20E1D22EEE24FF24C60160
:1012D0008E199F0962E070E00E941C188B010E0DB0
:1012E0001F1D0E151F0581F18AE090E0B801AADEEE
:1012F0008CE090E0B801A6DE8EE090E0B801A2DEBE
:1013000001DF80E407DF97FF03C0C0E0D0E003C047
:1013100080E400DFEC0182E4FDDE8C179D071CF009
:1013200082E4F8DEEC0184E4F5DE8C179D071CF006
:1013300084E4F0DEEC0183E0C93ED80714F06801D4
:10134000C6CFC85ED34051F4C801DF91CF911F9141
:101350000F91FF90EF90DF90CF9008957801B7CF75
:10136000EF92FF920F931F93CF93DF93E12C30E125
:10137000F32E00E010E0C701801B910B62E070E0EB
:101380000E941C18EB01C00FD11FC017D10781F0BC
:1013900080E190E0BE0156DEB5DE86E4BBDE23E0F0
:1013A000893E920714F07E01E6CF885E934041F4B7
:1013B000CE01DF91CF911F910F91FF90EF90089593
:1013C0008E01D9CF2F923F924F925F926F927F9270
:1013D0008F929F92AF92BF92CF92DF92EF92FF9245
:1013E0000F931F93DF93CF9300D000D0CDB7DEB71C
:1013F00089DE80E48FDE90934D0480934C0482E478
:1014000089DE90934F0480934E0484E483DE9093AE
:1014100051048093500486E47DDE5C019093530474
:101420008093520460914C0470914D0480E090E0F0
:101430006BDB1B012C0160914E0470914F0480E026
:1014400090E062DB3B014C016091500470915104CB
:1014500080E090E059DB69837A838B839C83C201AF
:10146000B10127E836E149E95EE322D87B018C012E
:10147000C401B30122EA35E446E15FE319D89B01D8
:10148000AC01C801B7010E942F027B018C01698168
:101490007A818B819C8125ED38E749EE5DE308D8A0
:1014A0009B01AC01C801B7010E942F026093580450
:1014B0007093590480935A0490935B04C201B10164
:1014C00026E53EE04DE25EEB0E9458027B018C0176
:1014D000C401B30127EE3BEF49EA5EEB0E945802DC
:1014E0009B01AC01C801B7010E942F027B018C0156
:1014F00069817A818B819C8120E030E040E05FE36C
:101500000E9458029B01AC01C801B7010E942F0242
:1015100020E030E040E053E40E942F0260935C043E
:1015200070935D0480935E0490935F04C201B101E7
:1015300020E030E040E05FE30E9458027B018C0134
:10154000C401B3012BE237E846ED5EEB0E9458027E
:101550009B01AC01C801B7010E942F027B018C01E5
:1015600069817A818B819C812DE930E846EA5DEBC7
:101570000E9458029B01AC01C801B7010E942F02D2
:1015800020E030E040E053E40E942F0260936004CA
:10159000709361048093620490936304CC24DD24EF
:1015A000C601B501B1DA6093640470936504809359
:1015B0006604909367040F900F900F900F90CF9157
:1015C000DF911F910F91FF90EF90DF90CF90BF9030
:1015D000AF909F908F907F906F905F904F903F90D3
:1015E0002F9008951F93CF93DF9380EB95E060E0F9
:1015F00071E00E94961480EB95E06EE171E00E942C
:10160000B213CCE4D4E06991799180EB95E04AE0A3
:1016100050E00E94411380EB95E068E271E00E9487
:10162000B21384E0C435D80771F780EB95E07FD71B
:1016300080EB95E06BE271E00E94B21316E0812F1F
:1016400018DD682F80EB95E04AE050E00E945113CE
:1016500080EB95E068E271E00E94B2131F5F1A30E0
:1016600071F780EB95E063D780EB95E065E371E07F
:101670000E94B213812F4EDDBC0180EB95E04AE061
:1016800050E00E94A01380EB95E068E271E00E94B8
:10169000B2131E5F123171F780EB95E048D780EBF3
:1016A00095E06EE371E00E94B21318E4812FE1DC53
:1016B000682F772767FD709580EB95E04AE050E052
:1016C0000E94A01380EB95E068E271E00E94B213E3
:1016D0001F5F1C3459F780EB95E029D780EB95E02C
:1016E00069E471E00E94B213C8E5D4E049915991D0
:1016F0006991799180EB95E022E030E00E949414AA
:1017000080EB95E068E271E00E94B21384E0C83695
:10171000D80761F780EB95E00AD7DF91CF911F9151
:1017200008952F923F924F925F926F927F929F9275
:10173000AF92BF92CF92DF92EF92FF920F931F93DF
:10174000DF93CF9300D000D000D0CDB7DEB780EBD1
:1017500095E0C3D5892BD9F380EB95E0EFD58032A6
:1017600059F0833661F480EB95E062E571E00E9408
:101770009614A0DDF5DDDEDC25DE34DFDCC08F363F
:1017800001F596DC80EB95E06EE371E0EBD704E5C4
:1017900014E0F80161918F01772767FD709580EB68
:1017A00095E04AE050E0CCD780EB95E068E271E04C
:1017B000D9D7F4E008351F0761F780EB95E0B7D67D
:1017C000BAC08C3609F0B2C080EB95E063E671E0F8
:1017D0000E94961480EB95E06CE971E00E949614EB
:1017E000DE011196EBE1F4E086E001900D9281506C
:1017F000E1F77AC0E7DDF701219131917F01F8012E
:1018000080819181820F931F220F331F820F931FBC
:10181000819391938F01F4E5EF16F4E0FF0651F701
:1018200089819A8164E070E00E941C187A83698340
:101830008B819C8164E070E00E941C187C836B8328
:101840008D819E8164E070E00E941C187E836D8310
:101850006624772480EB95E061EB71E083D7E1E0CB
:10186000F0E0EC0FFD1FE60DF71DE080F18080EB4E
:1018700095E0B7014AE050E063D7F301EA5BFB4F24
:10188000908000D000D00027F7FC0095102FEDB716
:10189000FEB72182328243825482C801B70120E020
:1018A00030E040E050E0E12CE4E0FE2E012D112D6F
:1018B000AA24BB2465010E94A7149B01AC010F90D0
:1018C0000F900F900F90892DB9010E94D71582E0DB
:1018D00090E0680E791E96E06916710409F0BACF9F
:1018E00080EB95E024D605C05FEF252E312C412CEE
:1018F000512C80EB95E0F1D4892B41F44CE4E42E9B
:1019000044E0F42E8E010F5F1F4F74CF8091460488
:1019100060E00E9474168091480460E00E94741692
:1019200080914A0460E00E94741605C080EB95E047
:1019300063EB71E0FBD780EB95E029D526960FB6D7
:10194000F894DEBF0FBECDBFCF91DF911F910F91F5
:10195000FF90EF90DF90CF90BF90AF909F907F90DF
:101960006F905F904F903F902F900895CF93DF93AB
:1019700080910D0461E00E94351680910D0461E0B4
:101980000E947416C6E4D4E0888161E00E94351696
:10199000888160E00E947416229684E0CC34D807D7
:1019A00099F780EB95E040E052EC61E070E00FD4F5
:1019B0008EEA94E013D161E070E080E090E00E9454
:1019C000431580EB95E064E072E0B0D780EB95E0E2
:1019D00084D4892BD9F380EB95E0D9D480EB95E0C2
:1019E00068E572E0A3D766DCBBDCA4DBEBDCFADDE8
:1019F00080EB95E06FE772E099D780EB95E063EBC1
:101A000071E094D7DF91CF9108950C9465170895F4
:101A1000FC0185E294E091838083089581E08093C6
:101A2000AD0460938A041092AB041092AC04089544
:101A30002091890430E080918804281B3109C90174
:101A400008954091880480918904481718F02FEF79
:101A50003FEF0AC0E42FF0E0E859FB4F8081282FC8
:101A600030E04F5F40938804C9010895E0918804F5
:101A700080918904E81718F0EFEFFFEF06C0F0E05F
:101A8000E859FB4F8081E82FF0E0CF0108950895D9
:101A90001092B1041092B00488EE93E0A0E0B0E0A0
:101AA0008093B2049093B304A093B404B093B504AC
:101AB00085E294E09093AF048093AE04089585E2AC
:101AC00094E09093AF048093AE040895FC0185E206
:101AD00094E091838083CF0198CFCF92DF92EF92F1
:101AE000FF920F931F93CF93DF937C016B018A01C9
:101AF0008091AD048823A1F0C0E0D0E00DC0D701F3
:101B0000ED91FC91D601AC0FBD1F0190F081E02D4D
:101B1000C7016C9109952196C017D10780F303C0C6
:101B2000CB01642F03D1C801DF91CF911F910F9199
:101B3000FF90EF90DF90CF900895DF93CF930F92B7
:101B4000CDB7DEB7FC0169838091AD048823C9F06D
:101B50008091AC04803238F081E090E093838283FE
:101B600020E030E014C08091AB04E82FF0E0E557AE
:101B7000FB4F998190838F5F8093AB048093AC047B
:101B800004C0CE01019661E0D1D021E030E0C9016E
:101B90000F90CF91DF9108950F93062F80918A04C3
:101BA0006BE874E04091AC0421E06AD01092AB0481
:101BB0001092AC041092AD040F91089561E0ECCF47
:101BC000413208F040E2862F68E674E010D01092AF
:101BD000880480938904089521E0F2CF109288044C
:101BE000109289041092AB041092AC044BC2382FAF
:101BF000413210F040E042C08091DF048823E1F7D9
:101C000091E09093DF042093DD048FEF8093E00454
:101C10001092BB0441504093BC044F5F9093BA04B0
:101C20008091BA04330F832B8093BA048091DE0431
:101C3000813041F41092DE048091BA048093BB009D
:101C400085EC01C085EE8093BC008091DF0481307B
:101C5000E1F38091BB04841710F44091BB0420E0B1
:101C600030E00AC0FB01E20FF31FD901A354BB4FC0
:101C70008C9180832F5F3F4F2417A0F3842F08950A
:101C80000F931F93582F122F413210F081E045C05F
:101C90008091DF048823E1F782E08093DF040093E2
:101CA000DD048FEF8093E0041092BB044093BC04EA
:101CB000ADEBB4E0FB0102C081918D938E2F861BAA
:101CC0008417D0F31092BA048091BA04550F852B73
:101CD0008093BA048091DE04813041F41092DE04D6
:101CE0008091BA048093BB0085EC01C085EE80939F
:101CF000BC001123A9F08091DF04823089F4FBCF6E
:101D00008091E004803211F482E007C08091E00409
:101D1000803311F084E001C083E01F910F9108959A
:101D20008091E0048F3F61F780E0F7CF482F613268
:101D300010F081E008958091DF04843011F082E09A
:101D4000089560930505A8E0B5E0842F9C01F90192
:101D500002C081918D938E2F841B8617D0F380E073
:101D600008951F920F920FB60F9211242F933F9355
:101D70004F935F936F937F938F939F93AF93BF9393
:101D8000EF93FF938091B90090E0887F9070803648
:101D9000910509F4F2C081369105CCF588329105A0
:101DA00009F47BC089329105B4F48031910509F4BE
:101DB0006FC0813191053CF4009709F447C1089741
:101DC00009F04FC165C08831910509F466C080975C
:101DD00009F047C182C08034910509F4A4C0813460
:101DE000910544F48033910509F482C0C89709F045
:101DF00038C189C08035910509F489C088359105BD
:101E000009F496C08834910509F02BC1AEC0883919
:101E1000910509F413C189399105ECF488379105CE
:101E200009F4ABC0893791054CF48836910509F463
:101E3000A4C08037910509F014C19FC0883891056E
:101E400009F4FCC08039910509F49DC080389105E2
:101E500009F007C198C0803B910509F4C6C0813BD9
:101E600091054CF4803A910509F49FC0883A910598
:101E700009F0F7C0BAC0803C910509F4E3C0883C82
:101E8000910509F4DFC0883B910509F0EAC0C2C0A2
:101E90008091BA048093BB00CFC09091BB04809125
:101EA000BC04981768F49091BB04E92FF0E0E35468
:101EB000FB4F80818093BB009F5F9093BB04BCC0AD
:101EC0008091DD04882309F44BC085ED8093BC002C
:101ED0008091BC0084FDFCCFC2C080E28093E0040E
:101EE00085ED8093BC008091BC0084FDFCCFB7C021
:101EF00080E38093E00485ED8093BC008091BC007A
:101F000084FDFCCFACC088E38093E0049BC080914B
:101F1000BB049091BB00E82FF0E0E354FB4F9083AB
:101F20008F5F8093BB049091BB048091BC0482C0FE
:101F30008091BB049091BB00E82FF0E0E354FB4F8D
:101F400090838F5F8093BB048091DD04882341F0F0
:101F500085ED8093BC008091BC0084FDFCCF7FC0E8
:101F600081E08093DE0484EA6EC085ED8093BC003E
:101F70008091BC0084FDFCCF72C083E08093DF04BD
:101F80001092E10459C08091E104803208F056C0FB
:101F90008091E1049091BB00E82FF0E0EE51FB4FFF
:101FA00090838F5F8093E10447C08091E104803289
:101FB00030F4E091E104F0E0EE51FB4F108285ED4A
:101FC0008093BC008091BC0084FDFCCF1092DF04A4
:101FD0006091E104E0910205F091030582EE94E046
:101FE00070E009951092E1042DC084E08093DF0435
:101FF0001092040510920505E0910605F091070581
:10200000099580910505882329F481E080930505D1
:102010001092080590910405E92FF0E0E85FFA4F6F
:1020200080818093BB009F5F90930405909104058D
:1020300080910505981710F485EC01C085E8809320
:10204000BC000FC085EC8093BC0009C01092E00476
:1020500085ED8093BC008091BC0084FDFCCF109284
:10206000DF04FF91EF91BF91AF919F918F917F918D
:102070006F915F914F913F912F910F900FBE0F90F5
:102080001F9018951092DF0481E08093DD04109278
:10209000DE0482E161E028D683E161E025D6E9EB48
:1020A000F0E080818E7F808380818D7F808388E4D3
:1020B0008093B80085E48093BC00089508951F9232
:1020C0000F920FB60F9211242F933F934F938F933C
:1020D0009F93EF93FF938091C00082FD1DC04091BC
:1020E000C60020916805309169052F5F3F4F2F731F
:1020F000307080916A0590916B052817390771F04F
:10210000E0916805F0916905E85DFA4F40833093EE
:1021100069052093680502C08091C600FF91EF9188
:102120009F918F914F913F912F910F900FBE0F90E4
:102130001F901895E091BC05F091BD05E05CFF4F44
:102140008191919120813181821B930B8F739070CB
:10215000892B09F0B3CF08951F920F920FB60F92FB
:1021600011242F933F938F939F93EF93FF9320918D
:10217000AC053091AD058091AE059091AF05281763
:10218000390731F48091C1008F7D8093C10014C064
:10219000E091AE05F091AF05E459FA4F20818091AE
:1021A000AE059091AF0501968F7390709093AF0537
:1021B0008093AE052093C600FF91EF919F918F9180
:1021C0003F912F910F900FBE0F901F901895AF92D7
:1021D000BF92DF92EF92FF920F931F93CF93DF9303
:1021E000EC017A018B01DD24403081EE580780E05C
:1021F000680780E0780711F0DD24D39491E0A92EE0
:10220000B12CEC89FD89DD2069F0C50108A002C070
:10221000880F991F0A94E2F7808360E079E08DE3EC
:1022200090E005C0108260E874E88EE190E0A801BB
:10223000970115D721503040404050405695479562
:102240003795279580E12030380720F0DD2011F008
:10225000DD24D7CFE889F9893083EA89FB89208397
:1022600019A2EE89FF89408121E030E0C9010C8C80
:1022700002C0880F991F0A94E2F7482B4083EE8929
:10228000FF894081C9010D8C02C0880F991F0A94F3
:10229000E2F7482B4083EE89FF894081C9010E8C0B
:1022A00002C0880F991F0A94E2F7482B4083EE89F9
:1022B000FF8980810F8C02C0220F331F0A94E2F73E
:1022C000209528232083DF91CF911F910F91FF90BC
:1022D000EF90DF90BF90AF900895DC011C96ED91D8
:1022E000FC911D97E05CFF4F21913191808191819C
:1022F000281B390B2F733070C9010895DC011C961F
:10230000ED91FC911D97E05CFF4F20813181E054FD
:10231000F040DF01AE5BBF4F8D919C911197281764
:10232000390719F42FEF3FEF07C08D919C91E80F0B
:10233000F91F8081282F30E0C9010895DC011C9627
:10234000ED91FC911D97E05CFF4F20813181E054BD
:10235000F040DF01AE5BBF4F8D919C911197281724
:10236000390719F42FEF3FEF10C08D919C91119711
:10237000E80FF91F20818D919C91119701968F7321
:10238000907011969C938E9330E0C9010895DC0102
:1023900091968C919197882339F05496ED91FC9108
:1023A0005597808186FFF9CF91961C920895CF931F
:1023B000DF93EC01EE85FF85E05CFF4F20813181EA
:1023C000E054F0402F5F3F4F2F733070DF01AE5B62
:1023D000BF4F8D919C91119728173907D1F3E05C7D
:1023E000FF4F80819181E054F040E80FF91F608336
:1023F000EE85FF85E05CFF4F31832083EE89FF8906
:10240000208181E090E00F8C02C0880F991F0A9410
:10241000E2F7282B208381E089A3EC89FD89808164
:102420008064808381E090E0DF91CF9108951092E5
:10243000B3051092B20588EE93E0A0E0B0E080937F
:10244000B4059093B505A093B605B093B70589E39D
:1024500094E09093B1058093B00588E295E0909365
:10246000BD058093BC058CE695E09093BF058093F5
:10247000BE0585EC90E09093C1058093C00584EC87
:1024800090E09093C3058093C20580EC90E0909318
:10249000C5058093C40581EC90E09093C7058093B7
:1024A000C60582EC90E09093C9058093C80586EC40
:1024B00090E09093CB058093CA0584E08093CC058F
:1024C00083E08093CD0587E08093CE0585E08093FF
:1024D000CF0581E08093D0050895CF92DF92EF92EF
:1024E000FF920F931F93CF93DF937C016B018A01BF
:1024F000C0E0D0E00FC0D6016D916D01D701ED9124
:10250000FC910190F081E02DC7010995C80FD91FFA
:10251000015010400115110571F7CE01DF91CF91E7
:102520001F910F91FF90EF90DF90CF900895EF9261
:10253000FF920F931F938C01DC01ED91FC910190B0
:10254000F081E02D6DE009957C01D801ED91FC91C1
:102550000190F081E02DC8016AE009959C012E0DE3
:102560003F1DC9011F910F91FF90EF900895CF93E8
:10257000DF93EC016115710519F420E030E00FC024
:10258000DB010D900020E9F71197A61BB70BE8813E
:10259000F9810280F381E02DAD0109959C01C9010B
:1025A000DF91CF9108954F925F927F928F929F9289
:1025B000AF92BF92CF92DF92EF92FF920F931F9351
:1025C000DF93CF93CDB7DEB7A1970FB6F894DEBFF8
:1025D0000FBECDBF2C01742ECB01223008F42AE0AF
:1025E00019A231E2C32ED12CCC0EDD1E822E9924ED
:1025F000AA24BB24672D752FA501940130D579013C
:102600008A01C801B701A5019401F7D4472D461BE3
:102610000894C108D1084A3014F4405D01C0495CF7
:10262000F6014083E114F1040105110521F07E2C2F
:102630005F2DC801DFCFC201B60199DFA1960FB6A9
:10264000F894DEBF0FBECDBFCF91DF911F910F91E8
:10265000FF90EF90DF90CF90BF90AF909F908F90C2
:102660007F905F904F900895DC012115310541F472
:10267000ED91FC910190F081E02D642F0995089572
:1026800092CFEF92FF920F931F939A017B0100E08C
:1026900010E0B801A701E8DF1F910F91FF90EF90C4
:1026A0000895EF92FF920F931F939A01E62EFF2455
:1026B00000E010E0B801A701D7DF1F910F91FF9054
:1026C000EF900895CF92DF92EF92FF920F931F93B6
:1026D000CF93DF93EC016A017B012115310541F4B1
:1026E000E881F9810190F081E02D642F09951DC0EA
:1026F0002A303105C9F477FF16C0E881F9810190CD
:10270000F081E02D6DE209958C0144275527BA012F
:102710004C195D096E097F09CE012AE044DF98015A
:10272000280F391F03C02AE03EDF9C01C901DF9159
:10273000CF911F910F91FF90EF90DF90CF90089570
:10274000EF92FF920F931F937B019A010027F7FCF2
:102750000095102FB801A701B5DF1F910F91FF90D1
:10276000EF90089504CF08957F928F929F92AF9239
:10277000BF92CF92DF92EF92FF920F931F93CF936E
:10278000DF934C017A018B01722ECB01BA01A801B3
:1027900097010E94AC04882321F0C40167EF72E026
:1027A00021C0C0E0D0E057016801E894D7F8C60125
:1027B000B5012FEF3FEF4FE75FE70E94AC0488239E
:1027C00051F4C601B5012FEF3FEF4FE75FE70E94DD
:1027D0007F04181614F0C1E0D0E0219731F0C40155
:1027E0006BEF72E0C4DEEC0190C0C801B7012FEFBF
:1027F0003FEF4FE75FE40E94F803181654F0C8015A
:10280000B7012FEF3FEF4FE75FEC0E9452048823A0
:1028100024F4C4016FEF72E0E5CFC801B70120E0F6
:1028200030E040E050E00E94520487FD03C0C0E069
:10283000D0E00EC0D401ED91FC910190F081E02D2B
:10284000C4016DE20995EC0117FB109517F910957D
:1028500020E030E040E05FE3DD240BC0CA01B901B5
:1028600020E030E040E251E40E944F039B01AC01C4
:10287000D394D71498F3C801B7010E942F025B01CB
:102880006C010E948E007B018C01C401B801A7017C
:102890002AE030E0E9DEC80FD91F772031F0C4010B
:1028A00063E073E064DEC80FD91FC801B7010E945E
:1028B00084059B01AC01C601B5010E94020223C040
:1028C00020E030E040E251E40E9458027B018C019C
:1028D0000E9431055B016C01CC24B7FCC094DC2C58
:1028E000C401B601A5012AE030E0ECDEC80FD91F13
:1028F000C601B5010E94D5049B01AC01C801B70116
:102900000E9402027A947720D9F6CE01DF91CF910E
:102910001F910F91FF90EF90DF90CF90BF90AF90FD
:102920009F908F907F9008951FCF0895EF92FF9210
:102930000F931F937C011BDE8C01C701F8DD080F8C
:10294000191FC8011F910F91FF90EF9008952F92CA
:102950003F924F925F926F927F928F929F92AF922F
:10296000BF92CF92DF92EF92FF920F931F93DF936C
:10297000CF93CDB7DEB73B014C0119012A016D8918
:102980007E898F89988D6A197B098C099D09621A45
:10299000730A840A950AA40193012FD3E218F3085D
:1029A00004091509A80197017CD32A0D3B1D4C1D74
:1029B0005D1DB901CA01CF91DF911F910F91FF9069
:1029C000EF90DF90CF90BF90AF909F908F907F90CF
:1029D0006F905F904F903F902F900895CF93DF932B
:1029E000ABD00E94B60CCAE9D0E10E94910B2097AF
:1029F000E1F3A0DBFACF1F920F920FB60F921124D2
:102A00002F933F938F939F93AF93BF938091D6055E
:102A10009091D705A091D805B091D9053091DA05EC
:102A20000196A11DB11D232F2D5F2D3720F02D57AD
:102A30000196A11DB11D2093DA058093D6059093D0
:102A4000D705A093D805B093D9058091D205909170
:102A5000D305A091D405B091D5050196A11DB11D56
:102A60008093D2059093D305A093D405B093D50558
:102A7000BF91AF919F918F913F912F910F900FBE7A
:102A80000F901F9018959B01AC017FB7F89480912F
:102A9000D2059091D305A091D405B091D50566B526
:102AA000A89B05C06F3F19F00196A11DB11D7FBF06
:102AB000BA2FA92F982F8827860F911DA11DB11D10
:102AC00062E0880F991FAA1FBB1F6A95D1F7BC014E
:102AD0002DC0FFB7F8948091D2059091D305A091B5
:102AE000D405B091D505E6B5A89B05C0EF3F19F018
:102AF0000196A11DB11DFFBFBA2FA92F982F8827BE
:102B00008E0F911DA11DB11DE2E0880F991FAA1F14
:102B1000BB1FEA95D1F7861B970B885E9340C8F2DE
:102B2000215030404040504068517C4F21153105C4
:102B30004105510571F60895789484B5826084BD8D
:102B400084B5816084BD85B5826085BD85B58160B1
:102B500085BDEEE6F0E0808181608083E1E8F0E011
:102B60001082808182608083808181608083E0E840
:102B7000F0E0808181608083E1EBF0E0808184601F
:102B80008083E0EBF0E0808181608083EAE7F0E021
:102B90008081846080838081826080838081816085
:102BA00080838081806880831092C10008951F9384
:102BB000CF93DF93182FEB0161E057D0209709F4F2
:102BC0004AC0CF3FD10509F449C0E12FF0E0E255FA
:102BD000FF4F84918330C1F0843028F4813051F06C
:102BE0008230B1F50CC0863019F1873049F184305C
:102BF00079F514C084B5806884BDC7BD32C084B582
:102C0000806284BDC8BD2DC08091800080688093A3
:102C10008000D0938900C093880023C080918000F9
:102C2000806280938000D0938B00C0938A0019C08B
:102C30008091B00080688093B000C093B30011C051
:102C40008091B00080628093B000C093B40009C04E
:102C5000C038D1051CF4812F60E002C0812F61E0F3
:102C600043D0DF91CF911F910895CF93DF93482FE9
:102C700050E0CA0186569F4FFC0134914A575F4F7E
:102C8000FA018491882369F190E0880F991FFC0173
:102C9000E859FF4FA591B491FC01EE58FF4FC59143
:102CA000D491662351F42FB7F8948C91932F90957B
:102CB00089238C93888189230BC0623061F42FB7FC
:102CC000F8948C91932F909589238C938881832BF2
:102CD00088832FBF06C09FB7F8948C91832B8C9369
:102CE0009FBFDF91CF910895482F50E0CA018255D0
:102CF0009F4FFC012491CA0186569F4FFC0194917D
:102D00004A575F4FFA013491332309F440C022231C
:102D100051F1233071F0243028F42130A1F0223019
:102D200011F514C02630B1F02730C1F02430D9F4A9
:102D300004C0809180008F7703C0809180008F7DD8
:102D40008093800010C084B58F7702C084B58F7DDA
:102D500084BD09C08091B0008F7703C08091B0001E
:102D60008F7D8093B000E32FF0E0EE0FFF1FEE5851
:102D7000FF4FA591B4912FB7F894662321F48C915D
:102D80009095892302C08C91892B8C932FBF089535
:102D90000F931F93CF93DF93BC018230910510F402
:102DA00062E070E0E091DD05F091DE0540E050E08A
:102DB000A0E0B0E024C08081918186179707D0F011
:102DC0008617970771F482819381109729F01396E3
:102DD0009C938E9312972CC09093DE058093DD0513
:102DE00027C04115510519F08417950718F48D0176
:102DF000AC01EF01DF01828193819C01F9013097E1
:102E0000D1F641155105F9F0CA01861B970B8430A4
:102E1000910580F48A819B810115110521F0F8014B
:102E20009383828304C09093DE058093DD05FE01C9
:102E3000329645C0FE01E80FF91F61937193029726
:102E4000998388833CC08091DB059091DC05892BB8
:102E500041F480911704909118049093DC058093BD
:102E6000DB054091190450911A044115510541F4B4
:102E70004DB75EB78091150490911604481B590B0D
:102E80002091DB053091DC0524173507B0F4CA0129
:102E9000821B930B8617970780F0AB014E5F5F4F45
:102EA0008417950750F0420F531F5093DC05409351
:102EB000DB05F9016193719302C0E0E0F0E0CF011E
:102EC000DF91CF911F910F910895CF93DF939C01D4
:102ED000009709F48FC0EC0122971B821A8260913F
:102EE000DD057091DE056115710581F48881998198
:102EF000820F931F2091DB053091DC0528173907DD
:102F000039F5D093DC05C093DB0574C0DB0140E0EC
:102F100050E0AC17BD0708F1BB83AA83FE012191E5
:102F20003191E20FF31FAE17BF0779F48D919C9199
:102F30001197280F391F2E5F3F4F39832883129630
:102F40008D919C9113979B838A834115510571F450
:102F5000D093DE05C093DD054DC012968D919C91F6
:102F60001397AD01009711F0DC01D3CFDA0113966E
:102F7000DC93CE931297FA0121913191E20FF31F66
:102F8000CE17DF0769F488819981280F391F2E5FDA
:102F90003F4FFA01318320838A819B81938382830F
:102FA000E0E0F0E0DB0112968D919C911397009781
:102FB00019F0BC01FD01F6CFAB014E5F5F4FDB01A5
:102FC0008D919C91840F951F2091DB053091DC053C
:102FD0002817390779F4309729F41092DE051092FA
:102FE000DD0502C013821282425050405093DC052E
:102FF0004093DB05DF91CF910895629FD001739FCD
:10300000F001829FE00DF11D649FE00DF11D929F84
:10301000F00D839FF00D749FF00D659FF00D9927C3
:10302000729FB00DE11DF91F639FB00DE11DF91FE7
:10303000BD01CF011124089597FB092E07260AD060
:1030400077FD04D049D006D000201AF47095619520
:103050007F4F0895F6F7909581959F4F0895A1E2CF
:103060001A2EAA1BBB1BFD010DC0AA1FBB1FEE1F02
:10307000FF1FA217B307E407F50720F0A21BB30B4D
:10308000E40BF50B661F771F881F991F1A9469F7C9
:1030900060957095809590959B01AC01BD01CF0125
:1030A000089597FB092E05260ED057FD04D0D7DFD3
:1030B0000AD0001C38F450954095309521953F4F2B
:1030C0004F4F5F4F0895F6F79095809570956195F5
:1030D0007F4F8F4F9F4F0895AA1BBB1B51E107C025
:1030E000AA1FBB1FA617B70710F0A61BB70B881F98
:1030F000991F5A95A9F780959095BC01CD01089527
:103100002F923F924F925F926F927F928F929F92F7
:10311000AF92BF92CF92DF92EF92FF920F931F93E5
:10312000CF93DF93CDB7DEB7CA1BDB0B0FB6F89496
:10313000DEBF0FBECDBF09942A88398848885F84D6
:103140006E847D848C849B84AA84B984C884DF8047
:10315000EE80FD800C811B81AA81B981CE0FD11D2B
:103160000FB6F894DEBF0FBECDBFED010895EE0F90
:10317000FF1F0590F491E02D099410E0C8ECD0E019
:1031800003C0FE01F6DF2296CA3CD107D1F7F894BE
:02319000FFCF6F
:10319200090920526564200920477265656E20097D
:1031A20020426C7565200920436C656172004461A0
:1031B20074613A2009092000092000436170733AC2
:1031C2002009092000496E743A20090920004F663F
:1031D200667365743A200920005955563A20090948
:1031E20020000A43616C6962726174696E672E2EF7
:1031F2002E0A000A5265706C69636174696E6720F9
:10320200636F6C6F72206F6E20524742204C4544B0
:103212002C20707265737320616E79206B65792042
:10322200746F2073746F702E2E2E0A00092052655F
:1032320064200920477265656E200920426C75651D
:103242000009000A507265737320535041434520B0
:10325200746F20726561642C2022632220746F20B7
:1032620063616C6962726174652C20226F22207422
:103272006F20676574206F66667365742C20226CFC
:103282002220746F20676F20746F204C4544206D9C
:103292006F6465000A486F6C642075702061207746
:1032A20068697465206F626A65637420696E20665E
:1032B200726F6E74206F66207468652073656E731A
:1032C2006F722C207468656E207072657373206152
:1032D2006E79206B657920746F2063616C6962720C
:1032E2006174652E2E2E0A000A43616C6962726156
:1032F20074696E672E2E2E74686973206D61792051
:1033020074616B652061206D6F6D656E740A000AD1
:10331200416C6C2076616C7565732073686F756C97
:103322006420626520756E64657220313030302E03
:103332002049662074686579277265206E6F742C47
:10334200207472792063616C6962726174696E675C
:1033520020616761696E2C206F72206465637265FB
:103362006173696E672074686520616D6269656E5C
:1033720074206272696768746E65737320736F6D0F
:1033820065686F772E20006E616E00696E66006F51
:103392007666002E0000000000000000000001021E
:1033A20002030303030404040404040404050505DE
:1033B20005050505050505050505050505060606B8
:1033C200060606060606060606060606060606069B
:1033D2000606060606060606060606060607070788
:1033E200070707070707070707070707070707076B
:1033F200070707070707070707070707070707075B
:10340200070707070707070707070707070707074A
:103412000707070707070707070707070708080837
:10342200080808080808080808080808080808081A
:10343200080808080808080808080808080808080A
:1034420008080808080808080808080808080808FA
:1034520008080808080808080808080808080808EA
:1034620008080808080808080808080808080808DA
:1034720008080808080808080808080808080808CA
:1034820008080808080808080808080808080808BA
:1034920008080808080808080808080808020009B7
:1034A200000A000B008000DF0500000000000000A1
:1034B20000000000009D0D6D0D180D210D360D4709
:1034C2000D080D660D00000000D7116D126D119EE2
:0634D200117E11C711007C
:00000001FF
