:1000000074C0000099C0000097C0000095C00000B7
:1000100093C0000091C000008FC000008DC00000A0
:100020008BC0000089C0000087C0000085C00000B0
:1000300083C0000081C000007FC000007DC00000C0
:100040000C948D0F79C000000C94E30B0C94300CD1
:1000500073C0000071C000006FC000006DC00000E0
:1000600064C6000069C0000005A84CCDB2D44EB9EA
:100070003836A9020C50B9918688083CA6AAAA2A4B
:10008000BE000000803F00000000240027002A007E
:1000900000000000250028002B00000000002300C5
:1000A00026002900040404040404040402020202D9
:1000B000020203030303030301020408102040802B
:1000C00001020408102001020408102000000007AB
:1000D0000002010000030406000000000000000010
:1000E000B600CD05D10A9C0DE40511241FBECFEF4B
:1000F000D8E0DEBFCDBF12E0A0E0B1E0E6EBFAE26F
:1001000002C005900D92AC34B107D9F714E0ACE40D
:10011000B2E001C01D92AC34B107E1F710E0C8EEC7
:10012000D0E004C02297FE010E944B15C03ED107CB
:10013000C9F70E94800F01C063CFF8940C944F154B
:10014000FB01DC0101900D920020E1F70895FB0115
:10015000DC014150504030F08D910190801919F42C
:100160000020B9F7881B990B08950895AF92BF92AC
:10017000CF92DF92EF92FF920F931F9308E512E068
:10018000C80161E044E00E94950B22E0A22EB12C50
:10019000A00EB11EC50162E044E00E94950B94E000
:1001A000C92ED12CC00ED11EC60163E044E00E94CE
:1001B000950B86E0E82EF12CE00EF11EC70164E0FD
:1001C00044E00E94950B10924F0210924E02109242
:1001D0005302109252028FEF90E09093510280935D
:1001E00050021093610200936002B0926302A092E9
:1001F0006202D0926502C0926402F0926702E092BD
:10020000660288E692E062E072E04AE00E948F0AAD
:100210001F910F91FF90EF90DF90CF90BF90AF9024
:1002200008950F931F93CF93DF939C01EA01CA01B6
:100230000196039790F48B01065F1F4F000F111F6B
:10024000020F131FF8018081918164E00E94180B56
:10025000F8018081918160E026C0665F7F4F1416AF
:10026000150684F48B01000F111F020F131FF801F4
:100270008081918161E00E94180BF8018081918159
:100280006C2F11C08B01000F111F020F131FF801FB
:100290008081918162E00E94180BCE018195682FC8
:1002A000F801808191810E94B90ADF91CF911F915D
:1002B0000F9108952F923F924F925F926F927F928B
:1002C0008F929F92AF92BF92CF92DF92EF92FF9266
:1002D0000F931F93DF93CF93CDB7DEB7A6970FB6DB
:1002E000F894DEBF0FBECDBF988F8F8B7B016A0164
:1002F00059018DE194E060E071E00E94260F8DE1EC
:1003000094E0B7014AE050E00E94F70E8DE194E0DE
:1003100064E071E00E94260F8DE194E0B6014AE0AE
:1003200050E00E94F70E8DE194E069E071E00E94D8
:10033000260F8DE194E0B8014AE050E00E94F70EEC
:100340008DE194E062E171E00E94260F8DE194E07E
:10035000B5014AE050E00E94F70E8DE194E069E1BA
:1003600071E00E94260FC8010F3F110519F014F02B
:100370008FEF90E04C0197FF02C088249924C701B9
:100380008C199D098A199B09AA2797FDA095BA2F58
:1003900089839A83AB83BC83C6018E0D9F1D8A1906
:1003A0009B09AA2797FDA095BA2F8D839E83AF83C3
:1003B000B887C6018E199F098A199B09AA2797FD3C
:1003C000A095BA2F89879A87AB87BC8788279927FA
:1003D0008E199F098C199D098A199B09AA2797FDD7
:1003E000A095BA2F8D879E87AF87B88B9E012F5F10
:1003F0003F4F3A8B298B8901CC24DD24EE24FF2446
:10040000AE014F5E5F4F5EA34DA3D8016D917D910C
:100410008D919C9197FF07C09095809570956195FF
:100420007F4F8F4F9F4F0E943D136B8B7C8B8D8B2B
:100430009E8BB601C7012B893C894D895E890E943C
:100440009B1287FD06C0C601D7018B8B9C8BAD8BA1
:10045000BE8B0C5F1F4FEDA1FEA10E171F0739F0D9
:100460008B899C89AD89BE896C017D01CECF7401D9
:100470000027F7FC0095102FC801B7010E943D131B
:100480009B01AC016B897C898D899E890E942F1408
:1004900018160CF05CC029883A882B893C894D8954
:1004A0005E895058298F3A8F4B8F5C8F8827992708
:1004B000881999099C01442737FD4095542F2D8FA9
:1004C0003E8F4F8F58A3D801C701E9A29AA3ABA3CF
:1004D000BCA300D000D0CDB6DEB60894C11CD11CA0
:1004E000D1014D905D906D907C90698D7A8D8B8D52
:1004F0009C8D0E940A134B015C016B897C898D895C
:100500009E890E940A137B018C0129A1F601208398
:100510003AA131834BA142835CA15383C301B20151
:10052000A5019401AD8CBE8CCF8CD8A00E94390F50
:10053000D1016D937D938D939D931D010F900F902D
:100540000F900F90EDA1FEA1AE17BF0711F600E0CE
:1005500010E0A989BA894D915C918F89988DB80175
:1005600060DE0F5F1F4FE989FA893496FA8BE98BB9
:100570000430110571F7A6960FB6F894DEBF0FBED2
:10058000CDBFCF91DF911F910F91FF90EF90DF9042
:10059000CF90BF90AF909F908F907F906F905F9023
:1005A0004F903F902F9008952F923F924F925F92DD
:1005B0006F927F928F929F92AF92BF92CF92DF9273
:1005C000EF92FF920F931F93DF93CF93CDB7DEB7D8
:1005D00028970FB6F894DEBF0FBECDBF08C08DE1DF
:1005E00094E00E94230D682F88E692E062D78DE1A7
:1005F00094E00E94F20C892B91F78091CC02882321
:1006000009F4AEC01092CC026091CD026090CE028F
:1006100000D000D00DB71EB70F5F1F4F70E080E015
:1006200090E00E943B130E940A1327E631E040E06D
:1006300050E0F801208331834283538320E030E08F
:1006400040E050E0FFEFEF2EF12C012D112DAA24F8
:10065000BB2465010E94390F1B012C016091CF0260
:1006600070E080E090E00E943B136D837E838F8377
:1006700098870DB71EB70F5F1F4F772488249924E2
:10068000C401B3010E943B130E940A1328E631E023
:1006900040E050E0F801208331834283538320E01F
:1006A00030E040E050E0EFEFEE2EF12C012D112D67
:1006B0000E94390F69837A838B839C83C201B101C5
:1006C0000E943D132BED3FE049E450E40E943314B7
:1006D00020E030E044E353E40E94A2127B018C014D
:1006E0000F900F900F900F90C8010E949F125B0116
:1006F0006C01B701C8010E9496147B018C016D81C9
:100700007E818F819885A60195010E9433140E94F5
:100710000A131B012C016D817E818F819885A801B0
:1007200097010E9433140E940A133B014C01698116
:100730007A818B819C810E943D130E940A135B0188
:100740006C016D817E818F8198850E940A137B01E7
:100750008C018CE492E0B101A30195018701AADD2F
:1007600028960FB6F894DEBF0FBECDBFCF91DF91B4
:100770001F910F91FF90EF90DF90CF90BF90AF90BF
:100780009F908F907F906F905F904F903F902F90B1
:1007900008950F931F938DE194E06BE171E00E9447
:1007A000280F8091CA029091CB02039739F08DE116
:1007B00094E067E271E00E94280F13C06091B602D6
:1007C0007091B7024091B8025091B9022091BA02DB
:1007D0003091BB020091BC021091BD028CE492E00A
:1007E00069DD1F910F9108950F931F938DE194E0A0
:1007F00066E471E00E94280F8091CA029091CB02BA
:10080000049739F08DE194E060E571E00E94280FD3
:1008100013C06091B6027091B7024091B802509136
:10082000B9022091BA023091BB020091BC02109132
:10083000BD028CE492E03EDD1F910F9108950F936D
:100840001F930DE114E0C80168E671E00E94280FD3
:10085000C8016CE671E00E94280FC80162E871E0EF
:100860000E94280F1F910F910895EF92FF920F930E
:100870001F937C010DE114E0C8016CE871E00E9457
:10088000260FC801B7010E94260FC8016EE971E06A
:100890000E94280F1F910F91FF90EF9008958DE116
:1008A00094E060EA71E00E94280F82E061E00C941D
:1008B000B2108DE194E064EA71E00E94280F82E0BA
:1008C00060E00C94B2100F931F9382E061E00E94ED
:1008D000731082E061E00E94B21010924F021092F9
:1008E0004E0210925302109252028FEF90E09093BA
:1008F00051028093500210924C0288E692E065E328
:1009000074E025D481E090E00E942E100DE114E007
:10091000C80140E855E260E070E0DDD7C80167EA51
:1009200071E00E94280F09E113E0C80166E070E061
:10093000D1D1C80169ED74E026D1C80165EB70E042
:1009400027D161E070E080E090E00E94D50F1F9118
:100950000F910895CF93DF938DE194E064EB71E004
:100960000E94280FC0E6D2E08881998161E060D6BC
:1009700068EE73E080E090E00E94D50F8881998155
:1009800062E056D668EE73E080E090E00E94D50FFA
:100990008991999164E04CD668EE73E080E090E034
:1009A0000E94D50F82E0C836D807F1F6DF91CF91CB
:1009B00008951F93DF93CF9300D0CDB7DEB789E1C1
:1009C00093E089D089831981112319F01130F1F452
:1009D0000CC089E193E07FD08A838A8160E0811135
:1009E00061E082E00E94B21011C089E193E073D00F
:1009F0008093CD0289E193E06ED08093CE0289E1AD
:100A000093E069D08093CF021093CC020F900F90A7
:100A1000CF91DF911F9108958091CA029091CB02EE
:100A2000019731F08DE194E060EC71E00C94280FB7
:100A30008DE194E064ED71E00E94260F6091B602B2
:100A40007091B7028DE194E04AE050E00E94090FF6
:100A50008091B6029091B702609152027091530258
:100A60008617970744F060915002709151028617E3
:100A700097070CF4BC0170934F0260934E02809173
:100A800060029091610275D580916202909163023B
:100A900060914E026ED580916402909165026091E2
:100AA0004E0267D5809166029091670260914E0276
:100AB00060C50C94A3110895FC018CE292E091832F
:100AC000808308952091F10230E08091F002281B8C
:100AD0003109C90108954091F0028091F10248174F
:100AE00018F02FEF3FEF0AC0E42FF0E0E053FD4F86
:100AF0008081282F30E04F5F4093F002C9010895B4
:100B0000E091F0028091F102E81718F0EFEFFFEFAB
:100B100006C0F0E0E053FD4F8081E82FF0E0CF0108
:100B200008950895AC012091170330911803211501
:100B30003105E1F09091F0028091F1029817B0F048
:100B400090E008C0FA01EA0FFB1F8081A053BD4F5F
:100B50008C939F5FA92FB0E0A617B7079CF3109264
:100B6000F0026093F102CB01F90109950895E0913B
:100B70001503F0911603309729F01092120310928A
:100B8000130309950895709318036093170308954C
:100B90007093160360931503089510921C0310922E
:100BA0001B0388EE93E0A0E0B0E080931D039093D8
:100BB0001E03A0931F03B09320038CE292E0909356
:100BC0001A038093190308958CE292E090931A031C
:100BD000809319030895FC018CE292E09183808355
:100BE000CF0167CFCF92DF92EF92FF920F931F93C7
:100BF000CF93DF937C016B018A01809114038823DA
:100C0000A1F0C0E0D0E00DC0D701ED91FC91D6017C
:100C1000AC0FBD1F0190F081E02DC7016C910995CB
:100C20002196C017D10780F303C0CB01642F58D0A1
:100C3000C801DF91CF911F910F91FF90EF90DF904E
:100C4000CF900895DF93CF930F92CDB7DEB7FC011D
:100C50006983809114038823C9F080911303803243
:100C600038F081E090E09383828320E030E014C08C
:100C700080911203E82FF0E0EE50FD4F99819083B0
:100C80008F5F809312038093130304C0CE010196FB
:100C900061E026D021E030E0C9010F90CF91DF91D3
:100CA00008951092F0021092F10210921203109225
:100CB0001303CCC10F931F938C01862F0DD087EBAC
:100CC00095E02ED082E995E026D0C801EADF1F9199
:100CD0000F910895EFCF0895880F8093BA0008957B
:100CE000482F613210F081E0089580914A038430EA
:100CF00011F082E0089560937003A3E7B3E0842FBE
:100D00009C01F90102C081918D938E2F841B86175F
:100D1000D0F380E0089590936E0380936D0308955F
:100D2000909372038093710308951F920F920FB6F0
:100D30000F9211242F933F934F935F936F937F9361
:100D40008F939F93AF93BF93EF93FF938091B900DD
:100D500090E0887F90708036910509F4F2C081366A
:100D60009105CCF58832910509F47BC08932910553
:100D7000B4F48031910509F46FC0813191053CF4E0
:100D8000009709F447C1089709F04FC165C0883141
:100D9000910509F466C0809709F047C182C080348C
:100DA000910509F4A4C08134910544F48033910580
:100DB00009F482C0C89709F038C189C0803591050F
:100DC00009F489C08835910509F496C088349105E5
:100DD00009F02BC1AEC08839910509F413C18939D6
:100DE0009105ECF48837910509F4ABC0893791057A
:100DF0004CF48836910509F4A4C08037910509F0B8
:100E000014C19FC08838910509F4FCC08039910550
:100E100009F49DC08038910509F007C198C0803B56
:100E2000910509F4C6C0813B91054CF4803A9105C7
:100E300009F49FC0883A910509F0F7C0BAC0803C18
:100E4000910509F4E3C0883C910509F4DFC0883BB3
:100E5000910509F0EAC0C2C0809125038093BB00D0
:100E6000CFC09091260380912703981768F4909142
:100E70002603E92FF0E0E85DFC4F80818093BB0002
:100E80009F5F90932603BCC080914803882309F498
:100E90004BC085ED8093BC008091BC0084FDFCCFED
:100EA000C2C080E280934B0385ED8093BC008091AB
:100EB000BC0084FDFCCFB7C080E380934B0385ED7D
:100EC0008093BC008091BC0084FDFCCFACC088E363
:100ED00080934B039BC0809126039091BB00E82F29
:100EE000F0E0E85DFC4F90838F5F80932603909144
:100EF00026038091270382C0809126039091BB0036
:100F0000E82FF0E0E85DFC4F90838F5F809326032D
:100F100080914803882341F085ED8093BC00809147
:100F2000BC0084FDFCCF7FC081E08093490384EA4C
:100F30006EC085ED8093BC008091BC0084FDFCCF29
:100F400072C083E080934A0310924C0359C0809191
:100F50004C03803208F056C080914C039091BB0046
:100F6000E82FF0E0E35BFC4F90838F5F80934C03AE
:100F700047C080914C03803230F4E0914C03F0E0A4
:100F8000E35BFC4F108285ED8093BC008091BC0038
:100F900084FDFCCF10924A0360914C03E0916D03F5
:100FA000F0916E038DE493E070E0099510924C038C
:100FB0002DC084E080934A0310926F031092700357
:100FC000E0917103F0917203099580917003882379
:100FD00029F481E0809370031092730390916F0362
:100FE000E92FF0E0ED58FC4F80818093BB009F5FBC
:100FF00090936F0390916F0380917003981710F492
:1010000085EC01C085E88093BC000FC085EC80931F
:10101000BC0009C010924B0385ED8093BC00809109
:10102000BC0084FDFCCF10924A03FF91EF91BF9169
:10103000AF919F918F917F916F915F914F913F9170
:101040002F910F900FBE0F901F90189510924A038A
:1010500081E0809348031092490382E161E00E949D
:10106000B21083E161E00E94B210E9EBF0E0808110
:101070008E7F808380818D7F808388E48093B80019
:1010800085E48093BC000895CF93DF93FC01EE5973
:10109000FF4FA081B181E256F040AA30B105C4F5FE
:1010A000EB0120E030E070E01DC068816D3211F48A
:1010B00071E017C0862F80538A3098F4C901880FD9
:1010C000991F880F991F880F991F220F331F820FB6
:1010D000931F262F332727FD309520533040280FAC
:1010E000391F2196C417D50701F7772319F03095DA
:1010F00021953F4F9796AA0FBB1FAE0FBF1F2D9391
:101100003C93EE59FF4F80819181019691838083BA
:10111000DF91CF910895CF93DF93EC01C45BDF4F54
:10112000E881F981CC54D040309711F0099505C081
:10113000EB81FC81CE0108960995C45BDF4F1982D3
:101140001882669619821882DF91CF910895FC016A
:10115000748363830895CF92DF92EF92FF920F938F
:101160001F93CF93DF93DC016B018A01061B170BE2
:10117000FC01E45BFF4F11821082CD91DC917F0175
:101180000CC0C601A8010E94A700009729F48A811B
:101190009B81F701918380832496F701808191815F
:1011A000892B29F4688179816115710551F7DF91E7
:1011B000CF911F910F91FF90EF90DF90CF90089506
:1011C000AF92BF92CF92DF92EF92FF920F931F9355
:1011D000CF93DF937C01EC01289629E430E0E20E06
:1011E000F31EF701808127EB3FEFE20EF31EC82EBE
:1011F000DD2489E090E0C80ED91ECE0CDF1CECE4A3
:10120000F0E0EE0EFF1EF7011182108226E130E0C1
:10121000E20EF31EF701118210822EE93FEFE20E7B
:10122000F31E01C02196CC15DD0509F437C1888174
:101230008930C1F38032B1F3BE018B3524F0815681
:101240008A3120F02BC181340CF428C18E010F5F4C
:101250001F4F0C151D0509F421C1F80180818A304A
:10126000C1F08B302CF48823A1F0893031F4C3C055
:101270008D3079F0803209F4BEC0813424F480537B
:101280008A3028F30BC18B3514F381568A31F8F27A
:1012900005C15E01C701B501A8015DDF05C05E01A2
:1012A000C701BE01A801F0DEE8012196CC15DD05DD
:1012B00009F4F0C088818A30C1F38B301CF4882394
:1012C000A1F3ECC08D3089F38B3309F0E7C0C7017F
:1012D000B501AE0120DF2196CC15DD0509F4DEC095
:1012E00088818930C1F38032B1F3BE018B3524F09F
:1012F00081568A3120F0D2C081340CF4CFC08E01E7
:101300002C2F9D2F0F5F1F4F0C151D0509F4C6C014
:10131000F8018081A22EB92E8A3009F4BBCF8B3020
:1013200034F4882309F4B6CF893031F411C08D30FC
:1013300009F4B0CF803261F0813424F480538A30D4
:1013400008F3ACC08B35F4F281568A31D8F2A6C0CE
:10135000C701A80100DF03C0C701A80195DE5E0137
:10136000E8012196CC15DD0509F498C088818D30FF
:1013700009F49BCF8E304CF4893099F38A3009F40C
:1013800094CF882309F491CF06C08B3251F08D326F
:1013900041F0803231F380538A3008F07FC08E01F3
:1013A0000CC08E010F5F1F4F0C151D0509F476C090
:1013B000898180538A3008F071C0BE010F5F1F4FD2
:1013C0000C151D0509F46AC0F80180818A3009F402
:1013D00066CF8B3034F4882309F461CF893039F437
:1013E000BBCF8D3009F45BCF803209F4B5CF805389
:1013F0008A3020F353C0C701A801ADDE03C0C70186
:10140000A80142DE5E01E8012196CC15DD0509F454
:1014100045C088818D3081F08E303CF48930A1F355
:101420008A3051F0882341F009C08B3261F08D324F
:1014300051F0803219F4E8CF8E0136CF80538A30D4
:1014400068F58E010AC08E010F5F1F4F0C151D0538
:1014500029F1898180538A3008F5BE010F5F1F4F43
:101460000C151D05D9F0F80180818A3009F417CFD9
:101470008B3034F4882309F412CF893039F4BFCF8C
:101480008D3009F40CCF803209F4B9CF80538A3003
:1014900028F304C0C701B501AE013DDEDF91CF9155
:1014A0001F910F91FF90EF90DF90CF90BF90AF9082
:1014B00008951F93CF93DF93EC01162F6D3011F039
:1014C0006A3039F4CE017CDE1886C75BDF4F1882A4
:1014D00022C0862F992787FD90950E94E414892BBE
:1014E00069F0DE01A75BBF4F8C918034A0F4FE0150
:1014F000E80FF11D10878F5F8C930AC0183059F4E4
:10150000FE01E75BFF4F8081882329F081508083B3
:10151000C80FD11D1886DF91CF911F9108950F93A9
:101520001F938C01FC0171836083128214821382E9
:101530004783065B1F4FF801118210820A54104046
:10154000C801059660E072E00E94A000F8011086D4
:10155000075B1F4FF80110820D5F1F4FF8011182CA
:1015600010820A5E1F4FF801118210821F910F91A5
:101570000895FC01E081E23069F0E33018F4E130D5
:1015800079F405C0E33049F0E43051F408C06093C9
:10159000B30008956093B400089567BD089568BDD1
:1015A00008950895E0EBF0E0908193689083877050
:1015B0008093B1001092B3008BE061E094C5E0EB42
:1015C000F0E090819362908387708093B1001092D5
:1015D000B40083E061E087C5CF93DF938CE060E0E7
:1015E000C1D588E060E0BED5C7E0D0E084E060E02F
:1015F000B9D58091940390E00C2E02C09595879503
:101600000A94E2F780FF03C088E061E002C088E04E
:1016100060E0A8D584E061E0A5D521978FEFCF3FAA
:10162000D80721F78CE061E09DD5DF91CF91089537
:10163000FC01E081E23061F0E33020F4E13009F0B8
:101640005AC009C0E33051F0E43009F054C009C079
:1016500041E054E008C042E053E005C045E057E0F7
:1016600002C040E056E06230C1F0643069F16130A0
:1016700009F041C081E090E09C0102C0220F331FBD
:101680005A95E2F7209502C0880F991F4A95E2F714
:1016900040919403482B242312C081E090E09C01E8
:1016A00002C0220F331F4A95E2F720954091940320
:1016B000242302C0880F991F5A95E2F7282B209304
:1016C000940383E993E088CF81E090E09C0102C01D
:1016D000220F331F4A95E2F702C0880F991F5A95CF
:1016E000E2F7822B80952091940328232093940382
:1016F00083E993E071CF08950F931F938C018CE0E1
:1017000061E0F1D487E061E0EED488E061E0EBD401
:1017100084E061E0E8D410929403C8015DDF87E0C3
:1017200060E020D51F910F9108950F931F93FC0146
:10173000162F042F6083418383E993E0DDDF1230AD
:10174000B1F0133020F4113009F039C005C0133066
:10175000C9F01430A1F524C080919403837F809355
:10176000940383E993E038DF802F1CDF28C0809149
:1017700094038D7E8093940383E993E02DDF802F83
:101780001EDF1DC0809194038F758093940383E9BD
:1017900093E022DF84B5836884BD17BC86E00DC06A
:1017A000809194038E7B8093940383E993E014DF0C
:1017B00084B5836284BD18BC85E061E094D41F9138
:1017C0000F91089508951F920F920FB60F92112452
:1017D0002F933F934F938F939F93EF93FF9380911A
:1017E000C00082FD1DC04091C6002091D5033091FC
:1017F000D6032F5F3F4F2F7330708091D7039091A6
:10180000D8032817390771F0E091D503F091D6037A
:10181000EB56FC4F40833093D6032093D50302C090
:101820008091C600FF91EF919F918F914F913F91D1
:101830002F910F900FBE0F901F901895E0912904E3
:10184000F0912A04E05CFF4F8191919120813181D8
:10185000821B930B8F739070892B09F0B3CF08957F
:101860001F920F920FB60F9211242F933F938F93D5
:101870009F93EF93FF932091190430911A04809164
:101880001B0490911C042817390731F48091C10082
:101890008F7D8093C10014C0E0911B04F0911C0463
:1018A000E752FC4F208180911B0490911C0401960B
:1018B0008F73907090931C0480931B042093C60038
:1018C000FF91EF919F918F913F912F910F900FBEBC
:1018D0000F901F901895AF92BF92DF92EF92FF92F8
:1018E0000F931F93CF93DF93EC017A018B01DD24DB
:1018F000403081EE580780E0680780E0780711F0FB
:10190000DD24D39491E0A92EB12CEC89FD89DD2052
:1019100069F0C50108A002C0880F991F0A94E2F778
:10192000808360E079E08DE390E005C0108260E89C
:1019300074E88EE190E0A80197010E940C152150F7
:10194000304040405040569547953795279580E167
:101950002030380720F0DD2011F0DD24D6CFE889D3
:10196000F9893083EA89FB89208319A2EE89FF89EE
:10197000408121E030E0C9010C8C02C0880F991F22
:101980000A94E2F7482B4083EE89FF894081C90120
:101990000D8C02C0880F991F0A94E2F7482B4083F0
:1019A000EE89FF894081C9010E8C02C0880F991F02
:1019B0000A94E2F7482B4083EE89FF8980810F8CDF
:1019C00002C0220F331F0A94E2F7209528232083B8
:1019D000DF91CF911F910F91FF90EF90DF90BF901B
:1019E000AF900895DC011C96ED91FC911D97E05C91
:1019F000FF4F2191319180819181281B390B2F73E9
:101A00003070C9010895DC011C96ED91FC911D9781
:101A1000E05CFF4F20813181E054F040DF01AE5B9C
:101A2000BF4F8D919C9111972817390719F42FEF0B
:101A30003FEF07C08D919C91E80FF91F8081282FFF
:101A400030E0C9010895DC011C96ED91FC911D97D1
:101A5000E05CFF4F20813181E054F040DF01AE5B5C
:101A6000BF4F8D919C9111972817390719F42FEFCB
:101A70003FEF10C08D919C911197E80FF91F2081C5
:101A80008D919C91119701968F73907011969C93F4
:101A90008E9330E0C9010895DC0191968C91919765
:101AA000882339F05496ED91FC915597808186FFFB
:101AB000F9CF91961C920895CF93DF93EC01EE85B8
:101AC000FF85E05CFF4F20813181E054F0402F5FC3
:101AD0003F4F2F733070DF01AE5BBF4F8D919C91F4
:101AE000119728173907D1F3E05CFF4F808191816E
:101AF000E054F040E80FF91F6083EE85FF85E05C5D
:101B0000FF4F31832083EE89FF89208181E090E0BF
:101B10000F8C02C0880F991F0A94E2F7282B2083AC
:101B200081E089A3EC89FD8980818064808381E0E4
:101B300090E0DF91CF9108951092200410921F043D
:101B400088EE93E0A0E0B0E080932104909322041B
:101B5000A0932304B093240480E492E090931E04A5
:101B600080931D0485E993E090932A0480932904CF
:101B700089ED93E090932C0480932B0485EC90E006
:101B800090932E0480932D0484EC90E09093300485
:101B900080932F0480EC90E0909332048093310482
:101BA00081EC90E0909334048093330482EC90E0D5
:101BB000909336048093350486EC90E0909338043B
:101BC0008093370484E08093390483E080933A045F
:101BD00087E080933B0485E080933C0481E0809320
:101BE0003D040895CF92DF92EF92FF920F931F93DF
:101BF000CF93DF937C016B018A01C0E0D0E00FC07E
:101C0000D6016D916D01D701ED91FC910190F081AC
:101C1000E02DC7010995C80FD91F015010400115CB
:101C2000110571F7CE01DF91CF911F910F91FF90B8
:101C3000EF90DF90CF900895EF92FF920F931F9354
:101C40008C01DC01ED91FC910190F081E02D6DE0C3
:101C500009957C01D801ED91FC910190F081E02D76
:101C6000C8016AE009959C012E0D3F1DC9011F9115
:101C70000F91FF90EF900895CF93DF93EC016115E2
:101C8000710519F420E030E00FC0DB010D90002059
:101C9000E9F71197A61BB70BE881F9810280F38160
:101CA000E02DAD0109959C01C901DF91CF91089507
:101CB0004F925F927F928F929F92AF92BF92CF92FC
:101CC000DF92EF92FF920F931F93DF93CF93CDB7E5
:101CD000DEB7A1970FB6F894DEBF0FBECDBF2C01C3
:101CE000742ECB01223008F42AE019A231E2C32E6F
:101CF000D12CCC0EDD1E822E9924AA24BB24672D64
:101D0000752FA501940188D679018A01C801B70110
:101D1000A501940162D6472D461B0894C108D1083D
:101D20004A3014F4405D01C0495CF6014083E1147F
:101D3000F1040105110521F07E2C5F2DC801DFCFD4
:101D4000C201B60199DFA1960FB6F894DEBF0FBEAF
:101D5000CDBFCF91DF911F910F91FF90EF90DF905A
:101D6000CF90BF90AF909F908F907F905F904F905B
:101D70000895CF92DF92EF92FF920F931F93CF932C
:101D8000DF93EC016A017B012115310541F4E88103
:101D9000F9810190F081E02D642F09951DC02A3052
:101DA0003105C9F477FF16C0E881F9810190F0810F
:101DB000E02D6DE209958C0144275527BA014C1995
:101DC0005D096E097F09CE012AE072DF9801280FB4
:101DD000391F03C02AE06CDF9C01C901DF91CF915C
:101DE0001F910F91FF90EF90DF90CF900895EF92A9
:101DF000FF920F931F937B019A010027F7FC009538
:101E0000102FB801A701B5DF1F910F91FF90EF9040
:101E10000895CF92DF92EF92FF920F931F936C0180
:101E20007B019A010027F7FC0095102FB801A7014C
:101E3000A0DF8C01C60100DF080F191FC8011F9128
:101E40000F91FF90EF90DF90CF90089515CF0895F8
:101E5000EF92FF920F931F937C010EDF8C01C7015D
:101E6000EBDE080F191FC8011F910F91FF90EF9033
:101E700008952F923F924F925F926F927F928F922E
:101E80009F92AF92BF92CF92DF92EF92FF920F9309
:101E90001F93DF93CF93CDB7DEB73B014C01190100
:101EA0002A016D897E898F89988D6A197B098C0931
:101EB0009D09621A730A840A950AA40193018DD5BB
:101EC000E218F30804091509A8019701C7D52A0DDE
:101ED0003B1D4C1D5D1DB901CA01CF91DF911F91C2
:101EE0000F91FF90EF90DF90CF90BF90AF909F90B9
:101EF0008F907F906F905F904F903F902F900895BC
:101F0000CF93DF93B5D00E946304CEE1DCE00E9462
:101F1000D4022097E1F392DCFACF1F920F920FB612
:101F20000F9211242F933F938F939F93AF93BF935F
:101F30008091430490914404A0914504B0914604DB
:101F4000309147040196A11DB11D232F2D5F2D3720
:101F500020F02D570196A11DB11D209347048093B9
:101F6000430490934404A0934504B09346048091A5
:101F70003F0490914004A0914104B0914204019625
:101F8000A11DB11D80933F0490934004A093410490
:101F9000B0934204BF91AF919F918F913F912F9148
:101FA0000F900FBE0F901F9018959B01AC017FB74B
:101FB000F89480913F0490914004A0914104B09125
:101FC000420466B5A89B05C06F3F19F00196A11D9C
:101FD000B11D7FBFBA2FA92F982F8827860F911D7B
:101FE000A11DB11D62E0880F991FAA1FBB1F6A9532
:101FF000D1F7BC012DC0FFB7F89480913F049091B8
:102000004004A0914104B0914204E6B5A89B05C0EC
:10201000EF3F19F00196A11DB11DFFBFBA2FA92FE7
:10202000982F88278E0F911DA11DB11DE2E0880F0A
:10203000991FAA1FBB1FEA95D1F7861B970B885ED5
:102040009340C8F2215030404040504068517C4F8E
:10205000211531054105510571F60895019739F0B3
:10206000880F991F880F991F02970197F1F708951C
:10207000789484B5826084BD84B5816084BD85B563
:10208000826085BD85B5816085BDEEE6F0E080812A
:1020900081608083E1E8F0E010828081826080834B
:1020A000808181608083E0E8F0E0808181608083CE
:1020B000E1EBF0E0808184608083E0EBF0E0808100
:1020C00081608083EAE7F0E08081846080838081A2
:1020D000826080838081816080838081806880834A
:1020E0001092C1000895CF93DF93482F50E0CA01AA
:1020F00088549F4FFC0134914C555F4FFA018491F5
:10210000882369F190E0880F991FFC01EA57FF4F7F
:10211000A591B491FC01E057FF4FC591D49166237E
:1021200051F42FB7F8948C91932F909589238C9329
:10213000888189230BC0623061F42FB7F8948C91A9
:10214000932F909589238C938881832B88832FBF2D
:1021500006C09FB7F8948C91832B8C939FBFDF911F
:10216000CF910895482F50E0CA0184539F4FFC013E
:102170002491CA0188549F4FFC0194914C555F4FA4
:10218000FA013491332309F440C0222351F1233062
:1021900071F0243028F42130A1F0223011F514C060
:1021A0002630B1F02730C1F02430D9F404C080913A
:1021B00080008F7703C0809180008F7D80938000A6
:1021C00010C084B58F7702C084B58F7D84BD09C0EF
:1021D0008091B0008F7703C08091B0008F7D809395
:1021E000B000E32FF0E0EE0FFF1FE057FF4FA59187
:1021F000B4912FB7F894662321F48C91909589239C
:1022000002C08C91892B8C932FBF08950F931F933D
:10221000CF93DF93BC018230910510F462E070E04F
:10222000E0914A04F0914B0440E050E0A0E0B0E0BF
:1022300024C08081918186179707D0F08617970771
:1022400071F482819381109729F013969C938E9359
:1022500012972CC090934B0480934A0427C04115D9
:10226000510519F08417950718F48D01AC01EF01A1
:10227000DF01828193819C01F9013097D1F64115EC
:102280005105F9F0CA01861B970B8430910580F443
:102290008A819B810115110521F0F80193838283C6
:1022A00004C090934B0480934A04FE01329645C0CB
:1022B000FE01E80FF91F6193719302979983888358
:1022C0003CC08091480490914904892B41F480914D
:1022D00024029091250290934904809348044091F0
:1022E0002602509127024115510541F44DB75EB7C2
:1022F0008091220290912302481B590B209148049F
:102300003091490424173507B0F4CA01821B930B9E
:102310008617970780F0AB014E5F5F4F84179507D4
:1023200050F0420F531F5093490440934804F90161
:102330006193719302C0E0E0F0E0CF01DF91CF91B3
:102340001F910F910895CF93DF939C01009709F49B
:102350008FC0EC0122971B821A8260914A0470910F
:102360004B046115710581F488819981820F931F57
:1023700020914804309149042817390739F5D09342
:102380004904C093480474C0DB0140E050E0AC173E
:10239000BD0708F1BB83AA83FE0121913191E20FB1
:1023A000F31FAE17BF0779F48D919C911197280FF9
:1023B000391F2E5F3F4F3983288312968D919C9150
:1023C00013979B838A834115510571F4D0934B0475
:1023D000C0934A044DC012968D919C911397AD0104
:1023E000009711F0DC01D3CFDA011396DC93CE9382
:1023F0001297FA0121913191E20FF31FCE17DF07F7
:1024000069F488819981280F391F2E5F3F4FFA01A7
:10241000318320838A819B8193838283E0E0F0E093
:10242000DB0112968D919C911397009719F0BC01D6
:10243000FD01F6CFAB014E5F5F4FDB018D919C91AB
:10244000840F951F209148043091490428173907BB
:1024500079F4309729F410924B0410924A0402C088
:1024600013821282425050405093490440934804D2
:10247000DF91CF91089569D130F06ED120F031F421
:102480009F3F11F41EF45EC10EF4E095E7FB54C1CA
:10249000E92FBCD180F3BA17620773078407950749
:1024A00018F071F49EF5D4C10EF4E0950B2EBA2FFE
:1024B000A02D0B01B90190010C01CA01A00111244A
:1024C000FF27591B99F0593F50F4503E68F11A16F6
:1024D000F040A22F232F342F4427585FF3CF469587
:1024E00037952795A795F0405395C9F77EF41F16A9
:1024F000BA0B620B730B840BBAF09150A1F0FF0F73
:10250000BB1F661F771F881FC2F70EC0BA0F621F5E
:10251000731F841F48F4879577956795B795F7954E
:102520009E3F08F0B3CF9395880F08F09927EE0FE0
:10253000979587950895DCD008F481E0089514D12B
:10254000E39553C10CD040C107D140F0FED030F02C
:1025500021F45F3F19F0F0C051117BC1F3C056D197
:1025600098F39923C9F35523B1F3951B550BBB275A
:10257000AA2762177307840738F09F5F5F4F220F07
:10258000331F441FAA1FA9F333D00E2E3AF0E0E800
:1025900030D091505040E695001CCAF729D0FE2F4C
:1025A00027D0660F771F881FBB1F261737074807DE
:1025B000AB07B0E809F0BB0B802DBF01FF27935894
:1025C0005F4F2AF09E3F510568F0B6C042C15F3FA1
:1025D000ECF3983EDCF3869577956795B795F7957C
:1025E0009F5FC9F7880F911D9695879597F9089574
:1025F000E1E0660F771F881FBB1F62177307840710
:10260000BA0720F0621B730B840BBA0BEE1F88F71E
:10261000E095089504D06894B1111BC10895FED0CF
:1026200088F09F5790F0B92F9927B751A0F0D1F0BB
:10263000660F771F881F991F1AF0BA95C9F712C045
:10264000B13081F005D1B1E0089502C1672F782F34
:102650008827B85F39F0B93FCCF3869577956795B1
:10266000B395D9F73EF490958095709561957F4F1D
:102670008F4F9F4F0895E89409C097FB3EF49095C3
:102680008095709561957F4F8F4F9F4F9923A9F04B
:10269000F92F96E9BB279395F695879577956795DA
:1026A000B795F111F8CFFAF4BB0F11F460FF1BC01E
:1026B0006F5F7F4F8F4F9F4F16C0882311F096E9B1
:1026C00011C0772321F09EE8872F762F05C066235F
:1026D00071F096E8862F70E060E02AF09A95660F18
:1026E000771F881FDAF7880F9695879597F90895D1
:1026F000990F0008550FAA0BE0E8FEEF1616170613
:10270000E807F907C0F012161306E407F50798F07A
:10271000621B730B840B950B39F40A2661F0232B93
:10272000242B252B21F408950A2609F4A140A6950F
:102730008FEF811D811D089597F99F6780E870E0F4
:1027400060E008959FEF80EC089500240A94161627
:10275000170618060906089500240A94121613068F
:10276000140605060895EECF59D0E8F3E894EFEF8C
:10277000BB273FE048EC5FE76B3D73078407950795
:1027800008F1FF279F57B25A6A4D7F40894CF040AD
:1027900032F4BE556542704F8643FF4F0894EE1FDA
:1027A000915030F0BB0F661F771F881FFF1FEBCFC4
:1027B0009EE7882332F0BB0F661F771F881F9A950C
:1027C000C1F79395E095B8C0092E0394000C11F45D
:1027D000882352F0BB0F40F4BF2B11F460FF04C0FC
:1027E0006F5F7F4F8F4F9F4F0895EF93E0FF06C0BD
:1027F000A2EA2AED3FE049EC5FEB4ADEE5DF0F900D
:10280000039401FC9058E8E6F0E0A6C057FD90580C
:10281000440F551F59F05F3F71F04795880F97FBA4
:10282000991F61F09F3F79F087950895121613065E
:102830001406551FF2CF4695F1DF08C0161617068D
:102840001806991FF1CF86957105610508940895C2
:10285000E894BB2766277727CB0197F9089548DFCF
:1028600008F48FEF08950BD0AFCF6FDF28F074DF3F
:1028700018F0952309F060CF65CF1124EACFC6DFA9
:10288000A0F3959FD1F3950F50E0551F629FF00183
:10289000729FBB27F00DB11D639FAA27F00DB11DDC
:1028A000AA1F649F6627B00DA11D661F829F222765
:1028B000B00DA11D621F739FB00DA11D621F839FEC
:1028C000A00D611D221F749F3327A00D611D231FC2
:1028D000849F600D211D822F762F6A2F11249F5710
:1028E00050408AF0E1F088234AF0EE0FFF1FBB1F33
:1028F000661F771F881F91505040A9F79E3F5105D2
:1029000070F01ACFA6CF5F3FECF3983EDCF38695CC
:1029100077956795B795F795E7959F5FC1F7FE2B7C
:10292000880F911D9695879597F908959F931CDFC1
:102930000F9007FCEE5F59CF9F3F49F0915028F46C
:10294000869577956795B7959F5F80389F4F880FDD
:102950009695879597F908959F938F937F936F939B
:10296000FF93EF939B01AC017EDFEF91FF9105D0C8
:102970002F913F914F915F9176CFDF93CF931F932C
:102980000F93FF92EF92DF927B018C01689405C058
:10299000DA2EEF0174DFFE01E894A59125913591BF
:1029A00045915591AEF3EF0173DDFE019701A8014A
:1029B000DA9479F7DF90EF90FF900F911F91CF910C
:1029C000DF910895803209F0911104C080528F5533
:1029D000E0F70895992788270895629FD001739F93
:1029E000F001829FE00DF11D649FE00DF11D929FAB
:1029F000F00D839FF00D749FF00D659FF00D9927EA
:102A0000729FB00DE11DF91F639FB00DE11DF91F0D
:102A1000BD01CF0111240895A1E21A2EAA1BBB1BF0
:102A2000FD010DC0AA1FBB1FEE1FFF1FA217B3079A
:102A3000E407F50720F0A21BB30BE40BF50B661FB0
:102A4000771F881F991F1A9469F760957095809574
:102A500090959B01AC01BD01CF01089597FB092E14
:102A600005260ED057FD04D0D7DF0AD0001C38F45D
:102A700050954095309521953F4F4F4F5F4F0895AA
:102A8000F6F790958095709561957F4F8F4F9F4F8A
:102A90000895EE0FFF1F0590F491E02D099410E0CA
:102AA000C8EED0E003C0FE01F6DF2296CA3ED10791
:062AB000D1F7F894FFCFFE
:102AB600583A200020593A200020506F7765723A24
:102AC600200020526F743A2000200044697265632A
:102AD60074696F6E616C0064203C68656164696E40
:102AE600673E203C706F7765723E203C726F746162
:102AF60074696F6E3E00486F6C6F6E6F6D69630030
:102B060068203C583E203C593E203C4469723E2099
:102B16003C506F7765723E005241570072203C6D03
:102B2600313E203C6D323E203C6D333E203C6D34C0
:102B36003E0072203C706F7765723E00556E6B6E7C
:102B46006F776E20636F6D6D616E642027002700BE
:102B56004F4646004F4E00496E697469616C697A4A
:102B660065642E00544553540052414E444F4D0067
:102B760053796E7461783A20706F776572203C766F
:102B8600616C3E004D6F746F7220706F77657220B6
:102B960073657420746F2000706F776572007465BA
:102BA6007374006F6E006F666600720068006400E2
:102BB6002000E8010C05EE01AA04F3015904F60110
:102BC6004F04FA011F04FC01F403FE01C9030000CF
:102BD600000080004C040000000000002206F20500
:102BE60062056B05800591055C05EB05000000009C
:0C2BF6005C0DF20DF20C230D030D4C0DD4
:00000001FF
