:1000000062C0000088C0000086C0000084C00000FC
:1000100082C0000080C000007EC000007CC00000E4
:100020007AC0000078C0000076C0000074C00000F4
:1000300072C0000070C000006EC000006CC0000004
:100040000C94B00E68C000000C94900A0C94DD0A69
:1000500062C0000060C000005EC000005CC0000024
:100060005AC0000058C00000000000002400270013
:100070002A0000000000250028002B0000000000DE
:1000800023002600290004040404040404040202DA
:100090000202020203030303030301020408102007
:1000A0004080010204081020010204081020000012
:1000B0000007000201000003040600000000000029
:1000C0000000EE07480C11241FBECFEFD8E0DEBFC2
:1000D000CDBF12E0A0E0B1E0E4E4F2E202C005909E
:1000E0000D92AC32B107D9F713E0ACE2B2E001C037
:1000F0001D92AF37B107E1F710E0C6ECD0E004C0C5
:100100002297FE010E941C11C23CD107C9F70E9430
:10011000A50E0C94201174CFEF92FF920F931F93B2
:100120007B018C0120E030E040E05FE48CD3882349
:100130007CF0C801B70120E030E040E05FE460D12E
:100140008ED49B01AC01205030404040504805C047
:10015000C801B70184D49B01AC01B901CA011F9148
:100160000F91FF90EF900895A0E0B0E0EAEBF0E08F
:100170000C94E310DC012B01FA019C91923008F4FD
:1001800039C1EB018881823008F433C1943069F4BD
:10019000843009F02FC111969C911197898198178D
:1001A00009F428C1A3E1B1E025C1843009F421C1DB
:1001B0008230A9F4923009F01DC19A01AD0188E0A6
:1001C000EA010990AE01E90109929E018150C1F74F
:1001D000E201898111969C918923818308C1923023
:1001E00009F407C112962D903C901397EB018A8178
:1001F0009B811496AD90BD90CD90DC901797EC80CC
:10020000FD800E811F819101281B390BB90137FF39
:1002100004C066277727621B730B603271050CF0F0
:1002200061C0121613066CF537014801062E04C092
:1002300096948794779467940A94D2F721E030E0FB
:1002400040E050E004C0220F331F441F551F6A9541
:10025000D2F721503040404050402E213F214023D2
:100260005123211531054105510521F021E030E0F0
:1002700040E050E079018A01E628F7280829192989
:100280003CC0232BD1F1260E371E35014601062E28
:1002900004C096948794779467940A94D2F721E0E7
:1002A00030E040E050E004C0220F331F441F551FD0
:1002B0006A95D2F721503040404050402A213B21DE
:1002C0004C215D21211531054105510521F021E029
:1002D00030E040E050E059016A01A628B728C8285C
:1002E000D9280BC0821593052CF01C01AA24BB242D
:1002F000650103C0EE24FF24870111969C91D20171
:1003000011968C91981709F445C0992339F0A801EA
:1003100097012A193B094C095D0906C0A601950100
:100320002E193F09400B510B57FD08C01182338233
:10033000228224833583468357831DC081E08183D5
:100340003382228288279927DC01821B930BA40B1E
:10035000B50B84839583A683B7830DC0220F331F0B
:10036000441F551F2483358346835783828193819D
:100370000197938382832481358146815781DA01F5
:10038000C9010197A109B1098F5F9F4FAF4FBF43CB
:1003900028F30BC0918333822282EA0CFB1C0C1DD4
:1003A0001D1DE482F5820683178383E08083248108
:1003B00035814681578157FF1AC0C901AA2797FD89
:1003C000A095BA2F81709070A070B0705695479527
:1003D00037952795822B932BA42BB52B848395835C
:1003E000A683B78382819381019693838283DF0101
:1003F00001C0D201CD01CDB7DEB7E2E10C94FF1010
:10040000A0E2B0E0E6E0F2E00C94EF1069837A83BA
:100410008B839C832D833E834F835887E9E0EE2EA8
:10042000F12CEC0EFD1ECE010196B70106D58E0112
:100430000F5E1F4FCE010596B801FFD48A8991E067
:1004400089278A8BC701B801AE01475E5F4F8CDEFA
:100450001FD4A096E6E00C940B11A0E2B0E0E3E319
:10046000F2E00C94EF1069837A838B839C832D8355
:100470003E834F835887F9E0EF2EF12CEC0EFD1EE2
:10048000CE010196B701D9D48E010F5E1F4FCE0168
:100490000596B801D2D4C701B801AE01475E5F4FDF
:1004A00063DEF6D3A096E6E00C940B11A0E2B0E078
:1004B000ECE5F2E00C94E31069837A838B839C83F0
:1004C0002D833E834F835887CE010196BE01675F1F
:1004D0007F4FB3D4CE010596BE016F5E7F4FADD482
:1004E0009985923088F089898230C8F0943019F467
:1004F000823051F404C0843029F4923081F483E1D5
:1005000091E0C6C0923049F420E09A858A89981318
:1005100021E02A87CE010996BBC0823049F420E051
:100520009A858A89981321E02A8BCE014196B0C022
:100530002D843E844F8458886D887E888F88988C5F
:10054000EE24FF248701AA24BB24650140E050E08B
:1005500060E070E0E0E0F0E0C10181709070892B14
:10056000E9F0E60CF71C081D191D9A01AB012A0DD4
:100570003B1D4C1D5D1D80E090E0A0E0B0E0E61466
:10058000F7040805190520F481E090E0A0E0B0E050
:10059000BA01A901480F591F6A1F7B1FAA0CBB1C77
:1005A000CC1CDD1C97FE08C081E090E0A0E0B0E02C
:1005B000A82AB92ACA2ADB2A3196E032F10549F085
:1005C000660C771C881C991C569447943794279482
:1005D000C3CFFA85EA892B893C898B859C85280FB6
:1005E000391F2E5F3F4F17C0CA0181709070892B51
:1005F00061F016950795F794E79480E090E0A0E00D
:10060000B0E8E82AF92A0A2B1B2B769567955795AF
:1006100047952F5F3F4F77FDE7CF0CC0440F551F25
:10062000661F771F17FD4160EE0CFF1C001F111F96
:1006300021503040403090E0590790E0690790E445
:10064000790760F32B8F3C8FDB01CA018F779070A5
:10065000A070B07080349105A105B10561F447FD2B
:100660000AC0E114F1040105110529F0405C5F4F57
:100670006F4F7F4F40781A8EFE1711F081E08A8FFE
:100680004D8F5E8F6F8F78A383E0898FCE0149965F
:10069000FFD2A096E2E10C94FF10A8E1B0E0E3E500
:1006A000F3E00C94EB1069837A838B839C832D8316
:1006B0003E834F835887B9E0EB2EF12CEC0EFD1EE4
:1006C000CE010196B701B9D38E010F5E1F4FCE0147
:1006D0000596B801B2D32985223008F47EC0398945
:1006E000323010F4B8017CC08A859A8989278A87BC
:1006F000243011F0223031F4231709F06EC063E189
:1007000071E06EC0343039F41D861E861F86188A4B
:100710001C861B8604C0323021F484E08987B7012F
:100720005FC02B853C858B899C89281B390B3C87B6
:100730002B87ED84FE840F851889AD88BE88CF880D
:10074000D88CEA14FB040C051D0540F4EE0CFF1CCC
:10075000001F111F215030403C872B8720E030E0E4
:1007600040E050E080E090E0A0E0B0E460E070E0C5
:10077000EA14FB040C051D0540F0282B392B4A2BED
:100780005B2BEA18FB080C091D09B695A7959795F0
:100790008795EE0CFF1C001F111F6F5F7F4F6F319D
:1007A000710531F7DA01C9018F779070A070B070D0
:1007B00080349105A105B10561F427FD0AC0E1145B
:1007C000F1040105110529F0205C3F4F4F4F5F4FA9
:1007D00020782D873E874F87588BBE01675F7F4FFC
:1007E000CB0156D26896EAE00C940711A8E1B0E07C
:1007F000ECEFF3E00C94EF1069837A838B839C8396
:100800002D833E834F83588789E0E82EF12CEC0E30
:10081000FD1ECE010196B70110D38E010F5E1F4F52
:10082000CE010596B80109D38985823038F08989CF
:10083000823020F0C701B80178D301C08FEF6896ED
:10084000E6E00C940B11A8E1B0E0E9E2F4E00C94CE
:10085000EF1069837A838B839C832D833E834F8340
:10086000588789E0E82EF12CEC0EFD1ECE01019692
:10087000B701E3D28E010F5E1F4FCE010596B8017E
:10088000DCD28985823038F08989823020F0C70136
:10089000B8014BD301C08FEF6896E6E00C940B11C2
:1008A000A8E1B0E0E6E5F4E00C94EF1069837A8308
:1008B0008B839C832D833E834F83588789E0E82E6A
:1008C000F12CEC0EFD1ECE010196B701B6D28E01C1
:1008D0000F5E1F4FCE010596B801AFD289858230D9
:1008E00038F08989823020F0C701B8011ED301C0D9
:1008F00081E06896E6E00C940B11A8E1B0E0E3E833
:10090000F4E00C94EF1069837A838B839C832D83AE
:100910003E834F83588789E0E82EF12CEC0EFD1EB4
:10092000CE010196B70189D28E010F5E1F4FCE0115
:100930000596B80182D28985823038F08989823063
:1009400020F0C701B801F1D201C081E06896E6E06D
:100950000C940B11A8E1B0E0E0EBF4E00C94F31080
:1009600069837A838B839C832D833E834F8358874F
:10097000CE010196BE01675F7F4F5FD2CE01059623
:10098000BE016F5E7F4F59D28985823028F020E00A
:1009900030E08989823010F421E030E0822F6896BF
:1009A000E2E00C940F11A8E0B0E0E9EDF4E00C9463
:1009B000EC109B01AC0183E08983DA01C90188272F
:1009C000B7FD83959927AA27BB27B82E2115310596
:1009D0004105510519F482E0898339C08823A9F0C3
:1009E000203080E0380780E0480780E8580729F485
:1009F00060E070E080E09FEC2EC0EE24FF248701D1
:100A0000E21AF30A040B150B02C079018A018EE188
:100A1000C82ED12CDC82CB82ED82FE820F83188718
:100A2000C801B701E6D001971816190684F4082EFC
:100A300004C0EE0CFF1C001F111F0A94D2F7ED82B8
:100A4000FE820F831887C81AD90ADC82CB82BA8249
:100A5000CE0101961DD12896E9E00C940811ACE076
:100A6000B0E0E5E3F5E00C94F31069837A838B83BF
:100A70009C83CE010196BE016B5F7F4FDED18D81DD
:100A8000823061F1823050F1843021F48E818823EC
:100A900051F12EC02F81388537FD20C06E812F3156
:100AA00031051CF06623F9F023C08EE190E0821B33
:100AB000930B29853A854B855C8504C056954795EF
:100AC000379527958A95D2F76623B1F050954095D2
:100AD000309521953F4F4F4F5F4F0EC020E030E0E3
:100AE00040E050E009C02FEF3FEF4FEF5FE704C059
:100AF00020E030E040E050E8B901CA012C96E2E085
:100B00000C940F11A8E0B0E0E8E8F5E00C94EB10CD
:100B10007B018C01611571058105910519F482E055
:100B200089835FC083E089838EE1C82ED12CDC826B
:100B3000CB82ED82FE820F831887C801B70159D09E
:100B4000FC013197F7FF3BC0222733272E1B3F0BB9
:100B500057016801022E04C0D694C794B794A79495
:100B60000A94D2F740E050E060E070E081E090E06D
:100B7000A0E0B0E004C0880F991FAA1FBB1F2A95F0
:100B8000D2F70197A109B1098E219F21A023B1239A
:100B90000097A105B10521F041E050E060E070E070
:100BA0004A295B296C297D294D835E836F83788771
:100BB0008EE190E08E1B9F0B9C838B8312C030973D
:100BC00081F00E2E04C0EE0CFF1C001F111F0A94B2
:100BD000D2F7ED82FE820F831887CE1ADF0ADC82FD
:100BE000CB821A82CE01019653D02896EAE00C946B
:100BF0000711EF92FF920F931F937B018C0180E00E
:100C0000E81680E0F80681E0080780E0180788F41D
:100C10008FEFE816F1040105110531F028F088E0A6
:100C200090E0A0E0B0E017C080E090E0A0E0B0E08D
:100C300012C080E0E81680E0F80680E0080781E056
:100C4000180728F088E190E0A0E0B0E004C080E15F
:100C500090E0A0E0B0E020E230E040E050E0281B6F
:100C6000390B4A0B5B0B04C016950795F794E79474
:100C70008A95D2F7F701E55EFE4F8081281B310986
:100C800041095109C9011F910F91FF90EF900895FB
:100C9000DF92EF92FF920F931F93FC01E480F580A7
:100CA00006811781D1808081823048F480E090E015
:100CB000A0E1B0E0E82AF92A0A2B1B2BA5C084305A
:100CC00009F49FC0823021F4EE24FF24870105C07F
:100CD000E114F1040105110519F4E0E0F0E096C01B
:100CE000628173819FEF623879070CF05BC022E864
:100CF0003FEF261B370B2A3131052CF020E030E086
:100D000040E050E02AC0B801A701022E04C0769549
:100D10006795579547950A94D2F781E090E0A0E057
:100D2000B0E004C0880F991FAA1FBB1F2A95D2F7F5
:100D30000197A109B1098E219F21A023B12300971A
:100D4000A105B10521F081E090E0A0E0B0E09A01BA
:100D5000AB01282B392B4A2B5B2BDA01C9018F778A
:100D60009070A070B07080349105A105B10539F480
:100D700027FF09C0205C3F4F4F4F5F4F04C0215CED
:100D80003F4F4F4F5F4FE0E0F0E02030A0E03A07E8
:100D9000A0E04A07A0E45A0710F0E1E0F0E0790192
:100DA0008A0127C06038710564F5FB01E158FF4FE7
:100DB000D801C7018F779070A070B0708034910512
:100DC000A105B10539F4E7FE0DC080E490E0A0E094
:100DD000B0E004C08FE390E0A0E0B0E0E80EF91EC0
:100DE0000A1F1B1F17FF05C016950795F794E79478
:100DF000319687E016950795F794E7948A95D1F791
:100E000005C0EE24FF248701EFEFF0E06E2F679519
:100E100066276795902F9F77D794DD24D7948E2FE0
:100E20008695492F462B582F5D29B701CA011F917E
:100E30000F91FF90EF90DF900895FC01DB0140815E
:100E400051812281622F6F7770E0221F2227221F9B
:100E50009381892F880F822B282F30E0991F9927A3
:100E6000991F11969C93119721153105A9F54115EC
:100E700051056105710511F482E037C082E89FEFEA
:100E800013969C938E9312979A01AB0167E0220F01
:100E9000331F441F551F6A95D1F783E08C930DC013
:100EA000220F331F441F551F12968D919C9113974B
:100EB000019713969C938E931297203080E0380709
:100EC00080E0480780E4580758F314962D933D932B
:100ED0004D935C93179708952F3F310579F4411591
:100EE00051056105710519F484E08C93089564FF40
:100EF00003C081E08C9312C01C9210C02F57304069
:100F000013963C932E93129783E08C9387E0440FC3
:100F1000551F661F771F8A95D1F7706414964D93FD
:100F20005D936D937C93179708951F93DC01FB01EC
:100F30009C91923008F447C08081823008F443C00D
:100F4000943051F411961C91843099F58181682F69
:100F500070E0611B71093FC0843021F0923031F4A0
:100F60008230B9F18181882389F12DC011961C91BD
:100F700011978230F1F081811817D9F412962D91D2
:100F80003C911397828193818217930794F02817DD
:100F90003907BCF014968D919D910D90BC91A02DB8
:100FA0002481358146815781281739074A075B0715
:100FB00018F4112341F00AC082179307A407B5075C
:100FC00040F4112319F061E070E005C06FEF7FEF8E
:100FD00002C060E070E0CB011F910895AF92BF9214
:100FE000CF92DF92EF92FF920F931F93CF93DF93F5
:100FF000CCE2D2E040EDA42E47E0B42EC12CD12C9F
:10100000EE24EA94FE2C8701188219821B821A8230
:10101000AC82BD82CE82DF82E886F9860A871B8792
:101020001C861D861E861F86198A188A1A8A1B8AA4
:101030001C8A1D8A1F8A1E8ACE0160E070E0B0D132
:10104000689682E0C43AD807F9F688EE93E0A0E00B
:10105000B0E08093AC029093AD02A093AE02B09347
:10106000AF02C6D66093A8027093A9028093AA0229
:101070009093AB02DF91CF911F910F91FF90EF9072
:10108000DF90CF90BF90AF9008956F927F928F9234
:101090009F92AF92BF92CF92DF92EF92FF920F9307
:1010A0001F93CF93DF93E0EBAE2EE2E0BE2E6501FF
:1010B000C0E0D0E0CE01880F991F8C0F9D1F63E028
:1010C000880F991F6A95E1F7845D9D4FDBD1F6018A
:1010D000E080F180028113818C2F2CD7AA2797FD05
:1010E000A095BA2FBC01CD015EDC9B01AC01C8010B
:1010F000B701B3D9F60161937193819391936F0115
:101100002196C530D105B1F68091C8029091C902EF
:1011100001969093C9028093C8026AD67B018C0124
:101120006093A4027093A5028093A6029093A702F5
:101130008091AC029091AD02A091AE02B091AF024D
:101140002091A8023091A9024091AA025091AB02CD
:10115000820F931FA41FB51F8E159F05A007B1070F
:1011600008F0A4C0E092A802F092A9020093AA029B
:101170001093AB026091B0027091B1028091B20203
:101180009091B30220E030E040E050E066D9209139
:10119000B4023091B5024091B6025091B7025DD9C8
:1011A0002091B8023091B9024091BA025091BB022D
:1011B00054D92091BC023091BD024091BE025091A1
:1011C000BF024BD92091C0023091C1024091C202AE
:1011D0005091C30242D96093C4027093C5028093B8
:1011E000C6029093C7025CE3C52E52E0D52E0F2EA7
:1011F000F0E06F2EF0E07F2EF0E08F2EF0E09F2EDB
:10120000F02DF5016082718282829382F601C081A5
:10121000D1811C161D062CF0A0E050E040E060E0FB
:1012200017C0F60162817381848195816BDC7B013B
:101230008C01BE01882777FD8095982FB4DB9B0138
:10124000AC01C801B70129DAA62F572F482F692F03
:1012500084E593E02A2F352FE42FF62FA901BF0153
:1012600022E030E05FD584E593E060E071E078D47F
:10127000F60112821382148215821182108284E098
:1012800090E0A80EB91EE8E1F0E0CE0EDF1EF4EC0F
:10129000AF16F2E0BF0609F0B4CF81E090E0909382
:1012A000C9028093C80284E593E072D3DF91CF91A5
:1012B0001F910F91FF90EF90DF90CF90BF90AF9074
:1012C0009F908F907F906F900895CF92DF92EF92D2
:1012D000FF920F931F93CF93DF9384E593E040E059
:1012E00052EC61E070E0A4D184E593E062E071E04B
:1012F0001BD58CE292E06EE070E052D084E492E084
:101300006FE070E04DD08CE592E060E170E048D095
:1013100084E792E061E170E043D08CE892E062E122
:1013200070E03ED0B0EBCB2EB2E0DB2EC0E0D0E0E0
:101330000F2EF0E0EF2EF0E0FF2EF0E00F2FF0E0A8
:101340001F2FF02DCE01880F991F8C0F9D1FF3E0EA
:10135000880F991FFA95E1F7845D9D4F6CE271E06B
:101360002CD0F601E192F192019311936F01219635
:10137000C530D10539F71092C9021092C802E09227
:10138000C402F092C5020093C6021093C702DF9117
:10139000CF911F910F91FF90EF90DF90CF90089524
:1013A000FC0160838091CA029091CB02978B868B5F
:1013B000F093CB02E093CA020895FC017383628329
:1013C00081E0818308950F931F938C0111D5E0E094
:1013D000D80118962D913D914D915C911B97621B00
:1013E000730B840B950B14962D913D914D915C914F
:1013F0001797621773078407950708F0E1E08E2FAF
:101400001F910F9108951F93CF93DF93EC01898172
:10141000882331F4888143D6892B11F411E001C06F
:1014200010E08981882311F440E009C0888182D5C9
:1014300040E02A813B81821793070CF441E01111AF
:1014400041E0842FDF91CF911F9108950F931F9357
:101450008C01FC01808160E08FD5F801808160E023
:10146000CAD51F910F9108950F931F938C01FC0112
:10147000808161E081D5F801808161E0BCD51F9158
:101480000F910895CF93DF93EC0188859985AA8504
:10149000BB858F5F9F4FAF4FBF4F21F0CE0193DFD2
:1014A0008823B1F1CE01E0DF61E070E080E090E000
:1014B000ADD4CE01CBDF9CD4688779878A879B87A0
:1014C0002BC096D4288539854A855B85621B730BB2
:1014D000840B950B6C877D878E879F872A893B8934
:1014E0004C895D89260F371F481F591F2A8B3B8B5C
:1014F0004C8B5D8B888999890196998B888B8FEFAE
:101500009FEFAFEFBFEF88879987AA87BB8704C09B
:10151000CE0179DF8823A9F6DF91CF910895089550
:101520001F920F920FB60F9211242F933F934F9358
:101530008F939F93EF93FF938091C00082FD1DC016
:101540004091C60020910C0330910D032F5F3F4F57
:101550002F73307080910E0390910F032817390775
:1015600071F0E0910C03F0910D03E453FD4F4083C3
:1015700030930D0320930C0302C08091C600FF91AD
:10158000EF919F918F914F913F912F910F900FBEAF
:101590000F901F901895E0916003F0916103E05C5B
:1015A000FF4F8191919120813181821B930B8F7329
:1015B0009070892B09F0B3CF08951F920F920FB648
:1015C0000F9211242F933F938F939F93EF93FF9349
:1015D0002091500330915103809152039091530315
:1015E0002817390731F48091C1008F7D8093C100A5
:1015F00014C0E0915203F0915303E05FFC4F20814F
:10160000809152039091530301968F739070909341
:101610005303809352032093C600FF91EF919F9153
:101620008F913F912F910F900FBE0F901F901895A3
:10163000AF92BF92DF92EF92FF920F931F93CF93DF
:10164000DF93EC017A018B01DD24403081EE5807F5
:1016500080E0680780E0780711F0DD24D39491E002
:10166000A92EB12CEC89FD89DD2069F0C50108A007
:1016700002C0880F991F0A94E2F7808360E079E046
:101680008DE390E005C0108260E874E88EE190E0A0
:10169000A801970176D521503040404050405695E2
:1016A00047953795279580E12030380720F0DD20D9
:1016B00011F0DD24D7CFE889F9893083EA89FB89E5
:1016C000208319A2EE89FF89408121E030E0C90121
:1016D0000C8C02C0880F991F0A94E2F7482B4083B4
:1016E000EE89FF894081C9010D8C02C0880F991FC6
:1016F0000A94E2F7482B4083EE89FF894081C901B3
:101700000E8C02C0880F991F0A94E2F7482B408381
:10171000EE89FF8980810F8C02C0220F331F0A944B
:10172000E2F7209528232083DF91CF911F910F911D
:10173000FF90EF90DF90BF90AF900895DC011C9672
:10174000ED91FC911D97E05CFF4F219131918081DB
:101750009181281B390B2F733070C9010895DC016A
:101760001C96ED91FC911D97E05CFF4F208131812B
:10177000E054F040DF01AE5BBF4F8D919C9111971B
:101780002817390719F42FEF3FEF07C08D919C916F
:10179000E80FF91F8081282F30E0C9010895DC018E
:1017A0001C96ED91FC911D97E05CFF4F20813181EB
:1017B000E054F040DF01AE5BBF4F8D919C911197DB
:1017C0002817390719F42FEF3FEF10C08D919C9126
:1017D0001197E80FF91F20818D919C911197019627
:1017E0008F73907011969C938E9330E0C901089589
:1017F000DC0191968C919197882339F05496ED9164
:10180000FC915597808186FFF9CF91961C9208959F
:10181000CF93DF93EC01EE85FF85E05CFF4F2081E5
:101820003181E054F0402F5F3F4F2F733070DF0164
:10183000AE5BBF4F8D919C91119728173907D1F35B
:10184000E05CFF4F80819181E054F040E80FF91F88
:101850006083EE85FF85E05CFF4F31832083EE8956
:10186000FF89208181E090E00F8C02C0880F991FD2
:101870000A94E2F7282B208381E089A3EC89FD8973
:1018800080818064808381E090E0DF91CF91089532
:10189000109257031092560388EE93E0A0E0B0E058
:1018A0008093580390935903A0935A03B0935B031A
:1018B00080E292E090935503809354038CEC92E085
:1018C000909361038093600380E193E090936303BE
:1018D0008093620385EC90E09093650380936403AA
:1018E00084EC90E0909367038093660380EC90E033
:1018F000909369038093680381EC90E090936B036D
:1019000080936A0382EC90E090936D0380936C0364
:1019100086EC90E090936F0380936E0384E0809355
:10192000700383E08093710387E08093720385E006
:101930008093730381E0809374030895CF92DF92C4
:10194000EF92FF920F931F93CF93DF937C016B0174
:101950008A01C0E0D0E00FC0D6016D916D01D701C2
:10196000ED91FC910190F081E02DC7010995C80F20
:10197000D91F015010400115110571F7CE01DF91FB
:10198000CF911F910F91FF90EF90DF90CF9008952E
:10199000EF92FF920F931F938C01DC01ED91FC916C
:1019A0000190F081E02D6DE009957C01D801ED9169
:1019B000FC910190F081E02DC8016AE009959C013D
:1019C0002E0D3F1DC9011F910F91FF90EF900895BB
:1019D000CF93DF93EC016115710519F420E030E03D
:1019E0000FC0DB010D900020E9F71197A61BB70B84
:1019F000E881F9810280F381E02DAD0109959C0118
:101A0000C901DF91CF9108954F925F927F928F929B
:101A10009F92AF92BF92CF92DF92EF92FF920F937D
:101A20001F93DF93CF93CDB7DEB7A1970FB6F8948E
:101A3000DEBF0FBECDBF2C01742ECB01223008F4C7
:101A40002AE019A231E2C32ED12CCC0EDD1E822E4B
:101A50009924AA24BB24672D752FA501940191D345
:101A600079018A01C801B701A50194016BD3472D03
:101A7000461B0894C108D1084A3014F4405D01C0E7
:101A8000495CF6014083E114F1040105110521F0E0
:101A90007E2C5F2DC801DFCFC201B60199DFA19670
:101AA0000FB6F894DEBF0FBECDBFCF91DF911F916F
:101AB0000F91FF90EF90DF90CF90BF90AF909F90ED
:101AC0008F907F905F904F900895DC012115310534
:101AD00041F4ED91FC910190F081E02D642F099586
:101AE000089592CFCF92DF92EF92FF920F931F93C0
:101AF000CF93DF93EC016A017B012115310541F49D
:101B0000E881F9810190F081E02D642F09951DC0D5
:101B10002A303105C9F477FF16C0E881F9810190B8
:101B2000F081E02D6DE209958C0144275527BA011B
:101B30004C195D096E097F09CE012AE065DF980125
:101B4000280F391F03C02AE05FDF9C01C901DF9124
:101B5000CF911F910F91FF90EF90DF90CF9008955C
:101B600037CF08957F928F929F92AF92BF92CF927C
:101B7000DF92EF92FF920F931F93CF93DF934C016D
:101B80007A018B01722ECB01BA01A80197010E9444
:101B9000AA04882321F0C40165E071E021C0C0E0FF
:101BA000D0E057016801E894D7F8C601B5012FEFDE
:101BB0003FEF4FE75FE70E94AA04882351F4C60174
:101BC000B5012FEF3FEF4FE75FE70E947D04181646
:101BD00014F0C1E0D0E0219731F0C40169E071E078
:101BE000F7DEEC0190C0C801B7012FEF3FEF4FE7E0
:101BF0005FE40E94F603181654F0C801B7012FEFF6
:101C00003FEF4FE75FEC0E945004882324F4C401A7
:101C10006DE071E0E5CFC801B70120E030E040E0C1
:101C200050E00E94500487FD03C0C0E0D0E00EC029
:101C3000D401ED91FC910190F081E02DC4016DE2A1
:101C40000995EC0117FB109517F9109520E030E08D
:101C500040E05FE3DD240BC0CA01B90120E030E0C1
:101C600040E251E40E944D039B01AC01D394D71490
:101C700098F3C801B7010E942D025B016C010E941C
:101C80008C007B018C01C401B801A7012AE030E07F
:101C90001CDFC80FD91F772031F0C40161E171E06A
:101CA00097DEC80FD91FC801B7010E9482059B01AA
:101CB000AC01C601B5010E94000223C020E030E063
:101CC00040E251E40E9456027B018C010E942F05E4
:101CD0005B016C01CC24B7FCC094DC2CC401B601C0
:101CE000A5012AE030E0FEDEC80FD91FC601B5010C
:101CF0000E94D3049B01AC01C801B7010E940002FD
:101D00007A947720D9F6CE01DF91CF911F910F9170
:101D1000FF90EF90DF90CF90BF90AF909F908F900B
:101D20007F9008951FCF0895EF92FF920F931F9316
:101D30007C014EDE8C01C7012BDE080F191FC80184
:101D40001F910F91FF90EF900895CF93DF93B7D03D
:101D5000BCDACBECDAE099D92097E9F31CDCFBCFB5
:101D60001F920F920FB60F9211242F933F938F93D0
:101D70009F93AF93BF9380917A0390917B03A0913F
:101D80007C03B0917D0330917E030196A11DB11DAE
:101D9000232F2D5F2D3720F02D570196A11DB11D4A
:101DA00020937E0380937A0390937B03A0937C031C
:101DB000B0937D038091760390917703A09178038F
:101DC000B09179030196A11DB11D80937603909384
:101DD0007703A0937803B0937903BF91AF919F915C
:101DE0008F913F912F910F900FBE0F901F901895DC
:101DF0008FB7F89420917A0330917B0340917C0354
:101E000050917D038FBFB901CA0108959B01AC01B8
:101E10007FB7F8948091760390917703A09178032F
:101E2000B091790366B5A89B05C06F3F19F0019684
:101E3000A11DB11D7FBFBA2FA92F982F8827860F0C
:101E4000911DA11DB11D62E0880F991FAA1FBB1F24
:101E50006A95D1F7BC012DC0FFB7F8948091760345
:101E600090917703A0917803B0917903E6B5A89B90
:101E700005C0EF3F19F00196A11DB11DFFBFBA2F9C
:101E8000A92F982F88278E0F911DA11DB11DE2E06B
:101E9000880F991FAA1FBB1FEA95D1F7861B970BC6
:101EA000885E9340C8F22150304040405040685115
:101EB0007C4F211531054105510571F6089578943F
:101EC00084B5826084BD84B5816084BD85B582603F
:101ED00085BD85B5816085BDEEE6F0E080818160DD
:101EE0008083E1E8F0E010828081826080838081DD
:101EF00081608083E0E8F0E0808181608083E1EBB5
:101F0000F0E0808184608083E0EBF0E0808181609C
:101F10008083EAE7F0E08081846080838081826052
:101F2000808380818160808380818068808310923B
:101F3000C1000895982F8E3008F09E5097708091C0
:101F40001B028295880F880F807C892B80937C00F0
:101F500080917A00806480937A0080917A0086FD77
:101F6000FCCF2091780040917900942F80E030E000
:101F7000282B392BC9010895CF93DF93482F50E0C8
:101F8000CA0186569F4FFC0134914A575F4FFA01B0
:101F90008491882369F190E0880F991FFC01E8592A
:101FA000FF4FA591B491FC01EE58FF4FC591D4911C
:101FB000662351F42FB7F8948C91932F9095892331
:101FC0008C93888189230BC0623061F42FB7F89419
:101FD0008C91932F909589238C938881832B888370
:101FE0002FBF06C09FB7F8948C91832B8C939FBF13
:101FF000DF91CF910895482F50E0CA0182559F4F3D
:10200000FC012491CA0186569F4FFC0194914A57C6
:102010005F4FFA013491332309F440C0222351F178
:10202000233071F0243028F42130A1F0223011F552
:1020300014C02630B1F02730C1F02430D9F404C0E8
:10204000809180008F7703C0809180008F7D809386
:10205000800010C084B58F7702C084B58F7D84BDA9
:1020600009C08091B0008F7703C08091B0008F7D50
:102070008093B000E32FF0E0EE0FFF1FEE58FF4F0C
:10208000A591B4912FB7F894662321F48C91909583
:10209000892302C08C91892B8C932FBF0895682FC0
:1020A00070E0CB0182559F4FFC012491CB018656F5
:1020B0009F4FFC0144916A577F4FFB0194919923F4
:1020C00019F420E030E03CC0222351F1233071F0BC
:1020D000243028F42130A1F0223011F514C026302C
:1020E000B1F02730C1F02430D9F404C080918000D1
:1020F0008F7703C0809180008F7D8093800010C017
:1021000084B58F7702C084B58F7D84BD09C080916E
:10211000B0008F7703C08091B0008F7D8093B000B6
:10212000892F90E0880F991F84589F4FFC01A5913B
:10213000B4918C9120E030E0842311F021E030E074
:10214000C9010895629FD001739FF001829FE00D45
:10215000F11D649FE00DF11D929FF00D839FF00D26
:10216000749FF00D659FF00D9927729FB00DE11DD2
:10217000F91F639FB00DE11DF91FBD01CF011124AF
:102180000895A1E21A2EAA1BBB1BFD010DC0AA1FB8
:10219000BB1FEE1FFF1FA217B307E407F50720F0D0
:1021A000A21BB30BE40BF50B661F771F881F991F4B
:1021B0001A9469F760957095809590959B01AC0194
:1021C000BD01CF0108952F923F924F925F926F927F
:1021D0007F928F929F92AF92BF92CF92DF92EF92B7
:1021E000FF920F931F93CF93DF93CDB7DEB7CA1B38
:1021F000DB0B0FB6F894DEBF0FBECDBF09942A8863
:10220000398848885F846E847D848C849B84AA840A
:10221000B984C884DF80EE80FD800C811B81AA8197
:10222000B981CE0FD11D0FB6F894DEBF0FBECDBF62
:10223000ED010895EE0FFF1F0590F491E02D099434
:04224000F894FFCF40
:102244002000676F006E616E00696E66006F7666CF
:10225400002E000000000000000000000102020344
:102264000303030404040404040404050505050528
:102274000505050505050505050505060606060605
:1022840006060606060606060606060606060606EA
:1022940006060606060606060606060707070707D5
:1022A40007070707070707070707070707070707BA
:1022B40007070707070707070707070707070707AA
:1022C400070707070707070707070707070707079A
:1022D4000707070707070707070707080808080885
:1022E400080808080808080808080808080808086A
:1022F400080808080808080808080808080808085A
:102304000808080808080808080808080808080849
:102314000808080808080808080808080808080839
:102324000808080808080808080808080808080829
:102334000808080808080808080808080808080819
:102344000808080808080808080808080808080809
:102354000808080808080808080808010000000020
:0C236400080C9E0C9E0BCF0BAF0BF80B6F
:00000001FF
